:020000040000fa
:080000000002040000000000f2
:020000040000fa
:100400006fc921000e7f22000e018800000000004d
:100410000c00070060d82600010020001100070032
:10042000000020000000e000020032000000020096
:100430000000000060630200000000000040da00dd
:100440000000fe004440a900009120000000e000f0
:100450000300320000002000a00188004440a800f2
:100460000000060091018800800078000000eb0089
:1004700015003700e280400032a0b4009101ba00bc
:10048000e280400032a0b4009102ba00e280400055
:1004900032a0b4000002eb00472bde00f507b200eb
:1004a000602ce10004003a000059eb008301e900f0
:1004b000fdff3e00040037006128e100010032002a
:1004c0000082eb00040007001101ba000200e00006
:1004d000e8ff3a00000006003159ba008301e90044
:1004e0000c0032002159ba008301e90008003200f3
:1004f0000400e00003003a00e280400032a0b400b3
:10050000f5ff370011d9ba008301e900faff3a007c
:100510008100e800e180400032a0b4000000060045
:100520000040da000000fe0003f0a200889fbe0039
:100530008a9fbe008c1f7800ac000700b300330018
:100540006450e1004f0032006420e10052003200ac
:1005500003826c0007003b000905d0000306d000b1
:10056000820f54000c065d000200390002003200c8
:1005700089017800030678008582550004003d005b
:100580000003fd008103fd008502ea008b85420027
:10059000840f720002003b0060001000e080180031
:1005a0006011b8000005eb007a28e1000a0039006c
:1005b00006007800c75ddd00f707b2008780750090
:1005c0002d003700828171000a017800610560000a
:1005d0008180d1000080d3008502e900f9ff3b0053
:1005e000060440008784480002003b0060041400b9
:1005f000e0841c000988a300070032008a81710092
:1006000082817100610164008904d1000884d300f3
:100610008b05e800170037000978a30013003a00a3
:100620000b00e000130034008b05e90008044400cf
:1006300089844c000a4474000978a3000d003a0034
:100640000b00e000070034008b05e90008044400bb
:1006500089844c0001003a000b0020000978a300b7
:10066000f7ff32000001eb000200370082817100c9
:100670000a017800370007000cf0a70001f0a00085
:100680006b0037006420e10002003a00838f6c00a9
:100690006b0033000801be000200be00640037009a
:1006a000f4ff2f0069003700889fbe008a9fbe00bc
:1006b000010578000100e0000400350008003c005e
:1006c0000000e0002000320005003700600010004c
:1006d000e080180002003b0001f02c001a003700f7
:1006e0000004be006011b8006b0920000982cf0031
:1006f000020039000882cf000441b0006942520074
:100700000e00320008003b0082817100610164002c
:100710008904d1000884d3008b05e8000442e80076
:10072000f9ff3a00050037000804440089844c00b2
:100730008b05e9000442e900fbff3a0005000700d1
:100740000af0a70001f0a0004f05be004f04be0054
:100750000000060081002000618055000b003d0074
:100760000b00200061fe2f000100e1001d0034009d
:1007700082817100610164008904d1000884d30082
:100780000000e800faff3a007100200061006400f8
:1007900003007000020060000900320061044400a0
:1007a000e0844c000988a500050032008b05e800b4
:1007b0006808e10002003a008904d1000884d300ef
:1007c000f20f20000258e10005003d00c75ddd008a
:1007d000f907b20089807500080078000000060063
:1007e0000bf827008b007800000005000004be0015
:1007f000310007000003be000405be000200be0079
:100800002d000700844f7500000006000200be00a6
:100810006450e100050036006420e100020036006b
:100820000968a30001003a000800be000160a000b2
:100830004f0678004f05be004f04be0000000600c2
:10084000f0ff2f00f1ff2700f9ff3700889fbe005f
:100850008a9fbe00841f7800e4ff07004f007800e5
:1008600011003300f0ff2f00838f6c0006003b0067
:10087000040565000a00a7000800370009f0a6007b
:100880001000200008003700820f5400838f5c00a6
:10089000030039001000200001003e00000020008d
:1008a00009f0a7000000ea004f05be004f04be009b
:1008b0000000e00000000600c70ade00f107b200f9
:1008c000f50fb20008003200e1cf42000200320012
:1008d0000170a00024000500810f700001003200ab
:1008e0000408050044000500810f700002003a0072
:1008f000140005008502e9000000400081c04800a6
:10090000fcff3b000170a000240005000400fa0079
:10091000e0bf9f00e4815700812978000002eb00ce
:100920000f0037006fb89700904078007fb89700ad
:10093000104078000402e80080cf5000040032002c
:100940008180fb000080fb00008050000700370022
:100950006fb897000000e800e0bf9f009309e8002f
:10096000820f5200efff3a000000eb000080fa0017
:10097000000006008001eb000200370061f0790002
:100980008301e800828f5100fcff3a00000006005e
:10099000889fbe008a9fbe008c9fbe000001780029
:1009a00021c920001100e0000b003a0060c92000be
:1009b0009064880070648800b16488008164880055
:1009c000214090000004a000a040980061409000e9
:1009d0000004a000e0409800e7004100c208de00eb
:1009e000c20cdd0084648000cdc9200060c92100f4
:1009f0000d05500022002000811f78001100090021
:100a00000205d80000067800cf007800c308dd009a
:100a1000e48540008001eb00c6c9200025c9200004
:100a20000100370001027800244090000008a30074
:100a3000020032000a003700110a780094007800a2
:100a4000214090000008a300fbff32000901420092
:100a5000828f500002003900840f5100460031009f
:100a600094007800848f5000eeff3e00868f500087
:100a700002003900858f5000eaff39007064800061
:100a8000800f52004f003a00858f50004d003a0011
:100a90008301e800e18f5100e2ff36008c8f5400a3
:100aa000040036008a8f5400020031000b047800e5
:100ab00012003700614ab8006151b900b0ff2f0041
:100ac000010020000200500083805800800f520077
:100ad000818f5a00020035000904780007003700b2
:100ae0000d80540092c9210002004000110009004d
:100af0000a80d8000a80b900000478000800780055
:100b00006800070080017800e10f40002d003200ee
:100b10007064800003087800726480006400410003
:100b2000a2409000808f5100020032000104a0001a
:100b3000010037000104a100214198000880410014
:100b400064005000800978007064880022c9200089
:100b50000208780071648000214090000004a00029
:100b6000a0409800234090000004a100a0419800fc
:100b700002027800a7ff370082648800828f50004d
:100b80000900360092007800c0c82000a241900001
:100b90000348780051648800140978008040eb0015
:100ba000806480002140980080648000000a780002
:100bb000244090000004a0002042980064004200fd
:100bc000010037000000eb004f06be004f05be00dd
:100bd0004f04be00000006006400500080648800de
:100be000a04090000104a1002140980000000600f0
:100bf000889fbe008a9fbe0000057800e401500077
:100c000013001000c285de00234090000008a300fe
:100c10000400320083648800234090000004a10097
:100c2000a04198000100780059ff070000047800f7
:100c30000000e000170032008a0f5000150032005b
:100c400060b8970008005000c284de00898f55000c
:100c500001003600890578004259dd008a007800dd
:100c60000800780043ff07008a0f54000900310094
:100c70004248dd00000044008a0f500005003600a5
:100c80000a00500000004400526480006364800049
:100c90000288be00080078004f05be004f04be0069
:100ca00000000600889fbe0080047800d0648000a9
:100cb0000000e00003003a00100007000000e00020
:100cc0000a003500d06480000900e00002003a000c
:100cd0000004780006003700000478000900400096
:100ce000060007000000e00001003d000084eb006a
:100cf000080078004f04be00000006008000780065
:100d00000000e00004003a00c0c92000d064880060
:100d100001017800060037000081eb0060c9210066
:100d2000808f500002003e00d16488000001eb007b
:080d300002007800000006003b
:020000040000fa
:020000040002f8
:04aff800fdfa00005e
:020000040000fa
:020000040002f8
:04affc00793f000099
:020000040000fa
:1000080090020000900200009002000090020000a0
:100018009002000090020000900200009002000090
:100028009002000090020000900200009002000080
:100038009002000090020000900200009002000070
:100048009002000090020000900200009002000060
:100058009002000090020000900200009002000050
:10006800900200009002000090020000d863000097
:10007800ae670000900200009002000090020000ad
:100088009002000090020000900200009002000020
:100098009002000090020000900200009002000010
:1000a8009002000090020000900200009002000000
:1000b80090020000900200009002000090020000f0
:1000c80090020000900200009002000090020000e0
:1000d80090020000900200009002000090020000d0
:1000e80090020000900200009002000090020000c0
:1000f80090020000900200009002000090020000b0
:10010800900200009002000090020000900200009f
:10011800900200009002000090020000900200008f
:10012800900200009002000090020000900200007f
:10013800900200009002000090020000900200006f
:10014800900200009002000090020000900200005f
:10015800900200009002000090020000900200004f
:10016800900200009002000090020000900200003f
:10017800900200009002000090020000900200002f
:10018800900200009002000090020000900200001f
:10019800900200009002000090020000900200000f
:1001a80090020000900200009002000090020000ff
:1001b80090020000900200009002000090020000ef
:1001c80090020000900200009002000090020000df
:1001d80090020000900200009002000090020000cf
:1001e80090020000900200009002000090020000bf
:0801f8009002000090020000db
:020000040000fa
:10020800900200009002000090020000900200009e
:10021800900200009002000090020000900200008e
:10022800900200009002000090020000900200007e
:10023800900200009002000090020000900200006e
:10024800900200009002000090020000900200005e
:10025800900200009002000090020000900200004e
:10026800900200009002000090020000d863000095
:10027800ae670000900200009002000090020000ab
:10028800900200009002000090020000900200001e
:10029800900200009002000090020000900200000e
:1002a80090020000900200009002000090020000fe
:1002b80090020000900200009002000090020000ee
:1002c80090020000900200009002000090020000de
:1002d80090020000900200009002000090020000ce
:1002e80090020000900200009002000090020000be
:1002f80090020000900200009002000090020000ae
:10030800900200009002000090020000900200009d
:10031800900200009002000090020000900200008d
:10032800900200009002000090020000900200007d
:10033800900200009002000090020000900200006d
:10034800900200009002000090020000900200005d
:10035800900200009002000090020000900200004d
:10036800900200009002000090020000900200003d
:10037800900200009002000090020000900200002d
:10038800900200009002000090020000900200001d
:10039800900200009002000090020000900200000d
:1003a80090020000900200009002000090020000fd
:1003b80090020000900200009002000090020000ed
:1003c80090020000900200009002000090020000dd
:1003d80090020000900200009002000090020000cd
:1003e80090020000900200009002000090020000bd
:0803f8009002000090020000d9
:020000040000fa
:100d38000d0a0000202000002020000020320000c2
:100d48003a200000526500007175000065730000cc
:100d58007420000044610000746100002046000017
:100d6800726f00006d200000416e00006f7400007b
:100d78006865000072200000446500007669000084
:100d8800636500000d0a00002020000020200000fc
:100d9800203300003a200000526500007175000001
:100da8006573000074200000446100007461000055
:100db80020460000726f00006d20000061200000d6
:100dc800477200006f750000702000006f66000019
:100dd8002044000065760000696300006573000028
:100de8000d0a000020200000202000002034000010
:100df8003a200000536500006e64000020440000a3
:100e08006174000061200000546f00002041000060
:100e18006e6f0000746800006572000020440000d6
:100e28006576000069630000650d00000a20000077
:100e38002020000020200000353a00002053000048
:100e4800656e0000642000004461000074610000c9
:100e5800205400006f20000061200000477200004d
:100e68006f750000702000006f66000020440000cd
:100e78006576000069630000657300000d0a0000d4
:100e88002020000020200000203600003a2000002a
:100e980041640000642f0000526500006d6f00007f
:100ea8007665000020440000657600006963000054
:100eb80065200000746f00002f660000726f00004c
:100ec8006d20000061200000477200006f7500006f
:100ed800700d00000a2000002020000020200000e3
:100ee800373a000020440000756d000070200000b3
:100ef8004e65000069670000686200006f720000bc
:100f0800686f00006f640000204900006e660000f2
:100f18006f7200006d610000746900006f6e000060
:100f2800000000009c8600000d0a00000d0a000069
:100f3800456e00007465000072200000612000000a
:100f48006d6500006e75000020630000686f00008a
:100f580069630000653a0000200000000d0a0000e7
:100f6800486f0000772000006d6100006e79000076
:100f780020620000797400006573000020610000a1
:100f880072650000207900006f7500002072000073
:100f9800657100007565000073740000696e0000db
:100fa8006728000068650000782900003a200000e2
:100fb800000d00000a57000068610000742000005e
:100fc8006973000020740000686500002073000049
:100fd800686f000072740000206100006464000003
:100fe8007265000073730000206f00006620000027
:100ff80064650000766900006365000020790000e0
:101008006f75000020770000616e000074200000fa
:10101800646100007461000020660000726f0000c7
:101028006d3a0000200000000d0a0000506c00001e
:101038006561000073650000206500006e740000a3
:1010480065720000207400006865000020470000f9
:10105800726f0000757000002049000044200000f5
:101068006f660000207400006865000020440000de
:101078006174000061200000526500007175000075
:1010880065730000743a0000200000000d0a00009b
:10109800506c000065610000736500002065000069
:1010a8006e7400006572000020740000686500001e
:1010b800206e0000756d000062650000722000005f
:1010c8006f660000206200007974000065730000fc
:1010d800207400006f200000736500006e6400003b
:1010e8002028000068650000782900003a200000e8
:1010f800000d00000a5000006c65000061730000dc
:1011080065200000656e0000746500007220000014
:101118007468000065200000736800006f720000aa
:1011280074200000616400006472000065730000b0
:10113800732000006f6600002074000068650000de
:101148002064000065730000746900006e6100008f
:10115800746900006f6e000020640000657600006e
:1011680069630000653a0000200000000d0a0000d5
:10117800456e00007465000072200000746800006d
:1011880065200000477200006f750000704900007c
:10119800442000006f6600002064000065760000af
:1011a8006963000065730000207400006f20000070
:1011b800736500006e640000206400006174000024
:1011c800613a0000200000000d0a00000a2000001b
:1011d800576800006174000020470000726f00002b
:1011e80075700000204100006374000069760000fb
:1011f8006974000079200000646f00002079000005
:101208006f75000020770000616e000074200000f8
:10121800746f0000206400006f2000003f20000071
:101228000d0a0000003000003d4100006464000029
:101238002044000065760000696300006520000016
:10124800746f00002061000020470000726f0000ea
:1012580075700000200d00000a3100003d520000aa
:10126800656d00006f760000652000004465000091
:10127800766900006365000020660000726f000058
:101288006d20000061200000477200006f750000ab
:10129800700d00000a3200003d520000656d00002c
:1012a8006f76000065200000446500007669000044
:1012b8006365000020660000726f00006d2000006a
:1012c800416c00006c200000477200006f75000040
:1012d800707300003a200000000d00000a4500006d
:1012e8006e7400006572000020310000362d000089
:1012f8006269000074200000477200006f750000ea
:1013080070200000494400002028000048650000c3
:10131800782900003a200000000d00000a53000060
:10132800686f000072740000202000002020000078
:1013380020200000202000002020000020200000a5
:10134800202000004d410000432000002020000024
:101358002020000020200000202000002020000085
:1013680020200000202000002020000054790000e8
:1013780070650000202000002020000020200000d0
:1013880020200000526e0000746c0000736800009a
:1013980069700000200000000d0a00000020000015
:1013a80020200000207c00002020000020200000d9
:1013b8000020000020200000207c000020200000e9
:1013c80020200000200000005254000052000000bd
:1013d8005246000044000000435200004400000050
:1013e800554b00004e00000043480000494c0000e7
:1013f800442000000050000041520000454e00000b
:1014080054000000554e00004b5700004e200000cd
:10141800000d00000a5000006c65000061730000b8
:1014280065200000656e00007465000072200000f1
:101438007468000065200000736800006f72000087
:10144800742000006164000064720000657300008d
:10145800732000006f6600002074000068650000bb
:101468002064000065730000746900006e6100006c
:10147800746900006f6e000020640000657600004b
:10148800696300006528000068650000782900008d
:101498003a200000004e00006f2000006e6500003a
:1014a800747700006f7200006b7300002066000004
:1014b8006f7500006e6400002e20000020540000ac
:1014c80072790000696e0000672000006167000003
:1014d800616900006e2e00002e2e00000d0a00002b
:1014e800004e000065740000776f0000726b00000a
:1014f8002873000029200000666f0000756e000048
:10150800642e00002054000072790000696e00000b
:1015180067200000746f0000206a00006f690000f7
:101528006e200000002e00000d0a000000200000c0
:1015380045720000726f00007220000066690000aa
:101548006e640000696e0000672000006e65000090
:10155800747700006f7200006b2e000020200000de
:1015680054720000796900006e6700002061000075
:1015780067610000696e00002e2e00002e0d00002d
:101588000a0000004a6f0000696e00002073000026
:1015980075630000636500007373000066750000e2
:1015a8006c2100000d0a0000004100006e6e000072
:1015b8006f7500006e630000696e00006720000010
:1015c80049200000616d0000206f00006e200000bf
:1015d80074680000652000006e65000074770000e4
:1015e8006f7200006b0d00000a000000204300002d
:1015f8006f7500006c640000206e00006f740000be
:10160800206a00006f6900006e200000617300000e
:10161800206f000072700000686100006e2e0000ec
:10162800200000004d750000737400002074000055
:101638007279000020610000732000006e650000d0
:10164800772000006e6f0000646500002e2e0000f9
:101658002e0d00000a000000547200007969000095
:101668006e6700002061000067610000696e00007d
:101678002e2e00002e0d00000a000000204300005e
:101688006f7500006c640000206e00006f7400002d
:10169800206a00006f6900006e200000736500007a
:1016a8006c6500006374000065640000206e000033
:1016b80065740000776f0000726b00002e20000038
:1016c8000054000072790000696e00006720000075
:1016d8006e650000787400002064000069730000e3
:1016e800636f0000766500007265000064200000ea
:1016f8006e650000747700006f7200006b2e0000aa
:101708002e2e00000d0a0000004300006c6500004a
:10171800616e0000696e00006720000075700000af
:10172800206100006e6400002072000065740000f3
:1017380072790000696e000067200000646900008b
:10174800736300006f76000065720000792e000058
:101758002e2e00000d0a0000005700006520000032
:101768006861000076650000206c00006566000076
:101778007420000074680000652000006e65000099
:10178800747700006f7200006b2e00000d0a0000d5
:10179800004100006e6f0000746800006572000070
:1017a800206e00006f640000652000006861000082
:1017b800732000006c65000066740000207400004f
:1017c80068650000206e000065740000776f0000f7
:1017d800726b00002e0d00000a0000005a6900001c
:1017e8006742000065650000205300007461000036
:1017f800636b000020680000617300002062000035
:10180800656500006e2000007265000073650000c9
:10181800742e00000d0a0000005200006f750000d1
:1018280074650000722000005374000061720000ab
:1018380074650000642100000d0a0000002000000b
:10184800526f00007574000065720000207300007c
:101858007461000072740000207500006e7300004f
:10186800756300006365000073730000667500000f
:101878006c2e000020570000652000006361000006
:101888006e6e00006f740000207200006f7500001b
:101898007465000020660000726100006d6500003c
:1018a800732e00000d0a00000020000020520000e6
:1018b8006563000065690000766900006e670000d6
:1018c800204e0000574b00005f41000044440000d8
:1018d800525f000072730000702e00000d0a0000b5
:1018e800004500006e64000020640000657600007a
:1018f8006963000065200000626900006e640000f2
:101908002f7500006e620000696e00006420000000
:101918007375000063630000657300007366000060
:10192800756c0000210d00000a000000456e0000e3
:1019380064200000646500007669000063650000ab
:1019480020620000696e0000642f0000756e0000c0
:10195800626900006e640000206e00006f74000071
:101968002073000075700000706f00007274000032
:10197800656400002e0d00000a000000456e00009e
:10198800642000006465000076690000636500005b
:1019980020620000696e0000642f0000756e000070
:1019a800626900006e64000020740000696d000028
:1019b800652000006f750000742e00000d0a0000fd
:1019c800004500006e640000206400006576000099
:1019d8006963000065200000626900006e64000011
:1019e8002f7500006e620000696e00006420000020
:1019f80066610000696c000065640000202d00002d
:101a0800206e00006f2000006d610000746300000c
:101a1800682e00000d0a0000004500006e640000fa
:101a280020640000657600006963000065200000fe
:101a3800626900006e6400002f7500006e6200008d
:101a4800696e000064200000696e00007661000085
:101a58006c6900006420000072650000737000006b
:101a68006f6e0000736500002e0d00000a00000074
:101a7800204700006f740000206d000065730000af
:101a88007361000067650000206f00006e20000091
:101a9800456e0000645000006f6900006e7400001d
:101aa800207a0000657200006f2000002e2e0000d2
:101ab80000500000616300006b65000074200000a6
:101ac800436f0000756e000074200000526500002e
:101ad800737000006f6e0000736500003a2000000c
:101ae800000d00000a200000496e00007465000027
:101af800726e0000616c0000206d000065730000cc
:101b08007361000067650000202d00002049000077
:101b1800206100006d200000696e00002073000045
:101b2800616d000065200000677200006f7500009d
:101b3800702100000d0a0000000d00000a4c000092
:101b4800656e00003a20000000460000726f000039
:101b58006d2000004164000064720000657300009d
:101b6800733a00002000000045720000726f000008
:101b78007220000000200000736500006e64000001
:101b8800696e0000672000006d6500007373000037
:101b980061670000652e00000d0a000000200000ab
:101ba8004d65000073730000616700006520000048
:101bb800736500006e7400002073000075630000f8
:101bc8006365000073730000667500006c6c0000ac
:101bd800792e00000d0a0000005400007279000000
:101be800696e000067200000746f0000206a000022
:101bf8006f6900006e2000006e65000074770000b9
:101c08006f7200006b20000061730000206100000b
:101c18006e2000006f72000070680000616e0000a6
:101c28002e2e00002e0d00000a0000005472000045
:101c3800796900006e670000207400006f200000c2
:101c48006a6f0000696e0000206e00006574000075
:101c5800776f0000726b00002061000073200000a5
:101c6800612000006e6500007720000064650000b8
:101c780076690000636500002e2e00002e0d00001e
:101c88000a00000020200000200d00000a4100008a
:101c98006464000065640000206e00006f6400004a
:101ca80065200000746f000020670000726f00005c
:101cb80075700000203400000d0a000000200000ac
:101cc800202000000d0a0000526500006d6f000022
:101cd80076650000642000006e6f000064650000f7
:101ce80020660000726f00006d200000677200001f
:101cf8006f75000070200000340d00000a0000001d
:101d08000d0a00000d0a00000d0a00002a2a000032
:101d18002a2a00002a2a00002a2a00002a2a00006b
:101d28002a2a00002a2a00002a2a00002a2a00005b
:101d38002a2a00002a2a00002a2a00002a2a00004b
:101d48002a2a00002a2a00002a2a0000000d000082
:101d58000a5a00006967000042650000652000001b
:101d6800456e0000642000004465000076690000ac
:101d780063650000202d000020760000322e000050
:101d8800302d0000322e0000362e00003061000099
:101d98000d0a00000d0a0000000d00000a0d0000e9
:101da8000a4500006e74000065720000207400008f
:101db800617200006765000074200000736800000d
:101dc8006f720000742000006164000064720000fb
:101dd8006573000073200000696e00002068000031
:101de800657800003a200000000d00000a0d000090
:101df8000a000000020100000f0f000000050000ab
:101e080000000000000200000000000000000000c8
:101e180000000000000a00000000000001000000af
:101e2800020000000300000004000000050000009c
:101e38000600000000000000000000000000000094
:101e4800000000000000000000000000000000008a
:101e58000a000000008000000180000002800000ed
:101e68000380000004800000058000000680000058
:101e7800000000000000000000000000000000005a
:101e880000000000000000000000000050c1000039
:101e98000240000080000000000000007f000000f9
:101ea80000000000000000007800000000000000b2
:101eb800b4000000000000002c0100000000000039
:101ec8001c02000000000000fc03000000000000ed
:101ed800bc070000000000003c0f000000000000ec
:101ee8003c1e0000000000003c3c00000000000018
:101ef8003c780000000000003cf0000000000000fa
:101f08003ce00000010000003cc0000003000000ad
:101f18003c800000070000003c0000000f000000ab
:101f2800303100003233000034350000363700000d
:101f38003839000041420000434400004546000093
:101f48000200000000000000000000000000000087
:020000040000fa
:101f5800e6cbbf004200de00610060000000060022
:101f68000040eb00e6ebb700e4ebb7000000eb0045
:101f7800405f8800605f8800505f880000000600ae
:101f88000409a800729020001241780043be200086
:101f9800934178000282fb008190200003f27800d0
:101fa8000241e8000001fd0007e9b7000001fd005b
:101fb8008341e8008001fd00e4ebb7008001fd00eb
:101fc8000004e0000c003200435f800082c0b300d0
:101fd8000102780007c9bf008080fb00b342780087
:101fe80085707a000040e80007e9b7000241e9007f
:101ff8000d003200f7ff3700405f8000e801400025
:1020080082c0b3008490200007c9bf008080fb0015
:10201800b342780085707a000040e80007e9b7000d
:102028000241e900f8ff3a007190200091407800e1
:102038000180fb00839020000041eb0002f0790052
:102048000140e8000080fb0002f0790081c0e80050
:102058000100780007e9b70020c0b3008fe9b70096
:1020680002007800a1e9b70098a9ef008000eb0012
:10207800614c8800a0c0b30090e9b7000001fd00e2
:1020880091e9b70092e9b700a0e9b7000001fd00a7
:10209800114d880000000600881f7800ae0a07006e
:1020a8000080fb0001f02f000104640000047400ac
:1020b800a90a07004800dd000884fb00000474003a
:1020c800d05c8000800f5400030032000000eb0059
:1020d800e10f440001003a00100020004f0478008e
:1020e80000000600881f7800000478000409a80092
:1020f800e7cbbf0008e9b70020c0b3008fe9b700fd
:10210800e098200031c0b30090cf100007003a00db
:1021180000992000380e07000004e0000500320096
:1021280010608000c04c880002003700814c80009d
:10213800c14c88008000eb00614c8800a0c0b3004f
:1021480090e9b7008000fd0091e9b70092e9b70077
:10215800a0e9b700a1e9b7008000fd00184d88008c
:102168004f047800000006004200fa00889fbe0075
:102178008a9fbe008c1f7800fc9820001c467800bf
:102188000969ef009acbbf000ae9b7009bcbbf00f3
:102198000be9b70020c0b3000ce9b70050c0b3008a
:1021a80007e9b7004bfb2f008f8545002804200066
:1021b8008a902000690c2000815f80008100440023
:1021c80022c4b3000b007800492c070007c9bf00e0
:1021d8008080fb004f71970082707d000040e8000e
:1021e80007e9b7002804b000890f5400f2ff3a004d
:1021f80050002800bbff07000c04e000010032007b
:102208009249a8004f0678004f05be004f04be0053
:102218000080fa0000000600889fbe008004780055
:102228004d0a0700004478004b0a07000804e00044
:102238000f003a000800780009e9b700a0902000d4
:1022480041fa280007000900315878009acbbf00ee
:1022580012e9b7009bcbbf0013e9b700c0c0b300b9
:1022680007e9b700090078009eff07001f00370044
:10227800e14f540012003a008041eb00030078005f
:1022880009e9b700a190200042fa280007000900d8
:10229800b25878009acbbf0012e9b7009bcbbf00b9
:1022a80013e9b7000300780014e9b700d0c0b30001
:1022b80007e9b700090078008aff07000b0037001c
:1022c80071902000914078008181fb0002c8b30022
:1022d80080902000827178008140e8000100780039
:1022e80007e9b700090078007eff07004f04be0029
:1022f80000000600889fbe000044780081447800f2
:10230800aa09e20024003a0040c0b300832e070067
:1023180080007800504d88000000e0001e00320068
:102328000040eb00804878009840980041c0b30016
:102338008000fd0088e9b7008000fd0089e9b7004a
:10234800514d8000514c88008c29ef0021c0b3000a
:102358008000fd008ee9b7008000fd008fe9b7001e
:10236800d15c8000814c8800a0e9b700a1e9b700e2
:102378000904e0000400320010022800104d880013
:10238800100020000500370020022800104d8800aa
:1023980010002000010037000000eb004f04be00d1
:1023a80000000600e8874700889fbe008a9fbe009d
:1023b8008c9fbe008e1f78008fc9bf00c0ef9f00a2
:1023c80020c4b300552e0700800578000000e00007
:1023d80095003200e00907000080fb0001f02f00a3
:1023e8000105650000057500db0907004800dd00f0
:1023f8000a85fb0000057500d7090700004678002c
:102408000007eb000004e000100032000080fb0031
:1024180000004000412e0700000778000000e0009f
:1024280083003200000478008044eb00ca090700ea
:10243800004c7800c8090700104498008944e80057
:102448000884e800894f5600f8ff3a00c2090700df
:10245800804678008000eb00f1b79f000004e000a0
:10246800120032000080fb00000040002b2e070005
:10247800f0b79f000000e00002003a008b047800eb
:102488006e0037007fb497008044eb00b209070064
:10249800004c7800b0090700104498008944e8000f
:1024a8000884e80089cf5600f8ff3a000c04e000e1
:1024b80009003a0016c0b30086f79f000d04e0003b
:1024c80007003200040037007fb09700152e070080
:1024d8000000eb00760037000040eb0080f79f001b
:1024e80050c0b3000769b4008b04780028042000aa
:1024f800815f80008100440022c4b3000900780095
:102508007b2b07001b0090008a0f500024003a0024
:1025180011c0b3000ff397000604e00021003a0051
:102528004b0037000180fb00000040000e00400017
:10253800900f5100210032008140e800814f560081
:10254800f8ff3a008341e8000482e80085cf510093
:10255800450032000c04e00050003a00f9ff370053
:102568000180fb00000040007fb397000600400098
:10257800900f5100110032008140e80081cf5600d1
:10258800f7ff3a008341e8000482e80085cf510054
:10259800030032000d04e0003a003a00f9ff37006a
:1025a8008040eb002804b000600c2000800f54002d
:1025b800cfff3a000104e0002000320007c9bf0045
:1025c8000081fb00819020009b4578000bf178008a
:1025d8000040e80007e9b7000969ef009acbbf009f
:1025e8000ae9b7009bcbbf000be9b70010c0b300e6
:1025f8000ce9b70060002800bafe070010002000b0
:10260800cfe897000104e000290032009249a800b1
:10261800270037000e007800c22d07007fb397000f
:102628000600e000a8ff3a000000eb002000370099
:102638008b0478000000eb00f0b79f0009007800d9
:10264800b82d07000e00e000f2ff3a00f3ff370054
:10265800fb4290000504e000030032006882450058
:102668008041eb00bbff3700cb6290000504e0001f
:10267800cbff3200640220000b0242008041eb00d5
:10268800c4ff370014017800ffb09700910f510084
:10269800caff32008040eb00b7ff37001401780012
:1026a8009e0f5100c5ff32008040eb00a2ff3700ab
:1026b8004f0778004f06be004f05be004f04be000e
:1026c8008f00b10000000600889fbe00000478005b
:1026d800814478000000e0003000320010109000c3
:1026e8000048a30020003200aa09e2002b003a00ab
:1026f80040c0b300892d0700504d88000000e0005d
:102708002600320068549000084878001940980064
:1027180040c0b30088e9b7008040eb0001007800b2
:1027280089e9b700504d8000504c88008c29ef0093
:1027380020c0b3008ee9b700010078008fe9b70028
:10274800d05c8000804c88008000fd00a0e9b700c4
:10275800a1e9b7008000fd0000022800104d8800a4
:10276800100520000e0037000409a80001007800b9
:1027780009e9b70020c0b30007e9b7006850900026
:10278800e7ebb7000002280056fe07003804900067
:10279800c84c8800f0042000010037000000eb005e
:1027a8004f04be0000000600889fbe008a9fbe003e
:1027b800000478000000e0006c003a0040c2b3005a
:1027c800562d0700800478000000e0006b003200fe
:1027d80018109800804c8000b0049800e7cbbf0028
:1027e800e0549800a85c9800b85c9800c85c980011
:1027f800d85c9800f85c9800980c9800a80c980091
:10280800d5080700c0449800d3080700d0449800b2
:1028180029009000e50f4000040036000900780008
:10282800402d07008804780054003700688544006c
:1028380088c0b300c8080700005d78000844e900b4
:10284800fcff3a00c4080700f0549800c2080700cb
:1028580080549800c008070090549800be080700ec
:10286800805c98008005eb000004e0000b0032005b
:102878000080fb0000004000282d0700800578003c
:102888000000e00004003a0009007800252d070048
:102898008b04780039003700900c98000958900094
:1028a8000004e0000b0032000045eb00aa08070016
:1028b8000084fb00880d7800a70807004800dd00a9
:1028c800801d44000a45e80009589000804f5500d3
:1028d800f6ff3900a0080700905c98000004e000ab
:1028e800100032000080fb00000040000b2d0700a4
:1028f800800578000000e00009003a0019089000ff
:102908000000e00002003200062d07009b0c980032
:1029180009007800032d07008004eb00170037003a
:10292800a00c9800195890000004e0000b00320039
:102938000045eb00880807000084fb00880d78003c
:10294800850807004800dd00801d44000a45e800ae
:1029580019589000804f5500f6ff39001910900063
:102968000040a10090149800040037001010900057
:102978000040a0001014980088047800090078002e
:102988004f05be004f04be00000006000400fa0018
:10299800881f780080007800605f80000000e000f9
:1029a80011003a00010078007fff0700000478005a
:1029b800605f88000000e000640032006680570015
:1029c800d22c07005fb89700efb89700008cbe00c4
:1029d800615f8000111090000050a10090109800d5
:1029e800e60ba80068003700101490000802b20037
:1029f80065003a00010078006bff070000017800cd
:102a0800505f88000000e00050003200655f8000e1
:102a18008508900000089000808f50004b003a0015
:102a2800150a9000055890000004e00021003200cb
:102a380067c8b30008437800a208900012589000b5
:102a48000004e000160032008041eb00080420007a
:102a580014007800910f50000c003a000704e000c1
:102a68000700320012109000080070001011980042
:102a7800e64ba80011007800f05c88008043eb006a
:102a8800755890000040e800f05a98008341e8002b
:102a98008180e8001258900080cf5100ecff390087
:102aa8000643e8000482e80005589000864f50006d
:102ab800e1ff3e00250a9000155890000004e00050
:102ac8002200320066c8b3008043eb0092089000f1
:102ad800025890000004e000160032008041eb002c
:102ae8000804200011007800940f50000c003a00f0
:102af8000604e0000700320015109000080070007e
:102b080090129800e64ba80014007800e05c88005a
:102b18000043eb00725890000040e800705998009c
:102b28008341e8008180e8000258900080cf51007e
:102b3800ecff39008743e8000482e800155890004c
:102b480080cf530002003100e0ff370066c8b300b1
:102b5800615f80000100e00004003200e658980040
:102b6800111090000050a00090109800515f800054
:102b78000100e00004003200e658980011109000af
:102b88000050a000901098000000eb004f0478005f
:102b98000080fa0000000600ea874700889fbe0010
:102ba8008a9fbe008c9fbe008e1f7800004678006a
:102bb8008106780002447800830478008c69ef006d
:102bc800804c800080bf9f0001007800a41b070094
:102bd8000004e00002003200de5c800002003700e2
:102be80040c8b3008ce9b700e14f54001700320029
:102bf80009007800ab1b0700e94f500010003a00ad
:102c080009007800961b07000004e000030032006a
:102c1800db5c80000044eb000e0037000900780000
:102c2800750b07008085eb0018c0b3000004e000b6
:102c3800080032001b6080000044eb0005003700ec
:102c4800bb6080000044eb00020037009905780063
:102c58000044eb000c80fb000005d1000a0078005e
:102c68000000a20061006000e0ef9f000004e000a7
:102c780016003200514c8000014890008de9b700e1
:102c88001148900090e9b7002148900091e9b700f9
:102c980031489000a2e9b7006c804000504c880091
:102ca800209a200012c0b300904f11000500320096
:102cb80074804000504c8800a70707008ee9b700d1
:102cc80002003700e0cfb3008ee9b7000804e00047
:102cd80057003200e80be20005003a0020c2b300ba
:102ce8000e2c0700405f88000000e00003003a0057
:102cf80040c8b3008ce9b7006c0037008d0078003d
:102d08000001eb00405f8000317178000201e800ab
:102d1800e80f5100fbff3a00405f80002e08980042
:102d2800405f8000d498200014427800245898000e
:102d3800405f8000814c800061089800890178001c
:102d48000001eb00e8004100405f8000b3707800ac
:102d58000201e800e80f5100faff3a00405f8000e6
:102d68003b089800405f8000e1982000914078007f
:102d780061589800485f800076805700e32b070071
:102d88005fb19700efb19700020c9800130c980000
:102d9800405f800073be200093417800735898000c
:102da8008040eb00405f8000016098006fea970068
:102db8000404e00003003200405f80008fb89700f1
:102dc800410898000c08a30004003200415f80000d
:102dd800011090000020a000801098000a08a300ad
:102de80004003200415f8000011090000030a00014
:102df80080109800e10f470004003200415f800016
:102e0800011090000000a00080109800e18f45009c
:102e180004003200415f8000011090000010a00003
:102e280080109800e62ba8000000eb002600370071
:102e38009e4c8800db4c88008c49e2001b003a005d
:102e48000c08a3000d003200824c8000d1982000ad
:102e580091407800e4982000144278008b017800b3
:102e68000e007800230807000004e0000f0032007d
:102e780070c8b3008ce9b7000c003700824c8000a2
:102e8800d198200091407800904c8000e498200070
:102e980014427800d34c8000030907000004e000c6
:102ea8000200320080c8b3008ce9b700100020008f
:102eb8000a08a30004003200e14066008cc9bf0084
:102ec8000cfd07000080fb004f0778004f06be008e
:102ed8004f05be004f04be00af00b1000000060061
:102ee8001a00fa00889fbe008a9fbe008000780002
:102ef8000000e00033033a006c805700832b070082
:102f08002fbc9700bfbc970004c9bf000008a300ee
:102f18009c033a00e60bab0028023200645f800095
:102f28000400e0000b013200941290000558a30041
:102f38000c003a0034015400a4815c00709628000b
:102f480091002000800f5100818f59000500360044
:102f580080ff2f00008062000000a0000050a00049
:102f68001012980014119000820078007102b200cb
:102f780010022000808f500027003a000460900063
:102f88000004e00005003a0051c8b30004007800ce
:102f9800cdfd07008004780006003700505f8000f0
:102fa8000000e0000200320051c8b300c6fd07006f
:102fb80080047800605f8000100890000000e00046
:102fc80004003200572b07008000eb00605f800090
:102fd80011089800605f8000200890000000e00061
:102fe800040032004f2b07008000eb00605f800078
:102ff80021089800605f80004a2b07008000eb00e2
:10300800615f8800e60ba900111090000050a10034
:1030180090109800780637000050200000006100ea
:1030280001102000810f5000ca003a00515f800053
:103038001110900000b8a300c6003a0002d8a300ff
:10304800c4003a0000c8a300c2003a00141090005f
:1030580000b0a000101298001110900000a0a0006d
:1030680090109800b458900014589000814f500068
:10307800a60036000180fb00a40890000000400074
:1030880060857800535f80002359900003589000b2
:10309800824f500024063e00930037000280fb0058
:1030a800930890000000400060827800655f80000f
:1030b800951090000100e000a6003500840f55002f
:1030c80082003a00010378000620b20009003a00a5
:1030d800e05c8000800f520006003a000240e800e1
:1030e800a0599800555890000040e800d05a980020
:1030f800760037000148a3001a0032000a01780060
:103108000600e00006003200f55090003300900001
:1031180073529000b501900076070700050037004c
:10312800f55090003300900073529000b501900064
:103138005d080700615f80001110900000e0a000aa
:1031480090109800515890000040e800d05898001e
:10315800515f8000215890000040e800a058980076
:103168005a0037000409a80010c0b30007e9b700e7
:103178006882420081c0b3008690200072902000cf
:10318800124178000280fb0034707b000240e800a6
:1031980007e9b7008140e900f8ff3a000080fb002a
:1031a800f550900001707b0002c0e8000080fb0031
:1031b8000a707b00634041000080fb00c850de00bd
:1031c80001707b00644041000080fb0031c0b30007
:1031d80001707b006540410007e9b7006882410043
:1031e80082c0b30086902000719020009140780042
:1031f8000180fb0034707b000140e80007e9b7005c
:103208000241e900f8ff3a000080fb00f35190000a
:1032180003707b0001c0e80007e9b700e4cbbf00fa
:10322800e7ebb7008040e8008000fd00e4ebb70062
:103238008000fd00e0529800555890000040e800da
:10324800d05a980035009000804c880015109000e6
:103258000098a3000900320010022000a1fb07001b
:10326800625f800052589000515f8000f1589000d2
:10327800814f50000f0039000b003700200220005a
:1032880098fb0700625f8000d25890008180fb00a5
:10329800505f8000705890000080fb000000e9003b
:1032a800808f500003003500121090000030a000fd
:1032b80010119800515f8000215890000040e800ec
:1032c800a0589800625f8000d0003700535f8000ec
:1032d800235890000041e800a25998000358900034
:1032e800824f50006dff3e000040eb00a05998004f
:1032f800645f8000345890008040e800315a98009c
:103308001458900080cf50005aff390014109000d4
:1033180000d0a00010129800515f8000111090009a
:1033280000c0a000901098001410900000b0a100f8
:10333800101298001110900000a0a10090109800a1
:103348000040eb00305a9800141090000080a10053
:1033580010129800525f80000200e000d000320096
:10336800921090000188a300cd003200635f8000b6
:103378001310900000b8a300c9003a0001a8a300e8
:10338800c7003a0000c8a300c5003a0001d8a3004e
:10339800c3003a0000a0a0009011980012109000fd
:1033a80000b0a00010119800b25890001258900078
:1033b800814f5000ab0036000180fb00a20890004e
:1033c8000000400060857800635f8000235990000a
:1033d80003589000824f50005c053e00980037006b
:1033e8000280fb0093089000000040006082780093
:1033f800555f8000951090000100e00061023500e3
:10340800840f550087003a00010378000620b200b7
:1034180009003a00f05c8000800f520006003a0074
:103428000240e800a0599800555890000040e80074
:10343800d05a98007b0037000148a3001a003200d8
:103448000a0178000600e00006003200f5509000fe
:103458003300900073529000b5019000a506070054
:1034680005003700f550900033009000735290002b
:10347800b50190008c070700515f80001110900083
:1034880000e0a00090109800515890000040e8001b
:10349800d0589800615f8000215890000040e800f3
:1034a800a05898005f0037000409a80010c0b300b6
:1034b80007e9b7006882420081c0b3008690200007
:1034c80072902000124178000280fb0034707b006b
:1034d8000240e80007e9b7008140e900f8ff3a0038
:1034e8000080fb00f550900001707b0002c0e800ee
:1034f8000080fb000a707b00634041000080fb00f5
:10350800c850de0001707b00644041000080fb0071
:1035180031c0b30001707b006540410007e9b70086
:103528006882410082c0b30086902000719020001c
:10353800914078000180fb0034707b000140e80076
:1035480007e9b7000241e900f8ff3a000080fb00f4
:10355800f351900003707b0001c0e80007e9b70051
:10356800e4cbbf00e7ebb7008040e8008000fd0037
:10357800e4ebb7008000fd00e05298005558900039
:103588000040e800d05a980035009000804c880030
:10359800151090000098a3000900320010022000c6
:1035a800d0fa0700525f800052589000615f800097
:1035b800f1589000814f50000f0039000b00370080
:1035c80020022000c7fa0700525f8000d2589000fe
:1035d8008180fb00605f8000705890000080fb00d5
:1035e8000000e900808f50000300350012109000a1
:1035f8000030a00010119800615f800021589000f1
:103608000040e800a0589800525f80001210900017
:10361800010028000100700010119800f904200032
:10362800f5043700635f8000235890000041e800ec
:10363800a259980003589000824f500068ff3e003e
:103648000040eb00a0599800525f8000325890006b
:103658008040e8003159980012589000814f50007e
:1036680055ff3e00615f80001110900000c0a0006f
:10367800901098001210900000d0a000101198002f
:103688001110900000a0a100901098001210900056
:1036980000b0a100101198000040eb0030599800cc
:1036a800635f800013119000010023000100610096
:1036b800810f500041003a00555f800015129000bc
:1036c8000100270001006200810f50003b003a0012
:1036d80002e8a300390032000258a300bc043a00f3
:1036e8000458a3000200320004e8a300a0043a0032
:1036f80015109000f1ff2b00010060009012980057
:1037080013109000010060009011980013089000b9
:103718000000e00004003200822907008000eb006e
:10372800605f800011089800605f800020089000aa
:103738000000e000040032007a2907008000eb0056
:10374800605f800021089800605f8000752907008d
:103758000005eb006a5f8800505f80001008900049
:103768000000e000030032006e290700505f80006f
:103778001a089800505f8000200890000000e000c0
:1037880004003200672907008000eb00505f8000ca
:1037980021089800505f8000622907000005eb00af
:1037a8005a5f8800405f80000000e000020032009d
:1037b8005c2907004a5f8800e60ba900e64bab00ce
:1037c800a8003200665f80000600e0004e0032006c
:1037d800161090000068a3004b0032000048a300b8
:1037e8000f003200e25c8000535f8000f6509000ca
:1037f8003300900073529000b6019000aa060700ab
:103808000004e00004003200615f800011109000a5
:103818000090a00090109800615f80004f00370072
:103828000409a80010c0b30007e9b700e801430085
:1038380081c0b3008490200072902000124178006b
:103848000280fb0033707a000240e80007e9b70005
:103858008140e900f8ff3a000080fb00f653900031
:1038680007707a0002c0e800e15c80000080fb007d
:1038780001707a00634041000080fb00c808de0048
:1038880001707a00644041000080fb0031c0b30041
:1038980001707a006540410007e9b700545f800075
:1038a8008400780085902000e80142007290200092
:1038b800124178000280fb00814b900007f07a00eb
:1038c8000240e80007e9b7008100e800818f510055
:1038d800f6ff3a000080fb007452900004f07a0072
:1038e80002c0e80007e9b70066509000e7ebb700b0
:1038f80036039000864c880020022000f9f9070062
:10390800615f800050003700555f80000500e000cf
:1039180053003200151090000068a30050003200d8
:103928000048a30012003200f25c8000f5509000bd
:103938003600900076529000b50190005a060700b4
:103948000004e00004003200515f80001110900074
:103958000090a00090109800515f80001110900016
:103968000080a0000060a1009010980005013700b9
:103978000409a80010c0b30007e9b700e8814200b5
:1039880081c0b3008490200072902000124178001a
:103998000280fb0033707a000240e80007e9b700b4
:1039a8008140e900f8ff3a000080fb00f5509000e4
:1039b80001707a0002c0e800f15c80000080fb0022
:1039c80001707a00634041000080fb00c808de00f7
:1039d80001707a00644041000080fb0031c0b300f0
:1039e80001707a006540410007e9b700e80143002b
:1039f80082c0b3008490200071902000914078002c
:103a08000180fb0033707a000140e80007e9b70045
:103a18000241e900f8ff3a000080fb00765390006d
:103a280006707a0001c0e80007e9b7006550900009
:103a3800e7ebb700b5029000854c88002002200013
:103a4800a8f90700515f8000111090000060a100e4
:103a58000070a00090109800f9042000e6033700d9
:103a6800e64ba900e62bab00c6003200455f80009c
:103a780005089000950890000000540081805c00c3
:103a880054c8b3007296280093002000820f50009b
:103a9800838f580025003e00851090000108a30080
:103aa800b903320062806000bf033200250890002d
:103ab800e10f4000b300320035089000e10f4000ec
:103ac800b00032000138a30002003200aa09e20067
:103ad800ac003a000128a3000a00320065099000f2
:103ae800a558900025089000655a9000b5099000e7
:103af8000005070074c8b3000004e0000b003a009a
:103b08000900370065099000a55890002508900025
:103b1800655a9000b5099000e305070084c8b30012
:103b28000004e00001003a000042eb00405f800022
:103b3800001090000038a30009003200c200de0027
:103b4800e1c0600004407800eaf907001905200088
:103b58000004e00016003a008004eb00140037006f
:103b68000409a8000400780009e9b70020c0b300e0
:103b780007e9b700415f800071589000e7ebb70094
:103b880041099000824c8800011090000028a30091
:103b9800040032001002280052f90700f90420003e
:103ba80003003700200228004ef90700f90420001e
:103bb800405f80005b280700e82bef00e62ba90098
:103bc8008d033700b0052000808f5000400332007d
:103bd80004003e000000e900808f500069003a00b0
:103be80007003700c0052000808f500041033200d5
:103bf8000000e800808f500062003a00b7023700ea
:103c0800114d80000100e00078003d000000280010
:103c1800808f50005d003a0076805700514c80003c
:103c2800a1499000a3f79f00b14a9000b5f79f0003
:103c38002143900006487800b1439000b7ef9f00f9
:103c480041419000c2ef9f00d1419000d3ef9f0007
:103c5800e1429000e5ef9f0071439000f6ef9f006e
:103c6800814b900087f79f009148900091f79f0043
:103c780013060700e14f500018003a00aabf2000c1
:103c88000004eb00f6845700b15f80008100440017
:103c9800a2c0b3000a007800952507008200200022
:103ca80089007800a0bf200016f307000000e0009c
:103cb80005003a00b05f800000004400a2c0b300d5
:103cc80089007800bf2507006a04440040062000e8
:103cd800800f540003003200ebff37007680570056
:103ce8002d060700e62bab0037033200584c800046
:103cf800984490000904e00033033a004a5f8000ca
:103d08000880e800820020008a007800fdf20700a1
:103d18000000e00002003200094578000700370083
:103d2800284c900048559800514c8000405f800016
:103d3800b1489000515098001ac0b300495f800004
:103d4800584c8000e88044000880e8008200200089
:103d5800ecf207000000e00007003a00284c900051
:103d6800e8549800514c8000405f8000b1489000b2
:103d780071509800020037000a04e0001203320074
:103d8800890d07008004eb001b033700e6cbbf005a
:103d9800614160000b003a0010022800808f50003b
:103da800dd023a00844ce20006003200020078008e
:103db80084ecb700190520000f033700844ce2009b
:103dc80000033a00f0fd270000804000e10f50009a
:103dd8000600360020022000808f500003003200c9
:103de80010022800808f5000f7023a005a0307009b
:103df800e7ebb700114d8000f18f50000f003e0037
:103e0800f08f50002f013100e38f5000690032001d
:103e180004003e00e18f5000360032003c003e00b6
:103e280024003700e58f5000180132007400390073
:103e3800e68f500026023a001a01370020022000bf
:103e4800808f5000fc0132000d003e00f48f5000be
:103e58001c01320003003e00f38f50001c023a00a0
:103e68002301370000022000808f500058013200e3
:103e78000000e800808f500015023a005801370012
:103e880010022800808f50007101320005003e00aa
:103e980000fd2f0000804000e50f50000c023e009e
:103ea8000102370020022800808f500008023a00e3
:103eb8008401370049fa28000004eb0068c07c0040
:103ec800e0df9f0024030700efd89700814f5000e0
:103ed800ff013a000804e800e80f5400f7ff3a0031
:103ee80000002800ccf807009249a800f904200037
:103ef800f801370068f807000004e000f401320018
:103f080010002800c4f80700f9042000f101370068
:103f180061f807000004e000ed0132000969ef00d4
:103f28009acbbf000ae9b7009bcbbf000be9b700eb
:103f380040c0b30007e9b700a15f8000c2c0b3006a
:103f4800c0902000ea2407007490200014427800f2
:103f58008480fb00e3814000809020006481400061
:103f6800e2717800e5814000637178006681400065
:103f7800e2717800e882400065717800678140004e
:103f8800e9814000637178006a814000e27278003c
:103f9800eb804000e17178006a424200040078003a
:103fa80007e9b700200028004ef80700f9042000b0
:103fb800c801370038f807000004e000c4013200e7
:103fc8000969ef009acbbf000ae9b7009bcbbf0095
:103fd8000be9b70040c0b30007e9b700915f800064
:103fe80022c0b300c0902000c124070007e9ec00fc
:103ff800300028003bf80700f9042000b50137001d
:1040080025f807000004e000b1013200d2020700e1
:104018000045780010c0b30007e9b7000a40e9007e
:10402800f14f400080003e000bba20008044eb00b6
:104038000004eb00815f80008100440022c4b300cb
:104048000b007800aa2407008944e80001ba200080
:10405800914078000154e100040032002804b000c7
:10406800e4cf54000d003200f2ff3700e3cf5400d4
:104078000a003a0071902000914078008181fb008d
:1040880032c8b30080902000827178008140e80037
:104098000100780007e9b7006700370007c9bf00cb
:1040a8000081fb00889020008040eb0001717c00bb
:1040b8008040e8008180fb00a2b9200092707c005b
:1040c80080c0e8008180fb00b2b9200092707c00bb
:1040d800e34140008381fb0074ba20001442780059
:1040e8000481fb0041bc2000914078008180fb00e6
:1040f8008100410081804000e8c0400081717c005f
:10410800e44040008180fb00821f780002ba200052
:1041180092707c004f017800e54040008180fb00f0
:10412800821f780022ba200092707c004f0178002c
:10413800e64040008180fb00821f780032ba2000f0
:1041480092707c004f017800e74040008180fb00be
:10415800821f780042ba200092707c004f017800dc
:10416800e84040008180fb00821f780052ba20009e
:1041780092707c004f017800e94040008180fb008c
:10418800821f780062ba200092707c004f0178008c
:10419800ea4040008180fb0084707c006b40400056
:1041a80007e9b7000080fb00080040000201410059
:1041b80081ba2000edf1070071ba20009140780023
:1041c800014078000749b400014040008080fb00ae
:1041d80042bc200092707c000040e80007e9b7006c
:1041e8000080fb000800400042bc2000124178001b
:1041f8000281fb000201410061bc2000dbf10700e5
:1042080041bc200091407800014078000749b40083
:104218000140400007e9b70040002800b1f7070057
:10422800f90420002b01370020c8b30009e9b700c2
:1042380020c0b30007e9b70072902000124178004f
:104248000280fb0083902000a1b9200011f07900c2
:104258000240e8000080fb00b1b9200011f07900ad
:1042680002c0e8000080fb008040eb0001f079000c
:10427800634141000200780007e9b70040002800c8
:1042880098f70700f90420001201370082f70700a9
:104298000004e0000e013200b3f70700f904200023
:1042a8000c0137007cf707000004e0000801320029
:1042b8003cf80700f90420000004e00005013a007a
:1042c8000301370074f707000004e0000001320022
:1042d80040c8b30009e9b7009acbbf000ae9b700a4
:1042e8009bcbbf000be9b70040c0b300f10037001b
:1042f8001902070001fe2f000184470080ef9f008c
:104308001502070090ef9f0013020700004c780089
:104318001102070090e79f000f0207002044980051
:104328000d020700b0e79f000b020700c0e79f00df
:1043380009020700d0e79f0007020700e0e79f0097
:1043480005020700f0e79f00080078005c040700fa
:10435800e14f500019003a00aabf20000004eb000a
:1043680002fe2f0082844700b15f80008100440074
:10437800a2c0b3000a007800dd23070082002000f5
:1043880089007800a0bf20005ef107000000e0006f
:1043980005003a00b05f800000004400a2c0b300ee
:1043a80089007800072407006a04440040062000ba
:1043b800800f5400c6003200ebff370003fe2f00c9
:1043c80003804700740407008004eb00c100370035
:1043d8000000eb006df9070080047800bd0037008d
:1043e800e098200035c0b30090cf120006003a00d4
:1043f80000992000800507000004e000b4003200a6
:104408001860800001003700884c8000514c800003
:1044180031499000ec81400010c0b300def907007c
:104428000004e000aa0032000409a8008cc9bf00fb
:1044380009e9b70020c0b30007e9b700884c880035
:104448001002280027f70700f9042000a100370010
:10445800695f80000900e00012003200b900900096
:10446800804c8000808f50000e003a00495c90001c
:10447800b901070000447400c85c9800615f8000bf
:10448800111090000001780002f0a100921098002d
:104498000038a300030032000200780000e0a0000a
:1044a80090109800595f80000900e00088003200f1
:1044b800b9009000804c8000808f500084003a0042
:1044c8004d003700625f80000200e00017003200f4
:1044d800b2009000804c8000808f500013003a009a
:1044e800121090000078a300100032000080a00095
:1044f8000070a10010119800970107000004e00067
:1045080005003200615f8000111090000090a0004b
:10451800901098001e003700615f80001110900015
:104528000090a1009010980019003700525f800099
:104538000200e00016003200b2009000804c8000bb
:10454800808f500012003a00121090000078a300eb
:104558000f0032000080a0000070a1001011980028
:104568007d0107000004e00005003200515f800073
:10457800111090000090a0009010980004003700df
:10458800515f8000111090000090a10090109800d9
:10459800695f80000900e0000d003200b90090005a
:1045a800804c8000808f500009003a00191090005c
:1045b8000088a30006003200495c900066010700ed
:1045c80000447400c85c9800615f80000f003700e9
:1045d800595f80000900e0003d003200b9009000fa
:1045e800804c8000808f500039003a0019109000ec
:1045f8000088a30036003200495c9000560107008d
:1046080000447400c85c9800515f8000111090004d
:104618000001780002f0a100921098000038a30071
:104628002b0032000200780000e0a00090109800f3
:104638008004eb0027003700e098200031c0b30069
:1046480090cf100006003a0000992000ea04070005
:104658000004e0001e0032001860800001003700ee
:10466800884c8000514c800031499000ec8140001a
:104678000040eb0048f907000004e0001400320095
:104688000409a8008cc9bf0009e9b70020c0b3001d
:1046980007e9b700884c88002002280091f6070037
:1046a800f90420000b00370040c8b30009e9b7003f
:1046b80020c0b30007e9b700104d800001002800b2
:1046c8000100700087f60700f90420000100370098
:1046d8008004eb00340b0700c700370040c2b3006a
:1046e8008e250700800478000000e000700032008a
:1046f800919020009140780041409800a2902000bd
:104708001241780052409800e8004000b090200024
:1047180032912000b0587800820f5000fdff3a0017
:104728003391200093417800f3549800459120007c
:1047380095427800855498005691200016437800d9
:104748009654980016c9bf00805c98000005eb00dd
:10475800070032000080fb00000040006f250700c2
:10476800000578000000e00028003200900c980056
:1047780009589000f3c0b3000004e00011003200b3
:104788000041eb00f3c0b300849020000380fb00dd
:10479800e0407a008180fb00010d78000340e800ca
:1047a8000080fb0060407a004800dd00009d40006a
:1047b80083c1e8000241e80009589000804f510089
:1047c800f2ff39008380fb00809020006140780070
:1047d800905c98000344e8000004e0000f003200f9
:1047e8000080fb00000040004c2507000005780011
:1047f8000000e00008003a00190890000000e000fe
:1048080002003200472507009a0c9800090078003a
:104818004425070026003700a00c9800195890007e
:104828000004e000100032000041eb0083902000fb
:104838000880fb00e0c079008180fb00010d780052
:104848000840e8000080fb0060c079004800dd00f7
:10485800009d400008c4e8000241e8001958900093
:10486800804f5100f2ff39000004eb0098149800c3
:10487800c85c9800d85c9800e85c9800b85c980020
:10488800a85c9800f85c9800886498000900780093
:104898003ef8070080047800f0c7b30006e9b700c7
:1048a8000800780007e9b7000409a900520037009a
:1048b80040c0b30088e9b7000409a900f0c7b300f5
:1048c80006e9b7000769ef00090520004a0037002c
:1048d800229a200012417800a399200021992000f3
:1048e80030c0b300acf807000004e00036003a001e
:1048f80024fd3700229a200012417800a399200055
:104908002199200020c0b300a3f807000004e000ac
:104918002d003a001bfd370020022800808f500030
:1049280028fd3a0025fd37000280fb00930890001f
:104938000000400060827800655f8000951090005c
:104948000100e000ddf93d0082fa37000280fb003b
:10495800930890000000400060827800555f800056
:10496800951090000100e000a5fa3d0005fd370014
:10497800c55890000500780053f7070080047800b8
:10498800515f80001700370010c0b3007cf50700a6
:10499800415f8000011090000000a0008010980086
:1049a800f90420001400370075f50700415f800006
:1049b800011090000010a00080109800f904200059
:1049c8000d003700846cef00190520000a0037003d
:1049d800c3589000030078003bf707008004780074
:1049e800615f8000111090000050a10090109800a5
:1049f80010c0b30080609800090078004f05be0021
:104a08004f04be000080fa000000060072cabf0012
:104a18007f00600001003200100020000000060046
:104a28000400fa00889fbe008a1f7800726aef00af
:104a3800e0a520000001eb0021a720000218780063
:104a4800808f5000fdff3a00e0a720000001eb0036
:104a580021a9200002187800810f5000fdff3a00bc
:104a680040a720000001eb00e1a720000218780011
:104a7800808f5000fdff3a00a09b20000081eb00d2
:104a880021a620000208780068004000808f5000ae
:104a9800fcff3a00688457003161800022c0b300ef
:104aa8000800780012220700a1352c004fb89700a3
:104ab800810f500008003200c1bf9f0030618000a4
:104ac80022c0b300880078003e22070050618000b1
:104ad8004100200001230700c15f800022c0b3000d
:104ae8006a80570002220700b0e72400b0bf9f0089
:104af800c05f800022c0b300ea805700312207005f
:104b080000c0eb0002ecb70003ecb700aabf20001e
:104b18000004eb0049062000b05f8000000044005c
:104b2800a2c0b3008a007800262207006a04440065
:104b3800890f5400f8ff3a00a66aef000020200011
:104b480020558800a22aef004f0578004f04be00c8
:104b58000080fa000000060088c9bf008000eb0052
:104b6800050032000040e90088e9b700504c800099
:104b7800b080fb00504c880001007800000006005f
:104b8800ea874700889fbe008a9fbe008c9fbe00b0
:104b98008e1f78008146780072aaa80080057800e8
:104ba8005cc1b3008004eb00a89b20006e9b200032
:104bb800094578000801780098007800818f550031
:104bc80014003a002840900080cf560011003a00a7
:104bd800768057004d2407004348dd000e00400052
:104be8005fb19700efb197000288be001000200067
:104bf800f44f56001a003e000c80fb004300dd0015
:104c0800640040008080eb0001307f00100020002d
:104c180013003700f54f56000c003a00e18f4000b2
:104c28000a003a00834c8000030978002d4498005c
:104c380072805700352407007fb097008fb897001f
:104c480060bc9f0071bc9f000a4678008904e80098
:104c580068044400f58f5400d5ff3a000000eb00cb
:104c68004f0778004f06be004f05be004f04be0038
:104c7800af00b10000000600889fbe008a9fbe00fa
:104c8800cb9a2000000578000004eb006a40b900c8
:104c9800220cb40000618800a2c0b3008000780034
:104ca8000b00780092210700604d80008a0f5000a9
:104cb80002003a000880fb00040037000804e800fe
:104cc800e80f5400f1ff3a00080078004f05be00d5
:104cd8004f04be00000006000200fa00889fbe00d4
:104ce8008a9fbe008c1f7800014678000005780076
:104cf800820578008004eb000980fb004304de0095
:104d0800416180008100440012c0b3006b805700ed
:104d180077210700506180008000440012c0b30072
:104d28006c8057007221070009047800e78064004e
:104d38004ff197000280fb000180de000008a3000d
:104d4800150032005ff097000080fb000180de0054
:104d58000008a30010003200c348dd006061800035
:104d6800808040002161880082c0b300e0c220003a
:104d78005f210700706180008a0f500006003a002a
:104d88000c407800304ce30003003a00906180004a
:104d98008b0f5000040032008904e800f98f54009a
:104da800d5ff3a00f80f2000080078004f06780079
:104db8004f05be004f04be000080fa000000060048
:104dc800889fbe008a9fbe000004780001457800d5
:104dd8000104e0004100320068004000e60f500086
:104de8003e003600cb9a20008004eb001161800061
:104df8008180440001618800a2c0b3000b007800e4
:104e08003b210700e10f440003003200604d8000a1
:104e1800800f54002c003a000001eb00e39a2000b8
:104e28008240780062c07900804f55000700320048
:104e38008240e8000201e800e80f5100f8ff3a005c
:104e4800e8cf50000e003a001f0037000204e000cf
:104e58000b003a00f09a200000c1eb00904f1100bf
:104e680009003a00aee9ef00aca9ef00006180004c
:104e7800a2c0b3008b007800522107001000370051
:104e8800e6cf500009003e00814178000380fb0016
:104e98000081e800c19a20006300400060f17800ba
:104ea8008341e800e7cf5100f8ff3a00b5e9ef0089
:104eb80000618000a2c0b3008b0078004121070088
:104ec800e10f440007003a00ea844400000520008e
:104ed800808f540003003200c4ff37001000200008
:104ee800010037000000eb004f05be004f04be0074
:104ef80000000600f0874700889fbe008a9fbe001a
:104f08008c9fbe008e1f78000006780081467800ce
:104f1800f3b79f0084f79f00000578000207780028
:104f28008004eb00894578000980fb004304de001b
:104f3800416180008100440012c0b3007b805700ab
:104f4800eb200700506180008000440012c0b300cd
:104f58007c805700e6200700e78064004fe1970057
:104f68000280fb000180de000008a300150032006b
:104f78005fe097000080fb000180de000008a300ce
:104f880010003200c348dd0060618000808040006e
:104f98002161880082c0b300e0c22000d42007004d
:104fa800706180008a0f500006003a0030ccbf00c4
:104fb800006ce10003003a00906180008e0f500001
:104fc800a80032008904e800f98f5400a9003200d3
:104fd800d4ff37008b45e8008b80fb00c308de0058
:104fe800506180008080400012c0b3007c80570070
:104ff800bf2007000804e800f90f54000800320039
:1050080088457800cfe097000180fb00e700640046
:105018000180de000008a300eeff3a00020037001e
:10502800f9cf55008d0032000b80fb004300dd00f6
:105038006161800001004000206188007c61880077
:105048000d00780030ecb7009e61880034ecef006a
:10505800110037008080fb00c308dd00606180001c
:105068008080400082c0b3007a805700a0200700eb
:105078003fb09700880f500004003a000fe89700ef
:105088000ff19700804f5100800032004fe89700e1
:10509800e14f4000efff3a005161800012c0b300b9
:1050a8007c805700922007008044eb000a003700fc
:1050b8008944e8008980fb00c308de005061800055
:1050c8008080400012c0b3007c8057008820070011
:1050d800f8cf540006003e00cfe097000180fb00a7
:1050e800e78064000180de000008a300f0ff3a00ba
:1050f80089cf5500eeff3200f9cf54005700320037
:1051080048c32000184478000900780034ecb70040
:10511800eac220002061800082c0b3008a007800c3
:10512800a82007007fb19700726188000ff09700f0
:1051380030ecb7000800780034ecb7008984fb0035
:105148004348dd0061618000010040002061880063
:1051580082c0b3008a0078009a2007000b84fb0005
:105168004346de00516180008100460012c0b30052
:105178007c8057005e200700670464001a00200046
:105188000854dd00cfe0970081407400c1e79f001c
:1051980050618000000046000a417800fc805700fa
:1051a800882007004161800081004600fb85570088
:1051b8000a4178000b0078004d2007005fe0970057
:1051c80000447400d8e79f0040618000000046005a
:1051d8000a4178008b0078007a200700434cde00f3
:1051e80051618000810044000a4178007c805700aa
:1051f8003f200700e78464008954dd004fe19700f1
:1052080002c17400c2e79f005061800000004400a2
:105218000a417800fc8057006a200700416180003d
:10522800810044000a4178000b0078003020070014
:1052380089c4ea005fe0970080c46400d9e79f0052
:1052480040618000000044000a4178008b0078002b
:105258005c2007000000eb000d00370070082000fc
:105268000b00370034ccbf00c0ef9f007fb497001d
:1052780086ff37005161800012c0b3007c80570060
:105288001b2007000004eb005dff37000000eb0067
:105298004f0778004f06be004f05be004f04be0002
:1052a8000f01b10000000600e4874700889fbe0098
:1052b8008a9fbe008c9fbe008e1f78000304780072
:1052c8008446780084fe070000477800e14f4000dc
:1052d800580032008080fb00c308dd006061800058
:1052e8008080400021618800ecc2200082c0b300a9
:1052f8000c007800fe1f0700080578008e4578002e
:10530800480037008884fb00c348dd0060618000e6
:10531800808040002161880082c0b3000c007800c2
:10532800f31f0700706180008a0f50003c003a00ac
:105338000d407800304ce30039003a004dc320009e
:105348009d4678000b85fb00c350dd00606180003e
:10535800808040002161880082c0b3000c00780082
:10536800e31f07000d00780034ecb70020618000cf
:1053780082c0b3008c00780012200700434cde0086
:10538800516180008100440012c0b3007080570052
:10539800d71f070067806400190020000048dd005f
:1053a80000c0ea008ff097008140600081f79f00fd
:1053b800506180000000440009417800f0805700e7
:1053c800002007008b4f57001c003a00e1cf460031
:1053d8001a003a004354de00516180008100440005
:1053e8000941780070805700c11f070067006500f9
:1053f8000048dd0000c0ea008ff09700814060009f
:1054080081f79f0050618000000044000941780046
:10541800f0805700eb1f07000000eb000800370082
:105428008845780048c3200018447800e14f4400bc
:10543800b4ff3a0050002000010037000000eb00e4
:105448004f0778004f06be004f05be004f04be0050
:105458004f00b10000000600889fbe008a1f780038
:10546800a0bf200080c0eb0022c0200001587800b7
:10547800800f5100fdff3a008000fd0002ecb700ec
:1054880003ecb7008000fd00aabf20000004eb0079
:1054980049062000b05f800000004400a2c0b300ad
:1054a8008a007800c71f07006a044400890f540067
:1054b800f8ff3a004f0578004f04be0000000600d0
:1054c800889fbe008a9fbe0080047800abbf200082
:1054d8000004eb004a062000b15f80008100440010
:1054e800a2c0b3000b007800811f07001060800085
:1054f800e10f40000800320082002000a1bf200018
:1055080009007800ffec07000000e00002003a0004
:1055180010002000040037006a0444008a0f540079
:10552800edff3a000000eb004f05be004f04be003f
:1055380000000600889fbe008a9fbe008004780095
:10554800abbf20000004eb004a062000b15f8000da
:1055580081004400a2c0b3000b007800641f07005c
:1055680010608000e10f400004003200990f5000e5
:1055780002003a0010002000040037006a044400ca
:105588008a0f5400f1ff3a000000eb004f05be00ff
:105598004f04be00000006000a00fa00889fbe0003
:1055a8008a1f7800708157008000780031197800d0
:1055b800311978003119780031197800110978000b
:1055c80068004000dbff0700110020000004e00035
:1055d80017003a0007003700b05f80000000440061
:1055e800a2c0b300f0805700761f0700110020000a
:1055f8000f003700aabf20000004eb004906200076
:10560800b15f800081004400a2c0b3000a007800a6
:10561800371f070010608000e10f4000eeff3200e6
:105628006a044400890f5400f5ff3a008000eb003b
:10563800010078004f0578004f04be000080fa0092
:1056480000000600ee874700889fbe008a9fbe00c4
:105658008c9fbe008e1f780080bf9f000005eb0066
:105668000a80fb00c304de004161800081804400a1
:1056780012c0b300798057001d1f070051618000d8
:105688008180440012c0b3007a805700181f0700b9
:1056980067046500efe097000180fb000880de00ea
:1056a8000008a300ac0032007fe097000080fb00f8
:1056b8000880de000008a300a70032004356dd0082
:1056c800616180008100460021618800edc22000f0
:1056d80082c0b3000d007800051f070070618000cc
:1056e8000fb99700820f500039003a0010002000cf
:1056f8000804dd0008c4ea00efe097008140640078
:10570800e1e79f00506180000080440012c0b300b0
:10571800fa8057002b1f07007fe0970000446400c1
:10572800f8e79f00406180000080440012c0b30089
:10573800f9805700231f070034ccbf00e14f400019
:1057480085003200180020008080fb00c308de00be
:10575800506180008080400012c0b3007a805700fa
:10576800e31e070034ccbf000080fb00e7006000a8
:105778008140dd0081c0ea006fe1970002c160004e
:10578800e2e79f004300de00516180000100400015
:1057980008417800fa8057000a1f070041c320001b
:1057a800914078008180fb00c308dd0060618000c3
:1057b8008080400082c0b3000d007800cc1e070036
:1057c80034ccbf00e14f400063003200deff3700f9
:1057d80060618000800546001e002000350037000b
:1057e8008080fb00c308dd0060618000808040008d
:1057f8002161880082c0b30078805700bc1e070072
:105808004fb097008fb89700808f50001e003a0065
:1058180041c32000914078008180fb00c308de006e
:10582800506180008080400012c0b3007a80570029
:10583800af1e070034ccbf000080fb00e70060000b
:105848008170dd0081c0ea006fe1970002c160004d
:10585800e2e79f004300de00516180000100400044
:105868000e417800fa805700d61e07006fe89700af
:1058780034ecb70082c0b3008d0078000b007800cc
:10588800d01e07000b0037002b61800041c32000a9
:10589800914078008180fb00c308dd0060618000d2
:1058a800808040002161880082c0b3000d0078002c
:1058b8008f1e070034ccbf00e14f4000c8ff3a00fc
:1058c80061618000810046002161880082c0b300c8
:1058d8000d007800861e070040c3200080c0eb0042
:1058e80090cf10001c003a00516180008180440074
:1058f80012c0b3007a8057007d1e070012002000f6
:105908000814dd0008c4ea006fe097000040640056
:10591800e0e79f005061800000804400fa80570053
:10592800a81e0700416180008180440012c0b300b6
:10593800798057006e1e07007fe0970000446400de
:10594800f8e79f00406180000080440012c0b30067
:10595800f98057009b1e07000a05e800f90f55005b
:105968003fff3a004f0778004f06be004f05be00c4
:105978004f04be00ef00b10000000600881f780049
:1059880000047800ebfe0700110020000004e0008e
:1059980016003a0018007800770f0700e94f50000a
:1059a80011003200e1608000010cb2000004200008
:1059b800808f5000020032000100e0000a003a0027
:1059c8007060800081608000d05f8800e15f88009f
:1059d80090608000a1608000f05f8800016088000e
:1059e80011002000010037008000eb000100780062
:1059f8004f04780000000600881f78000004780033
:105a0800affe0700110020000004e00008003a0083
:105a180008007800231007008000eb00e94f5000d1
:105a280003003200b0608000106088001100200080
:105a3800010078004f04780000000600889fbe002f
:105a48008a1f7800ca9a20000004eb006a40b90057
:105a5800220cb40000618800a2c0b3008000780066
:105a68000a007800221e0700604d8000e10f400008
:105a780002003a000880fb00040037000804e80030
:105a8800e80f5400f1ff3a00080078004f0578004d
