:020000040000fa
:080000000002040000000000f2
:020000040000fa
:100400002f5321000e7f22000e0188000000000003
:100410000c000700c0812800010020001100070027
:10042000000020000000e000020032000000020096
:1004300000000000c07e0200000000000040da0062
:100440000000fe004440a900608d20000000e00094
:100450000300320000002000a00188004440a800f2
:100460000000060091018800800078000000eb0089
:1004700015003700e280400032a0b4009101ba00bc
:10048000e280400032a0b4009102ba00e280400055
:1004900032a0b4000002eb00472bde00f507b200eb
:1004a000602ce10004003a000059eb008301e900f0
:1004b000fdff3e00040037006128e100010032002a
:1004c0000082eb00040007001101ba000200e00006
:1004d000e8ff3a00000006003159ba008301e90044
:1004e0000c0032002159ba008301e90008003200f3
:1004f0000400e00003003a00e280400032a0b400b3
:10050000f5ff370011d9ba008301e900faff3a007c
:100510008100e800e180400032a0b4000000060045
:100520000040da000000fe00889fbe0080047800d2
:10053000806980000000e00003003a00100007001e
:100540000000e0000a003500806980000900e0003a
:1005500002003a000004780006003700000478002a
:1005600009004000060007000000e00001003d0017
:100570000084eb00080078004f04be000000060075
:10058000800078000000e00004003a0020d3200042
:100590008069880001017800060037000081eb00c7
:1005a00020532100808f500002003e0081698800a6
:1005b0000001eb000200780000000600889fbe00ea
:1005c0008a9fbe00010578000100e00004003500ac
:1005d00008003c000000e000200032000500370069
:1005e00060001000e080180002003b0001f02c00c9
:1005f0001a0037000004be006011b8006b0920002b
:100600000982cf00020039000882cf000441b00007
:10061000694252000e00320008003b0082817100e6
:10062000610164008904d1000884d3008b05e800cf
:100630000442e800f9ff3a000500370008044400ce
:1006400089844c008b05e9000442e900fbff3a0075
:10065000650007000af0a70001f0a0004f05be00ea
:100660004f04be000000060003f0a200889fbe00f9
:100670008a9fbe008c1f780081000700880033002d
:100680006450e1004f0032006420e100520032006b
:1006900003826c0007003b000905d0000306d00070
:1006a000820f54000c065d00020039000200320087
:1006b00089017800030678008582550004003d001a
:1006c0000003fd008103fd008502ea008b854200e6
:1006d000840f720002003b0060001000e0801800f0
:1006e0006011b8000005eb007a28e1000a0039002b
:1006f00006007800c75ddd00f707b200878075004f
:100700002d003700828171000a01780061056000c8
:100710008180d1000080d3008502e900f9ff3b0011
:10072000060440008784480002003b006004140077
:10073000e0841c000988a300070032008a81710050
:1007400082817100610164008904d1000884d300b2
:100750008b05e800170037000978a30013003a0062
:100760000b00e000130034008b05e900080444008e
:1007700089844c000a4474000978a3000d003a00f3
:100780000b00e000070034008b05e900080444007a
:1007900089844c0001003a000b0020000978a30076
:1007a000f7ff32000001eb00020037008281710088
:1007b0000a0178000c0007000cf0a70001f0a0006f
:1007c000400037006420e10002003a00838f6c0093
:1007d000400033000801be000200be0039003700af
:1007e000f4ff2f003e00370081002000618055009b
:1007f0000b003d000b00200061fe2f000100e10016
:100800001d00340082817100610164008904d100ff
:100810000884d3000000e800faff3a0071002000cd
:1008200061006400030070000200600009003200f3
:1008300061044400e0844c000988a50005003200f2
:100840008b05e8006808e10002003a008904d10045
:100850000884d300f20f20000258e10005003d009b
:10086000c75ddd00f907b2008980750008007800d7
:10087000000006000bf827008b0078000000050040
:100880000004be00310007000003be000405be00e6
:100890000200be002d000700844f75000000060016
:1008a0000200be006450e100050036006420e10053
:1008b000020036000968a30001003a000800be00eb
:1008c0000160a0004f0678004f05be004f04be0037
:1008d00000000600f0ff2f00f1ff2700f9ff3700ae
:1008e000889fbe008a9fbe00841f7800e4ff070037
:1008f0004f00780011003300f0ff2f00838f6c0051
:1009000006003b00040565000a00a7000800370048
:1009100009f0a6001000200008003700820f5400e4
:10092000838f5c00030039001000200001003e00ae
:100930000000200009f0a7000000ea004f05be00fb
:100940004f04be000000e00000000600c70ade0001
:10095000f107b200f50fb20008003200e1cf42000b
:10096000020032000170a00024000500810f700019
:10097000010032000408050044000500810f7000ea
:1009800002003a00140005008502e9000000400062
:1009900081c04800fcff3b000170a000240005005e
:1009a000889fbe008a9fbe008c9fbe000001780019
:1009b00081d220001100e0000b003a00c0d22000dc
:1009c0004069880020698800616988003169880071
:1009d000214090000004a000a040980061409000d9
:1009e0000004a000e0409800e7004100c208de00db
:1009f000c20cdd00346980002dd32000205321007b
:100a00000d05500022002000811f78001100090010
:100a10000205d80000067800cf007800c308dd008a
:100a2000e48540008001eb0026d3200085d2200021
:100a30000100370001027800244090000008a30064
:100a4000020032000a003700110a78009400780092
:100a5000214090000008a300fbff32000901420082
:100a6000828f500002003900840f5100460031008f
:100a700094007800848f5000eeff3e00868f500077
:100a800002003900858f5000eaff3900206980009c
:100a9000800f52004f003a00858f50004d003a0001
:100aa0008301e800e18f5100e2ff36008c8f540093
:100ab000040036008a8f5400020031000b047800d5
:100ac00012003700614ab8006151b900b0ff2f0031
:100ad000010020000200500083805800800f520067
:100ae000818f5a00020035000904780007003700a2
:100af0000d805400525321000200400011000900f3
:100b00000a80d8000a80b900000478000800780044
:100b100085fe070080017800e10f40002d003200c3
:100b20002069800003087800226980006400410089
:100b3000a2409000808f5100020032000104a0000a
:100b4000010037000104a100214198000880410004
:100b500064005000800978002069880082d220005b
:100b60000208780021698000214090000004a00064
:100b7000a0409800234090000004a100a0419800ec
:100b800002027800a7ff370032698800828f500088
:100b9000090036009200780020d22000a241900087
:100ba0000348780001698800140978008040eb0050
:100bb000306980002140980030698000000a780088
:100bc000244090000004a0002042980064004200ed
:100bd000010037000000eb004f06be004f05be00cd
:100be0004f04be0000000600640050003069880019
:100bf000a04090000104a1002140980000000600e0
:100c0000889fbe008a9fbe0000057800e401500066
:100c100013001000c285de00234090000008a300ee
:100c20000400320033698800234090000004a100d2
:100c3000a04198000100780059ff070000047800e7
:100c40000000e000170032008a0f5000150032004b
:100c500060b8970008005000c284de00898f5500fc
:100c600001003600890578004259dd008a007800cd
:100c700008007800290007008a0f5400090031009d
:100c80004248dd00000044008a0f50000500360095
:100c90000a005000000044000269800013698000cf
:100ca0000288be00080078004f05be004f04be0059
:100cb000000006000400fa00e0bf9f00e481570036
:100cc000812978000002eb000f0037006fb8970011
:100cd000904078007fb89700104078000402e80048
:100ce00080cf5000040032008180fb000080fb00b8
:100cf00000805000070037006fb897000000e80040
:100d0000e0bf9f009309e800820f5200efff3a0016
:100d10000000eb000080fa00000006008001eb00fc
:100d20000200370061f079008301e800828f5100f2
:080d3000fcff3a000000060080
:020000040000fa
:020000040002f8
:04aff800fdfa00005e
:020000040000fa
:020000040002f8
:04affc007f3f000093
:020000040000fa
:1000080090020000900200009002000090020000a0
:100018009002000090020000900200009002000090
:100028009002000090020000900200009002000080
:100038009002000090020000900200009002000070
:100048009002000090020000900200009002000060
:100058009002000090020000900200009002000050
:10006800900200009002000090020000ca74000094
:100078003c82000090020000900200009002000004
:100088009002000090020000900200009002000020
:100098009002000090020000900200009002000010
:1000a8009002000090020000900200009002000000
:1000b80090020000900200009002000090020000f0
:1000c80090020000900200009002000090020000e0
:1000d80090020000900200009002000090020000d0
:1000e80090020000900200009002000090020000c0
:1000f80090020000900200009002000090020000b0
:10010800900200009002000090020000900200009f
:10011800900200009002000090020000900200008f
:10012800900200009002000090020000900200007f
:10013800900200009002000090020000900200006f
:10014800900200009002000090020000900200005f
:10015800900200009002000090020000900200004f
:10016800900200009002000090020000900200003f
:10017800900200009002000090020000900200002f
:10018800900200009002000090020000900200001f
:10019800900200009002000090020000900200000f
:1001a80090020000900200009002000090020000ff
:1001b80090020000900200009002000090020000ef
:1001c80090020000900200009002000090020000df
:1001d80090020000900200009002000090020000cf
:1001e80090020000900200009002000090020000bf
:0801f8009002000090020000db
:020000040000fa
:10020800900200009002000090020000900200009e
:10021800900200009002000090020000900200008e
:10022800900200009002000090020000900200007e
:10023800900200009002000090020000900200006e
:10024800900200009002000090020000900200005e
:10025800900200009002000090020000900200004e
:10026800900200009002000090020000ca74000092
:100278003c82000090020000900200009002000002
:10028800900200009002000090020000900200001e
:10029800900200009002000090020000900200000e
:1002a80090020000900200009002000090020000fe
:1002b80090020000900200009002000090020000ee
:1002c80090020000900200009002000090020000de
:1002d80090020000900200009002000090020000ce
:1002e80090020000900200009002000090020000be
:1002f80090020000900200009002000090020000ae
:10030800900200009002000090020000900200009d
:10031800900200009002000090020000900200008d
:10032800900200009002000090020000900200007d
:10033800900200009002000090020000900200006d
:10034800900200009002000090020000900200005d
:10035800900200009002000090020000900200004d
:10036800900200009002000090020000900200003d
:10037800900200009002000090020000900200002d
:10038800900200009002000090020000900200001d
:10039800900200009002000090020000900200000d
:1003a80090020000900200009002000090020000fd
:1003b80090020000900200009002000090020000ed
:1003c80090020000900200009002000090020000dd
:1003d80090020000900200009002000090020000cd
:1003e80090020000900200009002000090020000bd
:0803f8009002000090020000d9
:020000040000fa
:100d38000d0a0000202000002020000020310000c3
:100d48003a200000456e0000616200006c650000fa
:100d58002f44000069730000616200006c650000a8
:100d6800204a00006f6900006e6900006e6700008d
:100d780020620000792000004f74000068650000c0
:100d88007220000044650000766900006365000079
:100d9800730d00000a200000202000002020000021
:100da800323a0000205200006571000075650000ad
:100db800737400002044000061740000612000008a
:100dc800467200006f6d0000204100006e6f000049
:100dd8007468000065720000204400006576000019
:100de80069630000650d00000a2000002020000053
:100df80020200000333a00002052000065710000f6
:100e080075650000737400002044000061740000e0
:100e180061200000467200006f6d00002061000034
:100e280020470000726f000075700000206f0000fe
:100e380066200000446500007669000063650000d4
:100e4800730d00000a200000202000002020000070
:100e5800343a000020530000656e00006420000052
:100e68004461000074610000205400006f200000fd
:100e7800416e00006f740000686500007220000079
:100e88004465000076690000636500000d0a0000f3
:100e98002020000020200000203500003a2000001b
:100ea800536500006e640000204400006174000077
:100eb80061200000546f00002061000020470000fe
:100ec800726f000075700000206f0000662000003f
:100ed800446500007669000063650000730d00003a
:100ee8000a2000002020000020200000363a0000e0
:100ef80020410000646400002f520000656d00006e
:100f08006f760000652000004465000076690000e7
:100f180063650000207400006f2f000066720000f7
:100f28006f6d00002061000020470000726f000014
:100f3800757000000d0a000020200000202000002d
:100f4800203700003a200000447500006d70000052
:100f5800204e00006569000067680000626f0000ad
:100f6800726800006f6f000064200000496e000086
:100f7800666f0000726d000061740000696f000008
:100f88006e0000009c8600000d0a0000456e0000ff
:100f98007465000072200000612000006d6500008b
:100fa8006e75000020630000686f00006963000030
:100fb800653a0000200000000d0a0000303d0000e6
:100fc8004469000073610000626c00006520000045
:100fd8004a6f0000696e00002c200000313d0000bf
:100fe800456e0000616200006c650000204a000048
:100ff8006f6900006e2000003a200000000d00001c
:101008000a4800006f770000206d0000616e000044
:1010180079200000627900007465000073200000e8
:101028006172000065200000796f000075200000e3
:101038007265000071750000657300007469000036
:101048006e6700002868000065780000293a0000f3
:10105800200000000d0a00005768000061740000bd
:1010680020690000732000007468000065200000fb
:10107800736800006f720000742000006164000053
:101088006472000065730000732000006f66000042
:101098002064000065760000696300006520000098
:1010a800796f000075200000776100006e74000001
:1010b8002064000061740000612000006672000076
:1010c8006f6d00003a200000000d00000a5000007b
:1010d8006c6500006173000065200000656e00000b
:1010e800746500007220000074680000652000002c
:1010f800477200006f75000070200000494400002e
:10110800206f000066200000746800006520000061
:101118004461000074610000205200006571000005
:1011280075650000737400003a200000000d00008f
:101138000a5000006c650000617300006520000023
:10114800656e00007465000072200000746800007d
:10115800652000006e7500006d6200006572000079
:10116800206f0000662000006279000074650000ae
:1011780073200000746f000020730000656e00008b
:10118800642000002868000065780000293a000003
:10119800200000000d0a0000506c0000656100008e
:1011a80073650000206500006e7400006572000021
:1011b800207400006865000020730000686f00005c
:1011c8007274000020610000646400007265000011
:1011d80073730000206f0000662000007468000030
:1011e800652000006465000073740000696e0000eb
:1011f80061740000696f00006e20000064650000e3
:1012080076690000636500003a200000000d0000c8
:101218000a4500006e74000065720000207400002a
:101228006865000020470000726f000075700000bc
:1012380049440000206f000066200000646500003b
:10124800766900006365000073200000746f000079
:1012580020730000656e00006420000064610000d7
:10126800746100003a200000000d00000a0a000026
:1012780020570000686100007420000047720000d9
:101288006f75000070200000416300007469000061
:101298007669000074790000206400006f20000067
:1012a800796f000075200000776100006e740000ff
:1012b800207400006f200000646f0000203f0000d1
:1012c800200d00000a000000303d000041640000cd
:1012d8006420000044650000766900006365000032
:1012e800207400006f200000612000004772000099
:1012f8006f750000702000000d0a0000313d0000ed
:10130800526500006d6f0000766500002044000003
:1013180065760000696300006520000066720000c1
:101328006f6d00002061000020470000726f000010
:10133800757000000d0a0000323d00005265000083
:101348006d6f00007665000020440000657600009f
:101358006963000065200000667200006f6d000080
:10136800204100006c6c000020470000726f0000f4
:1013780075700000733a0000200000000d0a00009c
:10138800456e0000746500007220000031360000d0
:101398002d6200006974000020470000726f000091
:1013a8007570000020490000442000002848000013
:1013b80065780000293a0000200000000d0a0000ae
:1013c800536800006f7200007420000020200000a5
:1013d8002020000020200000202000002020000005
:1013e80020200000204d0000414300002020000084
:1013f80020200000202000002020000020200000e5
:1014080020200000202000002020000020540000a0
:1014180079700000652000002020000020200000d6
:1014280020200000205200006e7400006c73000041
:101438006869000070200000000d00000a0000002c
:1014480020200000202000007c2000002020000038
:101458002000000020200000202000007c20000048
:1014680020200000202000000052000054520000fc
:1014780000520000464400000043000052440000af
:10148800005500004b4e0000004300004849000092
:101498004c4400002000000050410000524500006c
:1014a8004e540000005500004e4b0000574e0000ff
:1014b800200000000d0a0000506c0000656100006b
:1014c80073650000206500006e74000065720000fe
:1014d800207400006865000020730000686f000039
:1014e80072740000206100006464000072650000ee
:1014f80073730000206f000066200000746800000d
:10150800652000006465000073740000696e0000c7
:1015180061740000696f00006e20000064650000bf
:10152800766900006365000028680000657800009f
:10153800293a000020000000202000004e6500002d
:1015480069670000686200006f7200002074000084
:10155800616200006c6500002069000073200000d3
:10156800667500006c6c00002e0d00000a0000007b
:1015780020200000446900007265000063740000c8
:10158800206a00006f6900006e200000737500007b
:10159800636300006573000073660000756c0000eb
:1015a8002e0d00000a000000504100004e200000ef
:1015b8000020000073740000617200007465000070
:1015c8006420000073750000636300006573000009
:1015d80073660000756c00006c7900002e0d000029
:1015e8000a00000020450000727200006f720000bf
:1015f800206600006f7200006d6900006e670000d1
:10160800206e000065740000776f0000726b0000a8
:101618002e2000002054000072790000696e00003e
:101628006720000061670000616900006e2e0000fd
:101638002e2e00000d0a0000004a00006f6900000d
:101648006e6900006e67000020700000657200007f
:101658006d69000074740000656400002e0d0000c0
:101668000a000000204a00006f6900006e20000098
:1016780070650000726d00006973000073690000f6
:101688006f6e0000207500006e7300007563000027
:101698006365000073730000667500006c2e00001f
:1016a8002057000065200000636100006e6e000096
:1016b8006f740000206100006c6c00006f77000000
:1016c800206a00006f6900006e7300002e0d000094
:1016d8000a0000002e2e0000526f000075740000f2
:1016e8006520000052650000706c00007920000041
:1016f80053750000636300006573000073660000a3
:10170800756c00002e2e00002e0d00000a0000004f
:101718002e2e0000526f0000757400006520000036
:1017280052650000706c0000792000006e6f0000a8
:1017380074200000537500006363000065730000a7
:1017480073660000756c00002e2e00000d0a000064
:10175800000d00000a4e00006f64000065200000c4
:10176800002000005769000074680000204d000048
:1017780041430000204100006464000072650000dd
:101788007373000020000000206a000075730000d9
:10179800742000006a6f0000696e00006564000034
:1017a8002e0d00000a0000004e6f00006465000066
:1017b8002068000061730000206c0000656600006e
:1017c8007420000074680000652000006e65000049
:1017d800747700006f7200006b2e00000d0a000085
:1017e80000200000416e00006f7400006865000072
:1017f800722000006e6f0000646500002068000021
:1018080061730000206c0000656600007420000011
:1018180074680000652000006e65000074770000a1
:101828006f7200006b2e00000d0a0000005a0000c5
:1018380069670000426500006520000053740000dd
:10184800616300006b2000006861000073200000e5
:1018580062650000656e000020720000657300007c
:10186800657400002e0d00000a00000044650000a9
:10187800766900006365000020680000617300005d
:10188800206c000065660000742000007468000089
:10189800652000006e650000747700006f7200001c
:1018a8006b0d00000a00000045720000726f000016
:1018b8007220000000200000736500006e640000c4
:1018c800696e0000672000006d65000073730000fa
:1018d80061670000652e00000d0a0000002000006e
:1018e8004d6500007373000061670000652000000b
:1018f800736500006e7400002073000075630000bb
:101908006365000073730000667500006c6c00006e
:10191800792e00000d0a000000420000696e0000e8
:10192800646900006e6700002f5500006e620000b9
:10193800696e0000646900006e67000020640000a2
:101948006f6e00006520000073750000636300007f
:101958006573000073660000756c00006c79000008
:101968002e0d00000a0000002045000072720000e1
:101978006f720000206400006f6900006e6700004d
:1019880020620000696e0000646900006e67000054
:101998002f7500006e620000696e00006469000027
:1019a8006e6700002e2e00002e0d00000a000000b9
:1019b800526500006365000069760000696e0000ea
:1019c800672000004e5700004b5f000041440000b4
:1019d800445200005f720000737000002e0d00007a
:1019e8000a00000050610000636b0000657400008d
:1019f800204300006f7500006e7400002052000044
:101a080065730000706f00006e730000653a000097
:101a180020000000200d00000a200000536500008f
:101a28006e640000696e000067200000746f00009b
:101a3800206d000079730000656c0000660d0000e1
:101a48000a0000000d0a00004c6500006e3a000014
:101a580020000000467200006f6d00002041000069
:101a68006464000072650000737300003a2000008f
:101a7800004700006f740000206d000065730000cf
:101a880073610000676500002e2e00002e2e0000f6
:101a98002e00000054720000796900006e67000093
:101aa800207400006f200000737400006172000051
:101ab800742000006e650000747700006f720000eb
:101ac8006b2e00002e2e00000d0a000000200000e2
:101ad800202000000d0a0000416400006465000039
:101ae800642000006e6f0000646500002074000030
:101af8006f200000677200006f7500007020000002
:101b0800340d00000a00000020200000200d000015
:101b18000a520000656d00006f76000065640000e1
:101b2800206e00006f6400006520000066720000ef
:101b38006f6d000020670000726f00007570000074
:101b4800203400000d0a000000200000556e00003f
:101b5800686100006e6400006c650000642000008d
:101b680070720000696d00006974000069760000f9
:101b7800652e00000d0a0000000d00000a0d00008f
:101b88000a0d00000a2a00002a2a00002a2a00005a
:101b98002a2a00002a2a00002a2a00002a2a0000ed
:101ba8002a2a00002a2a00002a2a00002a2a0000dd
:101bb8002a2a00002a2a00002a2a00002a2a0000cd
:101bc8002a2a00002a0000000d0a00004d690000c2
:101bd800637200006f430000686900007020000015
:101be8005a69000067420000656500003230000055
:101bf80030360000285400004d2900002053000012
:101c080074610000636b0000202000007632000041
:101c18002e3000002d3200002e3600002e3000003d
:101c280061200000436f00006f72000064690000cb
:101c38006e610000746f0000720d00000a0d000054
:101c48000a00000054720000616e00007363000017
:101c58006569000076650000722d00004d52000095
:101c680046320000344a0000343000000d0a0000fb
:101c78000d0a000000000000020100000f0f000024
:101c88000005000000000000000200000000000045
:101c98000000000000000000000a00000000000032
:101ca8000100000002000000030000000400000022
:101cb80005000000060000002000000021000000d0
:101cc80022000000000000000000000000000000ea
:101cd800000000000a0000000080000001800000f1
:101ce80002800000038000000480000005800000de
:101cf8000680000020800000218000002280000073
:101d080000000000000000000000000000000000cb
:101d1800010000000301000000000000000a0000ac
:101d2800000000000300000004000000380000006c
:101d380054000000700000008c000000c400000087
:101d4800e0000000ff0000000000000000000000ac
:101d580000000000000000000a0000000000000071
:101d680001000000020000001c0000003800000014
:101d7800700000008c000000a8a00000c400000053
:101d8800ff0000000000000000000000000000004c
:101d980000000000f0000000030100000000000047
:101da800000e00000000000001000000020000001a
:101db80003000000040000001c00000038000000c0
:101dc80054000000700000008c000000a8a0000073
:101dd800c400000000e00000ff0000000e0000004a
:101de80000000000010000000200000003000000e5
:101df800040000001c00000038000000540000002f
:101e0800700000008c000000a8a00000c4000000c2
:101e180000e00000ff00000010c1000000400000ca
:101e28008e000000000000007f000000000000009d
:101e3800000000007800000000000000b40000006e
:101e4800000000002c010000000000001c0200003f
:101e580000000000fc03000000000000bc070000b8
:101e6800000000003c0f0000000000003c1e0000c5
:101e7800000000003c3c0000000000003c7800002e
:101e8800000000003cf00000000000003ce0000002
:101e9800010000003cc00000030000003c8000007e
:101ea800070000003c0000000f0000003031000077
:101eb800323300003435000036370000383900006e
:101ec800414200004344000045460000aaaa000021
:0c1ed800aaaa0000aaaa0000aaaa000002
:020000040000fa
:101ee4008000eb0020578000f007b20001003200b0
:101ef400110020000100780000000600889fbe0049
:101f0400722cef00742cef00b062800090628800a5
:101f140069c620000044eb009062800022c1b30037
:101f2400890078006f3a07000844e8002001200087
:101f3400522cb400f94f5400f7ff3a000040eb0074
:101f44005aecb70062ecb70063ecb700640ca9006c
:101f5400c0532a00c0628800a0628000e2c0b300bf
:101f640081c520005f3a07004f04be000000060050
:101f7400889fbe008a9fbe008c9fbe0081067800a9
:101f8400020678005162800041628800cbc42000c0
:101f9400000578008044eb00094478004162800029
:101fa40062c0b3000b007800193a07006062800039
:101fb4008a0f500002003a0019c0b3000300370032
:101fc4000844e80060002000482cb400ef4f54009f
:101fd40003003e000904e00003003a00efff37006d
:101fe4000904e0000600320080628000800e780060
:101ff4004eccbf00004e78000980fb000300370080
:1020040030c0b300004e78000000eb004f06be0065
:102014004f05be004f04be0000000600404bec001c
:1020240040ebb70002003a0010c0b30040ebb70029
:1020340040cbbf000080fb000000060088c9bf0041
:102044008000eb00050032000040e90088e9b70099
:10205400504c8000b080fb00504c88000100780098
:1020640000000600889fbe008a9fbe006ac620004a
:102074000004eb000080fb0000004000e405400089
:102084007240b900560cb4009062880022c1b300bb
:10209400800078000a007800dd3907007163800051
:1020a400804c8000808f500009003a0040ae200030
:1020b4006b0078008880fb00f68040008080400040
:1020c400114090000004a1009040980003003700e4
:1020d4000804e800f90f5400e9ff3a004f05be0078
:1020e4004f04be0000000600889fbe008a9fbe0009
:1020f4008c1f7800804378000045eb0086ac2000fc
:1021040008ad2000960278000500e00008003200c7
:102114000704e0000700320065489000814f50003a
:1021240004003a0045009000820f500001003a007c
:102134001ac0b3000683e800860f5400f1ff3a008a
:1021440009c1b3000404e0000100350089c0b300f4
:102154000a04e0001a0032005062800040628800e5
:102164000904e00016003200ccc420000305780006
:102174008045eb000b4478004162800062c0b300ec
:102184000c007800a2390700606280008a0f5000ba
:102194000300320070628000e30f500001003a0037
:1021a4001bc0b3000844e80060002000482cb400c1
:1021b40088cf5400f0ff3a000b80fb000100370089
:1021c4000000eb004f0678004f05be004f04be0030
:1021d40000000600889fbe008a9fbe00800578002c
:1021e400b0628000906288006ac620000004eb00a0
:1021f4009162800022c1b3000a007800843907008c
:10220400752cab0005003200706380008b0f50000a
:1022140002003a000880fb0006003700200120007d
:10222400522cb4000804e800f90f5400f0ff3a00ff
:10223400080078004f05be004f04be0000000600f1
:10224400800178000409a80022c0b30002007800cd
:102254008ee9b70070618000604c88008461800062
:10226400844c88000001fd008fe9b7000001fd00e7
:10227400004d8800c34c88002accbf0080487800f9
:10228400a2e9b7008b69ef00e18f4100080032003a
:102294008b09a80003007800ceff0700f94f500017
:1022a40003003200750cab0001003a008b49a80012
:1022b40010c0b3008ae9b700000006000200fa006b
:1022c400889fbe008a9fbe008c1f7800000678009d
:1022d40082057800e4cf5000130032000180fb0037
:1022e4000000400081ac2000608078002050900005
:1022f40062c0b3000440bc00516280008100410010
:1023040041628800c8c4200062c0b300080078009d
:102314003f3907004e2cef004062800062c0b300da
:10232400880078006f390700719020009140780090
:102334000181fb008990200020c0b30000f17c00e3
:102344000140e80007e9b7000080fb001b41900052
:1023540002f07c0001c0e80007e9b7000080fb0040
:102364002b41900002f07c0063c040000080fb0021
:102374000cf07c0064c040004865de000080fb0077
:102384000af07c0065c0400007e9b7000080fb004c
:102394004b41900002f07c0066c0400007e9b700a2
:1023a4000080fb005b41900002f07c0067c04000ad
:1023b40007e9b7000080fb00eb4590000bf07c00c0
:1023c400e8c040008000fd0007e9b7008000fd0080
:1023d400689020001844780010ff07008880fb00f4
:1023e40080f07c000840e9000080fb00a1c0b3003d
:1023f40001f07c0008c0e9000080fb0011c320004c
:1024040011f07c00634054000080fb0001c32000f5
:1024140011f07c00644054000080fb000af07c0052
:10242400654054000080fb000cf07c0066405400c2
:102434000080fb008040eb0001f07c00674054000a
:102444000080fb0091c0b30001f07c00684454009c
:102454000800780006e9b700804c8000ec80570043
:1024640077ff07004f0678004f05be004f04be00fb
:102474000080fa00000006000400fa00889fbe00f5
:102484008a9fbe008c9fbe0000057800010678007c
:10249400820678005162800041628800cbc420002b
:1024a40062c0b3000b007800d93807008a047800b2
:1024b4000044eb00090037000844e8004162800052
:1024c400e68040004162880062c0b3000b007800df
:1024d400cf380700f04f54000600320060628000dd
:1024e400890f5000f4ff3a00150037000084fb0008
:1024f40020003700516280004162880062c0b3004e
:102504000b007800c23807000044eb0009003700d4
:102514000844e80041628000e6804000416288008f
:1025240062c0b3000b007800b9380700f04f5400c4
:102534000300320070628000e30f5000f4ff3a00a1
:10254400884e78008000eb0082ac20000500370044
:102554000040e8008100e8000281e800e48f5000b8
:10256400e2ff320001407800010478001200e0002c
:10257400f7ff3a00004e780040c1b3002f3b07003c
:10258400000178008800440080ac2000823078008c
:102594000200e00002003a00020078001b0037004d
:1025a4006a6288001a0020007a6288004062800013
:1025b40062c0b3008b007800ca38070008044400e6
:1025c40080ac2000000444009800780000c0eb00b8
:1025d400805098009804780070805700133b0700df
:1025e4000fb897009fb89700808cbe001800780041
:1025f4009d4678002d509800980078000000eb006c
:10260400e0009800e42aa8000a0078004f06be0003
:102614004f05be004f04be000080fa000000060013
:102624000400fa00889fbe008a9fbe008c1f7800b9
:10263400000678000000eb0081ae200005003700a2
:102644000844e8000000e8008180e800e70f50003b
:102654000500320000447800800478001100e00096
:10266400f7ff3a0003003700e74f54002c00320014
:102674008884fb0000c3b300f03a0700898044005b
:10268400648540004bae200000b57d000000e000f2
:1026940023003200084e7800ea807d0000c0eb0081
:1026a400c04898006a847d006e805700df3a0700b6
:1026b4001fb89700afb8970070049800010c9800f9
:1026c400100c9800210c9800ea807d0031089000dd
:1026d4000050a100b00898006a817d003208900083
:1026e40001ff2f00010060000010a00030099800d5
:1026f4000001eb008a0078000b02780033c0b300bd
:1027040061007a0002004000735098000201e80062
:10271400f90f5100faff3a001000200001003700c1
:102724000000eb004f0678004f05be004f04be00ca
:102734000080fa00000006001f4de20019003a0074
:10274400160cab001400320020c6200031c1b300c7
:1027540090cf100010003e008829ab0002003a0020
:10276400e56aab000a003200b0c5200041c0b300e6
:1027740090cf100008003e0030c6200051c0b300c6
:1027840090cf100004003e00e58aab0002003a003e
:1027940010c0b300010037000040eb000080fb00d4
:1027a4000000060020c6200031c1b30090cf100005
:1027b40010003e008829ab0002003a00e56aab0035
:1027c4000a003200b0c5200041c0b30090cf100011
:1027d40008003e0030c6200051c0b30090cf100066
:1027e40004003e00e58aab0002003a0010c0b300ca
:1027f400010037000040eb000080fb0000000600f1
:10280400889fbe008a1f7800b062800090628800b2
:102814006ac620000004eb009162800022c1b3006c
:102824000a007800fa370700752cab0002003a0062
:102834000880fb000600370020012000522cb40061
:102844000804e800f90f5400f3ff3a000800780088
:102854004f0578004f04be0000000600889fbe00ac
:102864008a9fbe008c1f78008005780001067800de
:10287400b0628000906288006ac620000004eb0009
:102884009162800022c1b3000a007800e03707009b
:10289400752cab0008003200706380008b0f500071
:1028a40005003a00806380008c0f500002003a005b
:1028b4000880fb000600370020012000522cb400e1
:1028c4000804e800f90f5400edff3a00080078000e
:1028d4004f0678004f05be004f04be0000000600fe
:1028e400889fbe008a1f780000457800b06280008f
:1028f4009062880069c6200098c1b300916280008c
:1029040022c1b30009007800c1370700752cab0061
:10291400090032000a407800764ce30006003a00d1
:1029240081638000604c8000808f500002003a0078
:10293400100020000500370020012000522cb400b4
:102944000844e900edff3a000000eb004f05780071
:102954004f04be0000000600889fbe00b0628000e5
:102964009062880069c620000044eb0091628000f8
:1029740022c1b30009007800a5370700a0638000d6
:102984000098a3000e00320080007800010cb20011
:1029940000042000808f5000090032000100e00094
:1029a40007003200722cef00742cef005a6ced001b
:1029b4009062800022c1b30089007800c937070003
:1029c4000844e80020012000522cb400f94f5400c0
:1029d400e6ff3a00a0628000e2c0b30081c5200097
:1029e400c03707004f04be00000006000004e000ea
:1029f40022003200176cef0010c2b30018ecb700cd
:102a0400b1c52000914078004309dd000200780040
:102a140019ecb70020c6200033c1b30090cf1100d9
:102a240016003e00a0c5200083c1b30090cf110062
:102a340012003e002357800003b8a30006003a00aa
:102a4400e4cf50000d003e00024078000074a00066
:102a540019ecb70002003700e4cf500007003e0035
:102a640030c6200051c0b30090cf100003003e00d8
:102a740003c8a30001003a00194ca8000000060096
:102a8400a263800082007800010cb20000042000e0
:102a9400808f500009003a00626ced00020078005b
:102aa4000003b200f00f500001003a00636ced0027
:102ab40010c0b300cdff070001003700752ca9003a
:102ac400722cef00742cef009062800022c1b300de
:102ad40061c62000833707005a6ced00a0628000b5
:102ae400e2c0b30081c520007e37370060c62000f5
:102af40001992000070009003158780070618000b6
:102b04008063880076ecef008829ab000a003a0065
:102b1400748ca90074aca800f06280007063880013
:102b24000000e800f0628800e20f400010003a0064
:102b3400e56aa8000e003700748ca80074aca900e4
:102b44000063800070638800636cec00e2628000c4
:102b540002004000006388006611b90081618000b2
:102b640001014100820f500001003600e58aa800ef
:102b7400414c8000c508dd000110b200a063800054
:102b84000080a10001007000a063880074cca8003c
:102b940074eca900752ca8009062800022c1b300d7
:102ba40061c620004f370700626cec005a6cec00e1
:102bb400a0628000e2c0b30081c52000493707004d
:102bc40010c0b30089ff3700d1082000e24f500045
:102bd4001000320006003e00d14321000004e00052
:102be4000c003200e14f500007003a0008003700a3
:102bf40051012000e34f5000060032001100200074
:102c0400e44f5000030032008000eb000100370065
:102c1400d13520000100780000000600889fbe0026
:102c24000004be000204e00007003200810f5000df
:102c3400070031000240e900e3ff07000000440000
:102c4400808f540002003100100020000100370082
:102c54000000eb004f04be0000000600889fbe0089
:102c64008a9fbe008c1f78008005780001067800da
:102c7400b06280009062880069c620000b0578006d
:102c84000044eb009162800022c1b3000900780087
:102c9400df360700a0638000002cb200012420006e
:102ca400810f50000e003a0073638000830f5500bb
:102cb400070032005b4cec00004178008b00780088
:102cc40003007800d5ff07000004e0000400320090
:102cd40070638000000e78001000200006003700aa
:102ce40020012000522cb4000844e800f94f54009d
:102cf400e4ff3a000000eb004f0678004f05be00e9
:102d04004f04be00000006000a00fa00889fbe00bf
:102d14008a9fbe008c1f780000447800014678002a
:102d24008000eb00c2af2000050037000040e8003f
:102d34008100e8000281e800e88f500005003200bd
:102d440001407800010578001200e000f7ff3a0026
:102d540003003700e84f50002f0132000085fb00cc
:102d6400c0c0b30035390700800078000a00450070
:102d7400f80440004bae200081b47d000100e00067
:102d8400250132000804e0004e003200806180001a
:102d9400a000980069807d00c14c8000310098003b
:102da40069817d0006c9bf000749b50071c8b30039
:102db400014040002041980069807d00204090003f
:102dc4001e390700000478000000e00005003a0006
:102dd40069807d001b39070088b47d004000200015
:102de4000e0137000a0045007800400041ae200083
:102df40060807800080878004660dd000034a00098
:102e0400004c780089c9bf0000404000104498007d
:102e140098c9bf00204498009199200091407800ff
:102e24003144980030ccbf004044980011c32000c6
:102e340091407800514498000c9920001c46780079
:102e44006c449800a2c9bf00704498006801440013
:102e54006190200091407800e0c7b30080cf50001b
:102e64000a003e0084902000804178000140e80080
:102e740006e9b7000080fb0060597a0061902000e9
:102e84009140780083cf5000f8ff36000749ed00e9
:102e940007e9b700e14f40004700320082007800a4
:102ea4008390200002c050000080fb00e0d879002d
:102eb4000749ed0007e9b700e14f40003e0032004a
:102ec400f8ff3700c0ff2f008a29b4000a0045002c
:102ed4007804400049ae200068807c00814c80006a
:102ee40021009800e8807c008a09ed00504c88009d
:102ef40010407800f0409800e8807c008a09ed00da
:102f0400504c880010407800e04098008aa9ed00f9
:102f140088c9bf006840400088e9b700e8807c00a9
:102f2400a040980068807c0020409000c3380700cf
:102f3400800578000000e0005d0032000a004500d2
:102f44007800400041ae2000608078000b087800d3
:102f54003afc0700f043b200c660dd0080cd70008b
:102f640036fc07009045980034fc0700a045980003
:102f740032fc0700b045980030fc0700c0459800bb
:102f84002efc0700d04598002cfc07000046e90001
:102f9400ec45980029fc0700f0459800688445003a
:102fa4008849e2000400320024fc0700005c780039
:102fb4008849e200fcff3a000a004500f80440009a
:102fc4004bae200069847d0072805700973807005b
:102fd4007fb097008fb89700400498005104980080
:102fe40069807d003000900074815700f3805700a1
:102ff40021fd07000004e00009003a0069807d001b
:10300400100078008f38070069807d008d38070034
:103014000000eb0080b47d00400020007f003700fa
:103024000409a900f0c7b30006e9b7000769ef0077
:103034005fe897000080fb000000400089ac20009e
:1030440060847c00e0c0b3007c3807008005780011
:10305400600498000000e0001a003a00100020000c
:10306400706288004062800062c0b300c1c4200066
:103074001c3607005fe897000080fb00000040005a
:1030840060807c006f3807005fe897000080fb00d9
:10309400000040000bb07c000a04450078044400a2
:1030a40049ae200068807c00100078006538070075
:1030b40068807c00633807000bb47c00400020006b
:1030c400560037005fe897000080fb0000004000d6
:1030d40088ac200060007c00b1af200091407800f3
:1030e400614898005fe897000080fb000000400002
:1030f40060007c0081618000410098005fe89700d7
:103104000080fb000000400060007c008044eb0075
:10311400794898005fe897000080fb0000004000b9
:1031240060017c0012089000f18f2f000100600004
:1031340000a0a000100998005fe897000080fb0041
:1031440000004000e0007c001108900000b0a100e5
:103154009008980010c0b300804d780000c8b300f8
:1031640090459800fbcabf00a04598000040e800c5
:10317400fbeab7000a0045007800400042ae200098
:10318400e0007900e1409000b145980060007900ca
:1031940070409000c0459800d94598009ffb0700f7
:1031a400e0459800fc45980031ccbf00804d980064
:1031b40001c3200091407800914d980000c0eb00bd
:1031c400a04d9800c0cfb300b04d9800c94d9800f1
:1031d40090c0b300d04d98006e805700133807009c
:1031e4005fe897000080fb000000400060027c0064
:1031f4001fb89700afb89700d21f2c00f3ff2f0021
:1032040000004100818049002002980031029800aa
:103214001000200001003700400020004f06780015
:103224004f05be004f04be000080fa0000000600f7
:103234000200fa00889fbe008a9fbe008045780085
:1032440001047800024578008304780001007800c6
:10325400e0fb0700f94f50000a003200a163800030
:10326400010cb20000042000808f500002003200e4
:103274000100e00003003a00880c78000000eb0035
:10328400260037008261800004c8b30088017800fa
:103294008040eb000140780093fb07000004e0004d
:1032a40015003200e24f550004003a0011c0b3008b
:1032b4000b40780094fe0700180037006a8157001d
:1032c4000800be002afb07000004e00004003200ee
:1032d4006ff097000004e00007003a000e0037008a
:1032e400e14f550004003a008a4078000b40780012
:1032f40085fe0700090037000800be0057fe0700de
:103304000004e00004003a0010cdb30088e9b700df
:1033140020002000010037000000eb004f05be0034
:103324004f04be000080fa0000000600889fbe0023
:1033340030002000706288004cacef0050628000c6
:1033440040628800c9c420000044eb004062800051
:1033540062c0b30089007800623507000844e800c1
:1033640060002000482cb400f04f5400f7ff3a00ee
:103374004f04be0000000600889fbe008a9fbe0066
:103384008c1f7800804578003008800040ebb7003f
:103394000469ef0021578000e42aef00e62aef00d9
:1033a40000002200808060002057800000d0a1002f
:1033b400010070002057880020b420000041eb0079
:1033c40021b92000024878000080e800808f500076
:1033d400fcff3a000b04e00004003a00705980003e
:1033e4000000e00001003200963707000000eb0007
:1033f40070598800800478008aae20004cae20000a
:103404000b04e000020032000904780008003700d1
:10341400090478001a0078000000e000040032007b
:1034240010007800873707001a00780085370700f6
:1034340008004400640040008000eb0001307e007e
:103444008904e8000a85e800e78f5400ecff3a009d
:1034540081047800caaf20004cae20000b04e000c9
:1034640002003200090478000800370009047800db
:103474001a0078000000e000040032001000780018
:10348400703707001a0078006e3707000800440000
:10349400780040008000eb0001307e008904e800e1
:1034a4000a85e800e88f5400ecff3a0081047800b4
:1034b4008aac20000a0678000b04e0000200320007
:1034c4000904780005003700090478001a00780020
:1034d4000000e000010032005a37070008004400f1
:1034e4000c0040000008eb008904e8000a85e800ad
:1034f400e48f5400f0ff3a008cff07004f06780079
:103504004f05be004f04be000000060010c0b3000b
:1035140099ff0700a1628000e2c0b30080c52000cb
:10352400bb340700c1628000c0532a00808f500062
:103534000100320071fa070020ad20000041eb00c9
:1035440061ae20000248780064004000810f500002
:10355400fcff3a00e0b020000081eb00e1b2200063
:103564000208780064004000808f5000fcff3a009d
:1035740000000600889fbe008a9fbe008005780078
:10358400b0628000906288006ac620000004eb00ec
:103594009162800022c1b3000a0078009c340700c5
:1035a400752cab00080032008200200061c62000a8
:1035b4000b007800bef507000000e00002003a00ae
:1035c4000880fb000600370020012000522cb400c4
:1035d4000804e800f90f5400edff3a0008007800f1
:1035e4004f05be004f04be0000000600ef04b0000b
:1035f400889fbe008a9fbe008c9fbe008e1f7800ed
:103604008045eb0000047800e1fb2f0001804700b7
:10361400063707007f9e97008fa69700e44aab0009
:103624000f003200b4578000c557800004025600d2
:1036340085825e00a2af2000124178000281fb0067
:103644000300200040422f000010b800800f5200f9
:10365400818f5a0002003600160ca900e44aa90022
:103664000800e00045033a0004c9bf000008a300b5
:103674004d0f3a00e40aab0066013200dcaf9f0054
:10368400edaf9f00f8af9f008eae2000ffa997001a
:10369400f3b79f000e0578001e0478000800e000d0
:1036a4004b01320018089000a80890005faa970008
:1036b400efaa97000001520081815a0003003300f1
:1036c4000200be00bcf3070009003700610061007e
:1036d400010020008301d1000281d30002007000a8
:1036e40083807000b4f307000001be00def307001e
:1036f40002a02b00b375240038f407000000e0009a
:103704000600340018007800ce3607001a0078004e
:10371400cc360700000deb002d013700380990006e
:103724000202b2002a013a000b10a100c84c90001a
:10373400f9cf54005a0032008042eb00a5e79f0005
:10374400e1cf44001b003a00780090008808900004
:103754005faa9700efaa97000000520081805a00e8
:1037640095682600850f5000e08f580002003e0047
:10377400a2e79f00470037000080eb00d0979f002e
:103784000b10a0001a04780026fc2f0006804700c6
:10379400a63607001fa09700afa09700100c980052
:1037a400210c98008044eb0011c0b300a1e79f00f6
:1037b400380037000984fb000940780022c1b300b7
:1037c4000440bc00b1628000810041009162880025
:1037d40022c1b30060c620000d340700a26380003c
:1037e400820078000120b20004003a007600440010
:1037f4001a004000114098001c0037009a0078001d
:1038040041009000e40f400008003200e30f400044
:1038140002003a000288a3000400320073638000af
:1038240031009000808f510005003a000980fb00b0
:10383400008040008040eb00715098000b0037007e
:103844000288a30009003a00d3979f008980fb00f7
:10385400f68040009a804000114090000004a100ce
:103864009040980011c0b300a1e79f008944e8008c
:103874002fe19700614061004200dd000b24a100ac
:1038840080c575000b28a30002003a00f8cf54004d
:10389400c8ff36001a0078004948980042003700f3
:1038a4000b00a0008869ef001a0178008000eb008b
:1038b40004003700014078008100e800f98f5000cf
:1038c4000500320001004100705090000008a30080
:1038d400f8ff320002003700f84f50002900320090
:1038e40000cfb30088e9b7009a017800330890004c
:1038f4006f0060002300320013089000a3089000ba
:103904005faa9700efaa97000000520081805a0036
:1039140035422f00850f5000e08f58001500360007
:103924000b00a1000080eb00d0979f0033089000ab
:10393400ef404000ef80600002ff2f0002006000b3
:1039440001007000b00998001a04780060fc2f0090
:1039540000804700353607003fa09700cfa09700ae
:10396400100c9800210c980011c0b300a1e79f002f
:10397400060037000b00a1000041eb00a2e79f0006
:10398400020037008041eb00a3e79f002fe297007d
:10399400614062004200dd000b24a10080c5750077
:1039a4000b08a3001f003a00afe2970061c0620059
:1039b4004200dd000b24a10080c575000b28a30084
:1039c400830032000b18a300260032007fb3970057
:1039d400060043006400400041ae2000608078008f
:1039e400b000900080618000808f50001d003a007c
:1039f4000044eb0020b4200081c2b300040037006f
:103a04000844e8000080e800814f540003003200bd
:103a14001004e000faff3a001300370010cfb3009f
:103a240088e9b700ffb197000381410064014100b8
:103a340044ae2000e2007a0031409000a2e9b700d1
:103a4400310890000050a000b008980062007a008d
:103a540030089000430320000048a3005e0e3a00a3
:103a6400510e370088c2b300619020009140780065
:103a74008181fb007fb19700020041006400400097
:103a840044ae200060017a0032439000859020000b
:103a940086f17a000140e90006e9b7000080fb00e6
:103aa400c241900003f07a0001c0e90006e9b700c2
:103ab4000080fb007242900004f07a0063c0500062
:103ac40006e9b7000080fb006243900006f07a002c
:103ad40064c0500006e9b7000080fb0092499000e2
:103ae40003f07a0065c0500006e9b7000080fb00cf
:103af400024a900004f07a0066c0500006e9b7005c
:103b04000080fb00224b900006f07a0067c0500052
:103b140006e9b7000080fb00b249900003f07a0088
:103b2400e8c050000100780006e9b7000042eb004d
:103b3400e4679f0092017800224090000004e000b6
:103b44000d0032000502780007c9bf008080fb0029
:103b54003343780086707a000040e80007e9b70034
:103b64006f6097008040e800e1679f00224090006a
:103b7400814f5000f4ff3e005f90970061fa2f00e0
:103b84008f804000aef9070080c2b300804f54001c
:103b9400b30d32008880fb008180400010b4200007
:103ba4006f61970082707800ffb197000380410035
:103bb4006400400044ae200060017a0020b420007c
:103bc400324190008270780003012000020e370019
:103bd400ffaa97008502e800f5af9f000e87e80072
:103be400e78f5200a9fe3a008040eb0080ae20002f
:103bf400040037008140e8000080e800e7cf50006f
:103c0400030032001000e000faff32000100370028
:103c1400e40aa900e42aab00c50132000c05be0089
:103c24000001eb0083ac200082027800930078004e
:103c34000100e00051003200610290000400e00045
:103c44004e0032001108900000b8a30009003a00a9
:103c540021009000b10090000000550081805d00bb
:103c640026e02300860f5000e08f58004300360002
:103c74000800370021009000b100900000005500ba
:103c840081805d0036d12c00860f5000e08f5800f3
:103c94003a0036000040eb00e0679f00829020006d
:103ca40007c9bf008080fb00b441780083707900ad
:103cb4000040e80007e9b7006f6397000640e8009a
:103cc400e0679f00e54f5000f5ff36000040eb0031
:103cd400e0679f008290200006c9bf008080fb003f
:103ce400b4417800837079000040e90006e9b70028
:103cf4006f6397000640e800e0679f00e74f5000bd
:103d0400f5ff36008580420080ac2000008440002e
:103d1400980078001108900000b0a1009008980065
:103d240098017800130990004810de0067404000b5
:103d3400670060004800dd00f18f2f000101610081
:103d44000001710092099800180078002c00980076
:103d54003d0098001801780092089000007020003f
:103d6400808460003a0d3a00620090003535070007
:103d74001800780069009800350d37000201e8004a
:103d84008381e800e40f5100a7ff3a0088ac2000cb
:103d940088047800180278000400e0002200320051
:103da40034015500a4815d00809628009100200014
:103db400800f5100818f59001b0036002450900061
:103dc40062c0b3000440bc00516280008100410025
:103dd40041628800ccc4200062c0b3000c007800ab
:103de4008b32070070628000e10f500006003a0039
:103df40020002000706288004062800062c0b3002e
:103e04008c007800b7320700190078006000900039
:103e14000000e000010032000a35070019007800b4
:103e240008350700800ceb000884e80000ad200092
:103e3400880f5000d6ff3a000040eb00e0679f0077
:103e440049ae20008005eb008a9020000080fb0032
:103e5400000040007800400060807c000000e0002a
:103e6400010132003000900081fa2f0001814700e7
:103e74008180e800818047003df807000004e000ed
:103e84007e0032000f6997000204e00070003a00df
:103e9400ef6197000380fb000000400078004000c1
:103ea400e0817c00a30090000044eb00806180006e
:103eb400808f500020003a000244780020b4200093
:103ec40081c2b300040037000844e8000080e80021
:103ed400814f5400030032001004e000faff3a005e
:103ee400150037001300780070409000a2e9b70075
:103ef40010cfb30088e9b7006f6297000480fb001d
:103f0400000040007800400060807c0010007800d1
:103f1400cc340700ef6297000580fb0000004000ee
:103f24007800400060807c00c63407006f6397000f
:103f34000680fb006500370093017800fb679f0053
:103f4400ef6097000180fb00000040007800400013
:103f540060807c00204090000004e00012003200e9
:103f6400849020000180fb000000400078004000a5
:103f740041ae20006081780007c9bf008080fb004b
:103f8400b342780085707a000040e80007e9b70082
:103f94007f6097000040e800f0679f00a240900017
:103fa40080cf5000f4ff3e005f90970076fa2f0018
:103fb40086804700a2f80700ef6097000180fb00ad
:103fc400000040007800400060817c00a200900066
:103fd40080618000808f500009003a000880fb0057
:103fe4000000400011b42000ff61970003f0780046
:103ff4001201780021b420007241900002f0780090
:104004006f6297000480fb000000400078004000cd
:1040140060807c00100078008a340700ef6297000b
:104024000580fb00000040007800400060807c00b8
:10403400843407006f6397000680fb000000400093
:10404400780040000bb07c0003012000e20c370034
:10405400e24f510084003a00ef6097000180fb00ba
:10406400000040007800400060807c00a0009000c8
:1040740080618000808f50001e003a006f619700bd
:104084000280fb000000400078004000e0807c00db
:104094001100780070409000a2e9b7000b0078008e
:1040a40088e9b7001100780066340700ef619700d3
:1040b4000380fb00000040007800400060807c002a
:1040c400603407006f6297000480fb00000040002a
:1040d400780040000bb07c000409a900f0c7b300cd
:1040e40006e9b7000b00780007e9b7004303200096
:1040f400b90c37006890200018447800c7f707000f
:104104008880fb0080707d000840e9000080fb008f
:10411400a1c0b30001707d0008c0e9000080fb006d
:1041240011c3200011707d00634054000080fb0027
:1041340001c3200011707d00644154000200780026
:1041440006e9b7000281fb0061fa2f008f8040006e
:104154003180fb00000040007800400060827c0059
:10416400d442900005717d006540540006e9b70013
:104174000080fb004443900006707d0066405400bc
:104184000080fb000b707d00674054000080fb0042
:1041940092c0b30002707d006844540008007800a7
:1041a40006e9b70072902000124178008281fb007a
:1041b40030c0b30080717d000240e8000080fb0045
:1041c4000b707d0002c0e80007e9b7000080fb0027
:1041d400e441900003707d006340410007e9b700ab
:1041e4000080fb00f442900005707d0064414100b2
:1041f4000200780007e9b7002400900010f80700d7
:104204006f6397000680fb000000400078004000c8
:1042140060807c00100078000a340700ef6097008b
:104224000180fb00000040007800400060807c00ba
:104234000b0878006f6197000280fb0000004000cb
:104244007800400060807c00fe330700ef61970037
:104254000380fb0000004000780040000bb07c00ad
:10426400030120005c0c37006f6297000440e800f3
:10427400e0679f00e74f5000f4fe36008042eb00f9
:10428400e5679f005662800046628800c9c420002a
:104294004162800062c0b300090078005c3107000d
:1042a40078628000e20f5400410c32006f60970086
:1042b4000040e800e0679f0060002000482cb40044
:1042c400ef609700efcf5000f1ff36000040eb00a5
:1042d400e0679f00fc0ae20015003a00e1af20000d
:1042e4000040e800e0679f00e84f50000300320000
:1042f4003100e0000e003a00f9ff37000040eb0007
:10430400e0679f00c80ae20009003a00a1ac20005f
:104314000040e800e0679f00e44f500003003200d3
:104324003100e00002003a00f9ff3700e42aa90056
:10433400e4eaab001c0c3200e4eaa90092cbbf0013
:1043440088e9b70093cbbf0089e9b700d15c80004e
:10435400814c8800125d8000235d8000c24c88007f
:10436400d34c8800345d8000455d8000e44c8800b7
:10437400f54c8800c3042000170c3700f0fe2f0012
:10438400f1ff2f0008004000e080480015062000df
:10439400850f5000e08f5800030c3e0000600100c0
:1043a400610037009e003700ff0b3700fe0b37001b
:1043b400fd0b3700be063700fb0b3700fa0b370046
:1043c400f90b3700f80b3700f70b3700e30637001b
:1043d400f50b3700f40b3700f30b3700f20b370003
:1043e400f10b370041073700ef0b3700ee0b3700b6
:1043f40049073700ec0b3700eb0b3700ea0b3700ab
:104404005c07370070083700e70b3700e60b37000e
:10441400e50b37007a083700e30b3700e20b37006f
:10442400e10b370098083700a3083700de0b37008c
:10443400dd0b3700dc0b3700db0b3700da0b370002
:10444400d90b3700d80b3700d70b3700d60b370002
:10445400d50b3700d40b3700d30b3700d20b370002
:10446400c1093700c5093700d5093700eb09370002
:10447400ee093700f2093700080a3700af0a37009f
:10448400b20a3700c80b3700c70b3700c60b37001a
:10449400c50b3700c40b3700c30b3700c20b370002
:1044a400c10b3700c00b3700bf0b3700be0b370002
:1044b400bd0b3700bc0b3700bb0b3700ba0b370002
:1044c400b90b3700b80b3700b70b3700b60b370002
:1044d400b50b3700b40b3700b30b3700b20b370002
:1044e400b10b3700b00b3700af0b3700ae0b370002
:1044f400ad0b3700ac0b3700ab0b3700aa0b370002
:10450400a90b3700a80b3700a70b3700a60b370001
:10451400a50b3700a40b3700a30b3700a20b370001
:10452400a10b3700980a37000040eb00e0679f00ba
:1045340048ae20008081eb000081fb00c210dd004a
:10454400a00220000100400060007c00e10f400058
:10455400090032000100440010689000a249e30001
:1045640005003a008849e200570b3a000100780040
:10457400a002b00003307c006f6397000640e8009f
:10458400e0679f00e74f5000ebff36000040eb0070
:10459400e0679f00a2c9bf00414be300480b320013
:1045a4001200200033b4200084022000e2679f0040
:1045b400840f510007003200820078001340780015
:1045c4000101e8008381e800a249e300050032000c
:1045d400f6ff370080c2b300804f5100720b3200e7
:1045e4008280fb008180400020b42000614078007c
:1045f4008001eb000004e00002003200a2e9b700f1
:1046040043032000ef6097000180fb00000040009e
:104614000041eb0021b4200002f078006e0b37005b
:1046240086f60700c0ef9f0080f79f0083f607001f
:10463400a0ef9f0090f79f0080f607000080fb002a
:1046440009f02f0009066600000676007bf60700d5
:1046540080ef9f004800dd00f80f20000806660088
:104664000006760075f607000080fb00898565006a
:104674008085750071f60700e0e79f004800dd00c3
:1046840088856500808575006cf60700c0e79f008b
:104694006af60700b0e79f002fed97000a42780002
:1046a4000438a3000c0032000040eb00e0679f00d8
:1046b4000044780009ac200060f607008880fb0005
:1046c40080f07c00ef6297000544e800e8679f00f3
:1046d400e74f5400f8ff36000a48a3000c003200ec
:1046e4000040eb00e0679f000044780089ab2000a5
:1046f40052f607008880fb0080f07c006f6397000f
:104704000644e800e8679f00e74f5400f8ff3600ce
:10471400c04c8000e10f400002003200e50f46006b
:10472400140336000040eb00e0679f000b0578009f
:104734000041780083ae2000930078000100e0007f
:104744000700320031009000800f550004003a0049
:1047540031409000bfe0970080cf50000f0b320033
:104764000241e800e2679f008381e800e74f5100bf
:10477400f1ff3a000ff1970063406100e14f5000f0
:104784007f023a002df60700e0679f00e14f5000da
:10479400c1013a00e50aab00bf013200806180002c
:1047a4008a0f5000ff0a320010c0b300c06f9f0090
:1047b40022f60700d06f9f0020f60700e06f9f00ed
:1047c4001ef6070080779f001cf6070090779f0075
:1047d4001af60700004578008040e800a1779f00a2
:1047e40070cdb300a349e30002003e000140e8009d
:1047f400a0779f0030cbb300a349e30003003e0041
:104804002f7097000040e800a0779f00f0c8b30025
:10481400a349e30003003e002f7097000040e80026
:10482400a0779f00b0c6b300a349e30003003e0095
:104834002f7097000040e800a0779f0070c4b30079
:10484400a349e30003003e002f7097000040e800f6
:10485400a0779f0030c2b300a349e30003003e00e9
:104864002f7097000040e800a0779f00ef68970042
:104874005f6a97008f9997000b01780010c0b3000e
:1048840019f607000004e000fc003200c04c800070
:10489400e10f4000f9003a000040eb00806f9f00f8
:1048a4000b0478000002eb0083ac2000ef6a970051
:1048b400060037000240e800806f9f000402e80011
:1048c4008381e800e40f52004a003200044178007a
:1048d400930078000100e000f6ff32006148900088
:1048e400854f5000f3ff3a0041009000880f5000bc
:1048f400f0ff3a00e34f52003e003e000400420045
:1049040089ac200060847c00a0fc2f00008047005c
:10491400463207005fa29700efa29700048cbe0006
:104924000f6897000080fb000000400060817c005d
:10493400f24890002f709700814f5000990a3e0072
:10494400854c8000550198000f6897000080fb009b
:104954000000400060807c002f7397007648980028
:104964000f6897000080fb0000004000e0807c009e
:104974002f7097000a405000905098008f9897002d
:1049840080618000810f500009003200010078002e
:1049940010f60700f94f500072003200a063800047
:1049a400000cb20001042000810f50006d003a0099
:1049b400ce1f070004c9bf000008a3007a0a3a000a
:1049c4008f6897000180fb000000400082ac20004b
:1049d4006000790010509000a0779f00c0fa2f006b
:1049e400008147000b00780034f607000301200023
:1049f400790a37000f98970091fa2f000181470038
:104a04008100e900818047009bf607000004e00074
:104a1400b30532000f6897000080fb0000004000df
:104a240081ac2000608078006f699700624898002c
:104a34000f6897000080fb00000040006080780051
:104a44004b0098000f6897000080fb0000004000b6
:104a540060807800834c8000530098000f689700b2
:104a64000080fb0000004000608078002f729700f7
:104a7400744898000f6897000080fb000000400015
:104a84006081780052009000880f500006003200c8
:104a940012089000f18f2f00010060000080a00038
:104aa400100998000500370012089000f18f2f00bc
:104ab400010060000030b300100998000f689700ef
:104ac4000080fb000000400082ac2000e000790080
:104ad4001108900000b0a000900898000f6897009b
:104ae4000080fb0000004000e00079002f70970078
:104af4000a405000905098008f9897008061800081
:104b0400810f50000900320001007800b1f5070060
:104b1400f94f500013003200a0638000000cb20073
:104b240001042000810f50000e003a006f1f07009f
:104b340004c9bf000008a3001b0a3a002f709700a5
:104b44000a405000a0779f008f689700c5fa2f0095
:104b5400058147000b007800d8f507000301200009
:104b64001d0a370004c9bf000008a300ca003a00a8
:104b74000f6897000080fb00000040008aac200012
:104b8400e0047d00690490000800e0000a003a0097
:104b9400e0c0b300a9310700e00498000f68970053
:104ba4000080fb000000400060007d006004900075
:104bb4000800e0004a0532004f6b9700064c78006d
:104bc4005f68970010449800ef68970021449800ac
:104bd4000f719700324498009f71970043449800e6
:104be4002f729700544498000cf507006044980015
:104bf400cfe297000540e900704498006fe3970006
:104c0400064c98001b4c98000fe89700204c980025
:104c14003c4c9800afe89700414c98004fe997004e
:104c2400524c98000f6897000080fb000000400081
:104c340089ac200060847c00e0fc2f0000804700e9
:104c44007a3107007fa297008faa97002404980066
:104c5400350498000f6897000080fb0000004000b6
:104c640060817c0012089000f18f2f000100600029
:104c740000a0a0001009980019053700804c80009e
:104c840054f50700f94f50000f003200a063800074
:104c9400000cb20001042000810f50000a003a0009
:104ca400834c80008b8f5100120032005b4cec006f
:104cb400004178008b00780003007800d7f70700e4
:104cc4000004e0000b003a00814c80004061800049
:104cd400808f500002053a00b2c5200012417800ce
:104ce400806180008b007800ccf707000004e000ae
:104cf400fb043a008f98970080618000810f500078
:104d0400090032000100780032f50700f94f500025
:104d140013003200a0638000000fb20001062000df
:104d2400810f50000e003a00f01e070004c9bf00b6
:104d34000008a3009c093a002f7097000a40500015
:104d4400a0779f00c1fa2f000181470041c0b30042
:104d54000b00780059f50700030120009e09370075
:104d6400a2fa2f00828047000c007800bbf70700ee
:104d74000004e0004c04320004c9bf006145600037
:104d840049043a0071902000914078000180fb00b2
:104d940089902000cf69970003f07c000140e8006f
:104da4000080fb005f6a970004f07c0001c0e8000b
:104db4000080fb00ef6a970005f07c0063c04000b0
:104dc4000080fb007f6b970006f07c0064c040000d
:104dd4000080fb000f71970002f07c0065c040006a
:104de4000080fb009f71970003f07c00e6c0400048
:104df4008000fd0007e9b7008000fd0068902000f6
:104e04001844780085f407008880fb0080f07c005b
:104e14000840e9000080fb00a1c0b30001f07c0061
:104e240008c0e9000080fb0011c3200011f07c00e1
:104e3400634054000080fb0001c3200011f07c009b
:104e4400644054000080fb000fea970004f07c00eb
:104e5400654054000080fb000cf07c006640540068
:104e64000080fb000af07c00674054000080fb00d7
:104e740091c0b30001f07c0068445400080078003d
:104e840006e9b7005f90970061fa2f008f80400019
:104e9400ebf4070004043700ef629700e4cf5200fc
:104ea4008f043a0065f40700804678000b07780009
:104eb40080618000808f5500890432004fe39700a1
:104ec400e14f53008400360091fa2f00018047001f
:104ed400d3f507000004e000810432001f68970046
:104ee4000080fb0000004000640040004aae200047
:104ef400e0007d00310890000040a100b008980057
:104f04001f68970057f407001f6897000080fb0094
:104f1400000040006400400060007d008298200092
:104f240012417800224098001f6897000080fb001f
:104f3400000040006400400060007d008ff1970095
:104f4400334898001f6897000080fb000000400071
:104f54006400400060007d001ff297002448980020
:104f64001f6897000080fb000000400064004000c0
:104f740060007d004c0098001f6897000080fb00d3
:104f8400000040006400400060007d003b00980089
:104f94001f6897000080fb00000040006400400090
:104fa400e0007d00cfe297000540e900c040980092
:104fb4001f6897000080fb00000040006400400070
:104fc40060007d003fe39700364098001f6897001b
:104fd4000080fb00000040006400400060047d008d
:104fe40088c9bf009530070080047800000c780061
:104ff4000000e0000e003a001f6897000080fb00ec
:10500400000040006400400060007d008d30070017
:105014001f6897000080fb0000004000640040000f
:1050240009307d00311e070089017800ea08370045
:105034000040eb00e0679f001f6897000080fb00c2
:10504400000040006400400041ae20006080780011
:105054009000780040c0b3008048780010c0b300ce
:10506400e0679f008849e2000f0032004aae20004a
:10507400ef6497001f6897000080fb000000400069
:105084006400400060007d000984fb0010044400bb
:10509400eaf30700004c78008944e800e9679f00c0
:1050a4008849e200f2ff3a00e40aa8000a00370047
:1050b40046acef00ef6097000181fb006a11b90074
:1050c400020078003a0cb400a2c0b3008800780053
:1050d400042e0700220037000e0078003df407007c
:1050e400e0679f00f94f5000fd03320064f60700ab
:1050f400fe1d07000040eb0088e9b70082992000fc
:1051040063c6200007000900335978000499200081
:1051140065c6200007000900355a7800e0679f0043
:10512400e8c32000a2c0b3000440bc00d1618000e9
:1051340081004100a2c0b30008007800b42d07002c
:1051440030628000800f5700d9ff32006f639700f0
:105154000640e800e0679f00e74f5000f1ff36008b
:10516400c30320000d68a3009b083a0001c2b300ea
:1051740001c0660088e9b700d30420009608370010
:105184004fe19700e14f51007400360093fa2f006d
:105194000380470022f507000004e000d00332003a
:1051a4001f6897000080fb0000004000640040007e
:1051b4004bae2000e0807d00310890000040a1004b
:1051c400b00898001f689700a6f307001f689700af
:1051d4000080fb00000040006400400060807d000f
:1051e4008498200014427800244098001f68970097
:1051f4000080fb00000040006400400060807d00ef
:105204008ff29700354898001f6897000080fb00d4
:10521400000040006400400060807d001ff39700a0
:10522400264898001f6897000080fb00000040009b
:105234006400400060807d004c0098001f68970067
:105244000080fb00000040006400400060807d009e
:105254003a0098001f6897000080fb00000040009f
:1052640064004000e0807d004fe197000240e900c7
:10527400c04098001f6897000080fb0000004000b9
:105284006400400060807d00bfe1970033409800d7
:105294001f6897000080fb0000004000640040008d
:1052a40060847d0088c9bf00e42f07008004780073
:1052b400000c78000000e0000e003a001f68970020
:1052c4000080fb00000040006400400060807d001e
:1052d400dc2f07001f6897000080fb0000004000df
:1052e4006400400009b07d00801d0700890178003a
:1052f400390837000042eb00e4679f005b4c8000f4
:105304008c9820001c4678000c04e0000f0032004a
:105314004dae2000ef6497001f6897000080fb00eb
:10532400000040006400400060807e000984fb00af
:105334001004440041f30700004c78008944e8005d
:10534400e9679f008849e200f2ff3a005b4c88005d
:105354000c00780088e9b700e40aa80080618000a6
:105364008a0f50005e0332008a4c880053032000e9
:10537400190837008ff2970063c06200e14f5000b4
:10538400f9013a002df3070080407800e0679f00a0
:10539400e44f500003003200e64f5000ca003a00c8
:1053a4001600370025f30700e0679f004f1d070034
:1053b4006f6397000680fb00000478000804b200c5
:1053c400f9073a000b00780082f30700e0679f00ba
:1053d400f94f5000f4073200a9f5070008007800df
:1053e40088e9b7008099200061c620000700090001
:1053f40031587800c3032000f70737000ff3070084
:1054040088e9b700391d07007190200091407800a9
:105414008181fb0072c0b30080902000827178000b
:105424008140e8000100780007e9b70080ab200064
:1054340050f80700f94f500020003a0010c0b300a4
:105444001fedb700bcf407000004e00004003200c4
:10545400ebf40700e0679f00f94f500015003a0095
:1054640072902000124178008280fb00839020001b
:10547400d0cfb30080f079000240e8000080fb0048
:1054840080c0eb0001f0790002c0e8000080fb005e
:1054940021c0b30001f079006341410002007800ab
:1054a40007e9b7000040eb001fedb70000467800a5
:1054b400140037008df507001f6def007290200077
:1054c400124178000280fb0083902000e1c6200096
:1054d40011f079000240e8000080fb00f1c62000d2
:1054e40011f0790002c0e8000080fb008040eb006e
:1054f40001f07900634141000200780007e9b70038
:105504001cc0b300a2ba2000a3f6280007000900bb
:10551400335978000040eb00e0679f0000427800b8
:1055240085902000a6ba20006290200012417800e5
:10553400804178008280fb000480fb00670010003b
:1055440060407b0080f07a000241e9008341e8007a
:1055540003427800e7cf5100f6ff360002007800de
:1055640006e9b7000040eb00e0679f0000427800c6
:105574008990200085ab20008041780002447800a7
:105584008280fb000480fb006700100060c07a008a
:1055940080f07c000241e900024578008341e80084
:1055a40003427800e7cf5100f4ff3600e3679f0021
:1055b4000001fd0006e9b7000001fd0097f20700b5
:1055c4008a80fb0080f07c000a40e9000080fb0038
:1055d40011c0b30001f07c00634054000080fb0064
:1055e40011c3200011f07c00644054000080fb00d3
:1055f40001c3200011f07c00654054000080fb00d2
:105604006fe2970004f07c00664054000b41780080
:105614000080fb000bf07c00674054000080fb001e
:1056240081c1b30001f07c00684054000080fb009d
:1056340091c0b30001f07c006940540006e9b70052
:105644000c04e00002003200e4eaa8000100370084
:10565400e4eaa90088c9bf0092ebb70010c0b30008
:1056640093ebb70071638000d15c8800c45580005f
:10567400d5558000145d8800255d8800e0558000c4
:10568400f1558000305d8800415d8800efe09700af
:105694004808dd008280fb0001007000b0558800de
:1056a40061fa2f008f804000e5f20700404c800033
:1056b4006a006000ea0f5000e90632008b49a80036
:1056c4000301200044073700e50aab0084023200de
:1056d400e14f500034fc3200e34f500064003a00c4
:1056e40004c9bf00614760007d023a007990200040
:1056f400994478000980fb008a90200001707d00a5
:105704000944e8000004fd0007e9b7000004fd00b7
:105714004af207000884fb0000747d0089c4e80095
:105724008004fd0007e9b7008004fd0043f2070090
:1057340071902000914078000181fb0000717d0090
:105744008140e8008000fd0007e9b7008000fd000b
:105754003af2070071902000914078000181fb002b
:1057640000717d008140e8008000fd0007e9b7007a
:105774008000fd005d1c070080618000800f5600e2
:1057840004003a000e00780007e9b7008001eb003e
:105794001107370062902000124178000280fb005c
:1057a400839020003fe2970004f079000240e90072
:1057b4000080fb00cfe297008540e90001f079000a
:1057c40002c0e9000080fb006fe3970006f0790057
:1057d400634051000080fb000bf0790064405100ed
:1057e4000080fb008fe8970001f0790065405100cc
:1057f4000080fb000cf07900664051000080fb0043
:105804002fea970004f07900674051000080fb0004
:10581400cfea970005f07900684151000200780052
:1058240006e9b70066fa2f000f034300640443003f
:1058340063014300880078000c007800ccf1070075
:105844000004e000bf003a00880078000c007800f3
:1058540002f507000004e000ba003a0007e9b700c7
:10586400f0c7b30006e9b7008001eb00da063700a1
:10587400e24f50001a023a00f0f1070080e79f005f
:10588400eef1070090e79f00ecf10700807f9f0096
:10589400eaf10700907f9f00e8f10700a07f9f00d6
:1058a400e6f10700d0e79f00b07f9f00e3f1070017
:1058b400004778000fe29700df9997000b0178000a
:1058c4009fe0970010c0b30007f207000004e00057
:1058d40040003200cf9e97000001eb0083ac200013
:1058e400050037000a45e8000201e8008381e8006a
:1058f400e40f51000d003200024578008204780064
:10590400930078000100e000f6ff32006148900047
:105914001fe29700804f5200f2ff3a0041009000ce
:105924008d0f5000efff3a0003003700e44f55009d
:10593400890032008a84fb000984440080ac200082
:1059440000044400180078002050900062c0b300a6
:105954000440bc00516280008100410062c0b30079
:10596400c0c42000aa2b07004e2cef00980078003a
:1059740001509000804f5700030031008e50980072
:10598400854c8000856288008980440080ac2000ba
:1059940000844000180078002050900062c0b300da
:1059a4000440bc00506280000000410062c0b300ab
:1059b400c1c42000cb2b0700806180008d0f5000f4
:1059c4006500320018007800105090000044470031
:1059d4002506370080618000800f56005e0032008b
:1059e400674447004ac0b3001f063700bf1b0700c7
:1059f400e44f5500070032000a80fb00000040001d
:105a040081ac20006080780050009000d0979f0007
:105a140006003700a6fa2f00868047000b007800a6
:105a24008ef407000004e0005f063200719020004d
:105a3400914078008181fb008290200020c0b30057
:105a4400807179000140e8000080fb008fe197003d
:105a54000370790001c0e8000080fb001fe297009a
:105a64000470790063c040000080fb008f7a9700c7
:105a74000570790064c040000080fb001f7b970024
:105a84000670790065c040000080fb00af79970084
