:020000040000fa
:080000000002040000000000f2
:020000040000fa
:100400006fd321000e7f22000e0188000000000043
:100410000c000700e0be29000100200011000700c9
:10042000000020000000e000020032000000020096
:100430000000000088920200000000000040da0086
:100440000000fe004440a90080c820000000e00039
:100450000300320000002000a00188004440a800f2
:100460000000060091018800800078000000eb0089
:1004700015003700e280400032a0b4009101ba00bc
:10048000e280400032a0b4009102ba00e280400055
:1004900032a0b4000002eb00472bde00f507b200eb
:1004a000602ce10004003a000059eb008301e900f0
:1004b000fdff3e00040037006128e100010032002a
:1004c0000082eb00040007001101ba000200e00006
:1004d000e8ff3a00000006003159ba008301e90044
:1004e0000c0032002159ba008301e90008003200f3
:1004f0000400e00003003a00e280400032a0b400b3
:10050000f5ff370011d9ba008301e900faff3a007c
:100510008100e800e180400032a0b4000000060045
:100520000040da000000fe0003f0a200889fbe0039
:100530008a9fbe008c1f7800ac000700b300330018
:100540006450e1004f0032006420e10052003200ac
:1005500003826c0007003b000905d0000306d000b1
:10056000820f54000c065d000200390002003200c8
:1005700089017800030678008582550004003d005b
:100580000003fd008103fd008502ea008b85420027
:10059000840f720002003b0060001000e080180031
:1005a0006011b8000005eb007a28e1000a0039006c
:1005b00006007800c75ddd00f707b2008780750090
:1005c0002d003700828171000a017800610560000a
:1005d0008180d1000080d3008502e900f9ff3b0053
:1005e000060440008784480002003b0060041400b9
:1005f000e0841c000988a300070032008a81710092
:1006000082817100610164008904d1000884d300f3
:100610008b05e800170037000978a30013003a00a3
:100620000b00e000130034008b05e90008044400cf
:1006300089844c000a4474000978a3000d003a0034
:100640000b00e000070034008b05e90008044400bb
:1006500089844c0001003a000b0020000978a300b7
:10066000f7ff32000001eb000200370082817100c9
:100670000a017800370007000cf0a70001f0a00085
:100680006b0037006420e10002003a00838f6c00a9
:100690006b0033000801be000200be00640037009a
:1006a000f4ff2f0069003700889fbe008a9fbe00bc
:1006b000010578000100e0000400350008003c005e
:1006c0000000e0002000320005003700600010004c
:1006d000e080180002003b0001f02c001a003700f7
:1006e0000004be006011b8006b0920000982cf0031
:1006f000020039000882cf000441b0006942520074
:100700000e00320008003b0082817100610164002c
:100710008904d1000884d3008b05e8000442e80076
:10072000f9ff3a00050037000804440089844c00b2
:100730008b05e9000442e900fbff3a0005000700d1
:100740000af0a70001f0a0004f05be004f04be0054
:100750000000060081002000618055000b003d0074
:100760000b00200061fe2f000100e1001d0034009d
:1007700082817100610164008904d1000884d30082
:100780000000e800faff3a007100200061006400f8
:1007900003007000020060000900320061044400a0
:1007a000e0844c000988a500050032008b05e800b4
:1007b0006808e10002003a008904d1000884d300ef
:1007c000f20f20000258e10005003d00c75ddd008a
:1007d000f907b20089807500080078000000060063
:1007e0000bf827008b007800000005000004be0015
:1007f000310007000003be000405be000200be0079
:100800002d000700844f7500000006000200be00a6
:100810006450e100050036006420e100020036006b
:100820000968a30001003a000800be000160a000b2
:100830004f0678004f05be004f04be0000000600c2
:10084000f0ff2f00f1ff2700f9ff3700889fbe005f
:100850008a9fbe00841f7800e4ff07004f007800e5
:1008600011003300f0ff2f00838f6c0006003b0067
:10087000040565000a00a7000800370009f0a6007b
:100880001000200008003700820f5400838f5c00a6
:10089000030039001000200001003e00000020008d
:1008a00009f0a7000000ea004f05be004f04be009b
:1008b0000000e00000000600c70ade00f107b200f9
:1008c000f50fb20008003200e1cf42000200320012
:1008d0000170a00024000500810f700001003200ab
:1008e0000408050044000500810f700002003a0072
:1008f000140005008502e9000000400081c04800a6
:10090000fcff3b000170a000240005000400fa0079
:10091000e0bf9f00e4815700812978000002eb00ce
:100920000f0037006fb89700904078007fb89700ad
:10093000104078000402e80080cf5000040032002c
:100940008180fb000080fb00008050000700370022
:100950006fb897000000e800e0bf9f009309e8002f
:10096000820f5200efff3a000000eb000080fa0017
:10097000000006008001eb000200370061f0790002
:100980008301e800828f5100fcff3a00000006005e
:10099000889fbe008a9fbe008c9fbe000001780029
:1009a00021d320001100e0000b003a0060d32000aa
:1009b0009069880070698800b16988008169880041
:1009c000214090000004a000a040980061409000e9
:1009d0000004a000e0409800e7004100c208de00eb
:1009e000c20cdd0084698000cdd3200060d32100db
:1009f0000d05500022002000811f78001100090021
:100a00000205d80000067800cf007800c308dd009a
:100a1000e48540008001eb00c6d3200025d32000f0
:100a20000100370001027800244090000008a30074
:100a3000020032000a003700110a780094007800a2
:100a4000214090000008a300fbff32000901420092
:100a5000828f500002003900840f5100460031009f
:100a600094007800848f5000eeff3e00868f500087
:100a700002003900858f5000eaff3900706980005c
:100a8000800f52004f003a00858f50004d003a0011
:100a90008301e800e18f5100e2ff36008c8f5400a3
:100aa000040036008a8f5400020031000b047800e5
:100ab00012003700614ab8006151b900b0ff2f0041
:100ac000010020000200500083805800800f520077
:100ad000818f5a00020035000904780007003700b2
:100ae0000d80540092d32100020040001100090043
:100af0000a80d8000a80b900000478000800780055
:100b00006800070080017800e10f40002d003200ee
:100b100070698000030878007269800064004100f9
:100b2000a2409000808f5100020032000104a0001a
:100b3000010037000104a100214198000880410014
:100b400064005000800978007069880022d320007a
:100b50000208780071698000214090000004a00024
:100b6000a0409800234090000004a100a0419800fc
:100b700002027800a7ff370082698800828f500048
:100b80000900360092007800c0d22000a2419000f7
:100b90000348780051698800140978008040eb0010
:100ba000806980002140980080698000000a7800f8
:100bb000244090000004a0002042980064004200fd
:100bc000010037000000eb004f06be004f05be00dd
:100bd0004f04be00000006006400500080698800d9
:100be000a04090000104a1002140980000000600f0
:100bf000889fbe008a9fbe0000057800e401500077
:100c000013001000c285de00234090000008a300fe
:100c10000400320083698800234090000004a10092
:100c2000a04198000100780059ff070000047800f7
:100c30000000e000170032008a0f5000150032005b
:100c400060b8970008005000c284de00898f55000c
:100c500001003600890578004259dd008a007800dd
:100c60000800780043ff07008a0f54000900310094
:100c70004248dd00000044008a0f500005003600a5
:100c80000a0050000000440052698000636980003f
:100c90000288be00080078004f05be004f04be0069
:100ca00000000600889fbe0080047800d0698000a4
:100cb0000000e00003003a00100007000000e00020
:100cc0000a003500d06980000900e00002003a0007
:100cd0000004780006003700000478000900400096
:100ce000060007000000e00001003d000084eb006a
:100cf000080078004f04be00000006008000780065
:100d00000000e00004003a00c0d32000d069880051
:100d100001017800060037000081eb0060d321005c
:100d2000808f500002003e00d16988000001eb0076
:080d300002007800000006003b
:020000040000fa
:020000040002f8
:04aff800fdfa00005e
:020000040000fa
:020000040002f8
:04affc007f3f000093
:020000040000fa
:1000080090020000900200009002000090020000a0
:100018009002000090020000900200009002000090
:100028009002000090020000900200009002000080
:100038009002000090020000900200009002000070
:100048009002000090020000900200009002000060
:100058009002000090020000900200009002000050
:100068009002000090020000900200001687000035
:100078000e9600009002000090020000900200001e
:100088009002000090020000900200009002000020
:100098009002000090020000900200009002000010
:1000a8009002000090020000900200009002000000
:1000b80090020000900200009002000090020000f0
:1000c80090020000900200009002000090020000e0
:1000d80090020000900200009002000090020000d0
:1000e80090020000900200009002000090020000c0
:1000f80090020000900200009002000090020000b0
:10010800900200009002000090020000900200009f
:10011800900200009002000090020000900200008f
:10012800900200009002000090020000900200007f
:10013800900200009002000090020000900200006f
:10014800900200009002000090020000900200005f
:10015800900200009002000090020000900200004f
:10016800900200009002000090020000900200003f
:10017800900200009002000090020000900200002f
:10018800900200009002000090020000900200001f
:10019800900200009002000090020000900200000f
:1001a80090020000900200009002000090020000ff
:1001b80090020000900200009002000090020000ef
:1001c80090020000900200009002000090020000df
:1001d80090020000900200009002000090020000cf
:1001e80090020000900200009002000090020000bf
:0801f8009002000090020000db
:020000040000fa
:10020800900200009002000090020000900200009e
:10021800900200009002000090020000900200008e
:10022800900200009002000090020000900200007e
:10023800900200009002000090020000900200006e
:10024800900200009002000090020000900200005e
:10025800900200009002000090020000900200004e
:100268009002000090020000900200001687000033
:100278000e9600009002000090020000900200001c
:10028800900200009002000090020000900200001e
:10029800900200009002000090020000900200000e
:1002a80090020000900200009002000090020000fe
:1002b80090020000900200009002000090020000ee
:1002c80090020000900200009002000090020000de
:1002d80090020000900200009002000090020000ce
:1002e80090020000900200009002000090020000be
:1002f80090020000900200009002000090020000ae
:10030800900200009002000090020000900200009d
:10031800900200009002000090020000900200008d
:10032800900200009002000090020000900200007d
:10033800900200009002000090020000900200006d
:10034800900200009002000090020000900200005d
:10035800900200009002000090020000900200004d
:10036800900200009002000090020000900200003d
:10037800900200009002000090020000900200002d
:10038800900200009002000090020000900200001d
:10039800900200009002000090020000900200000d
:1003a80090020000900200009002000090020000fd
:1003b80090020000900200009002000090020000ed
:1003c80090020000900200009002000090020000dd
:1003d80090020000900200009002000090020000cd
:1003e80090020000900200009002000090020000bd
:0803f8009002000090020000d9
:020000040000fa
:100d38000d0a0000202000002020000020310000c3
:100d48003a200000456e0000616200006c650000fa
:100d58002f44000069730000616200006c650000a8
:100d6800204a00006f6900006e6900006e6700008d
:100d780020620000792000004f74000068650000c0
:100d88007220000044650000766900006365000079
:100d9800730d00000a200000202000002020000021
:100da800323a0000205200006571000075650000ad
:100db800737400002044000061740000612000008a
:100dc800467200006f6d0000204100006e6f000049
:100dd8007468000065720000204400006576000019
:100de80069630000650d00000a2000002020000053
:100df80020200000333a00002052000065710000f6
:100e080075650000737400002044000061740000e0
:100e180061200000467200006f6d00002061000034
:100e280020470000726f000075700000206f0000fe
:100e380066200000446500007669000063650000d4
:100e4800730d00000a200000202000002020000070
:100e5800343a000020530000656e00006420000052
:100e68004461000074610000205400006f200000fd
:100e7800416e00006f740000686500007220000079
:100e88004465000076690000636500000d0a0000f3
:100e98002020000020200000203500003a2000001b
:100ea800536500006e640000204400006174000077
:100eb80061200000546f00002061000020470000fe
:100ec800726f000075700000206f0000662000003f
:100ed800446500007669000063650000730d00003a
:100ee8000a2000002020000020200000363a0000e0
:100ef80020410000646400002f520000656d00006e
:100f08006f760000652000004465000076690000e7
:100f180063650000207400006f2f000066720000f7
:100f28006f6d00002061000020470000726f000014
:100f3800757000000d0a000020200000202000002d
:100f4800203700003a200000447500006d70000052
:100f5800204e00006569000067680000626f0000ad
:100f6800726800006f6f000064200000496e000086
:100f7800666f0000726d000061740000696f000008
:100f88006e0000009c8600000d0a0000456e0000ff
:100f98007465000072200000612000006d6500008b
:100fa8006e75000020630000686f00006963000030
:100fb800653a0000200000000d0a0000303d0000e6
:100fc8004469000073610000626c00006520000045
:100fd8004a6f0000696e00002c200000313d0000bf
:100fe800456e0000616200006c650000204a000048
:100ff8006f6900006e2000003a200000000d00001c
:101008000a4800006f770000206d0000616e000044
:1010180079200000627900007465000073200000e8
:101028006172000065200000796f000075200000e3
:101038007265000071750000657300007469000036
:101048006e6700002868000065780000293a0000f3
:10105800200000000d0a00005768000061740000bd
:1010680020690000732000007468000065200000fb
:10107800736800006f720000742000006164000053
:101088006472000065730000732000006f66000042
:101098002064000065760000696300006520000098
:1010a800796f000075200000776100006e74000001
:1010b8002064000061740000612000006672000076
:1010c8006f6d00003a200000000d00000a5000007b
:1010d8006c6500006173000065200000656e00000b
:1010e800746500007220000074680000652000002c
:1010f800477200006f75000070200000494400002e
:10110800206f000066200000746800006520000061
:101118004461000074610000205200006571000005
:1011280075650000737400003a200000000d00008f
:101138000a5000006c650000617300006520000023
:10114800656e00007465000072200000746800007d
:10115800652000006e7500006d6200006572000079
:10116800206f0000662000006279000074650000ae
:1011780073200000746f000020730000656e00008b
:10118800642000002868000065780000293a000003
:10119800200000000d0a0000506c0000656100008e
:1011a80073650000206500006e7400006572000021
:1011b800207400006865000020730000686f00005c
:1011c8007274000020610000646400007265000011
:1011d80073730000206f0000662000007468000030
:1011e800652000006465000073740000696e0000eb
:1011f80061740000696f00006e20000064650000e3
:1012080076690000636500003a200000000d0000c8
:101218000a4500006e74000065720000207400002a
:101228006865000020470000726f000075700000bc
:1012380049440000206f000066200000646500003b
:10124800766900006365000073200000746f000079
:1012580020730000656e00006420000064610000d7
:10126800746100003a200000000d00000a0a000026
:1012780020570000686100007420000047720000d9
:101288006f75000070200000416300007469000061
:101298007669000074790000206400006f20000067
:1012a800796f000075200000776100006e740000ff
:1012b800207400006f200000646f0000203f0000d1
:1012c800200d00000a000000303d000041640000cd
:1012d8006420000044650000766900006365000032
:1012e800207400006f200000612000004772000099
:1012f8006f750000702000000d0a0000313d0000ed
:10130800526500006d6f0000766500002044000003
:1013180065760000696300006520000066720000c1
:101328006f6d00002061000020470000726f000010
:10133800757000000d0a0000323d00005265000083
:101348006d6f00007665000020440000657600009f
:101358006963000065200000667200006f6d000080
:10136800204100006c6c000020470000726f0000f4
:1013780075700000733a0000200000000d0a00009c
:10138800456e0000746500007220000031360000d0
:101398002d6200006974000020470000726f000091
:1013a8007570000020490000442000002848000013
:1013b80065780000293a0000200000000d0a0000ae
:1013c800536800006f7200007420000020200000a5
:1013d8002020000020200000202000002020000005
:1013e80020200000204d0000414300002020000084
:1013f80020200000202000002020000020200000e5
:1014080020200000202000002020000020540000a0
:1014180079700000652000002020000020200000d6
:1014280020200000205200006e7400006c73000041
:101438006869000070200000000d00000a0000002c
:1014480020200000202000007c2000002020000038
:101458002000000020200000202000007c20000048
:1014680020200000202000000052000054520000fc
:1014780000520000464400000043000052440000af
:10148800005500004b4e0000004300004849000092
:101498004c4400002000000050410000524500006c
:1014a8004e540000005500004e4b0000574e0000ff
:1014b800200000000d0a0000506c0000656100006b
:1014c80073650000206500006e74000065720000fe
:1014d800207400006865000020730000686f000039
:1014e80072740000206100006464000072650000ee
:1014f80073730000206f000066200000746800000d
:10150800652000006465000073740000696e0000c7
:1015180061740000696f00006e20000064650000bf
:10152800766900006365000028680000657800009f
:10153800293a0000200000004e6f0000206e0000d5
:1015480065740000776f0000726b00007320000064
:10155800666f0000756e0000642e000020200000f9
:1015680054720000796900006e6700002061000075
:1015780067610000696e00002e2e00002e0d00002d
:101588000a0000004e650000747700006f720000ca
:101598006b28000073290000206600006f750000aa
:1015a8006e6400002e20000054720000796900006b
:1015b8006e670000207400006f2000006a6f000052
:1015c800696e000020000000207c00002000000060
:1015d8002e0d00000a000000204500007272000075
:1015e8006f72000020660000696e000064690000e8
:1015f8006e670000206e000065740000776f0000c1
:10160800726b00002e200000205400007279000048
:10161800696e0000672000006167000061690000d2
:101628006e2e00002e2e00000d0a0000004a000059
:101638006f6900006e20000073750000636300008e
:101648006573000073660000756c0000210d0000d2
:101658000a000000204300006f7500006c64000061
:10166800206e00006f740000206a00006f6900009f
:101678006e20000061730000206f0000727000008f
:10168800686100006e2e0000200000004d7500000b
:10169800737400002074000072790000206100005b
:1016a800732000006e650000772000006e6f000058
:1016b800646500002e2e00002e0d00000a000000b8
:1016c80054720000796900006e6700002061000014
:1016d80067610000696e00002e2e00002e0d0000cc
:1016e8000a000000204300006f7500006c640000d1
:1016f800206e00006f740000206a00006f6900000f
:101708006e200000736500006c65000063740000c3
:1017180065640000206e000065740000776f0000ab
:10172800726b00002e200000005400007279000047
:10173800696e0000672000006e6500007874000084
:101748002064000069730000636f00007665000084
:1017580072650000642000006e6500007477000068
:101768006f7200006b2e00002e2e00000d0a000084
:10177800004300006c650000616e0000696e0000a7
:101788006720000075700000206100006e64000092
:10179800207200006574000072790000696e000014
:1017a8006720000064690000736300006f76000022
:1017b80065720000792e00002e2e00000d0a000030
:1017c800005200006f750000746500007220000070
:1017d8005374000061720000746500006421000009
:1017e800204500006e610000626c0000696e000018
:1017f800672000006a6f0000696e0000732e000009
:101808002e2e00000d0a000000200000526f00007c
:101818007574000065720000207300007461000098
:1018280072740000207500006e730000756300007c
:101838006365000073730000667500006c2e00007d
:101848002057000065200000636100006e6e0000f4
:101858006f740000207200006f750000746500004e
:1018680020660000726100006d650000732e0000a4
:101878000d0a0000004a00006f6900006e69000050
:101888006e67000020700000657200006d6900003e
:1018980074740000656400002e0d00000a0000004a
:1018a800204a00006f6900006e200000706500008b
:1018b800726d000069730000736900006f6e0000ac
:1018c800207500006e7300007563000063650000fa
:1018d80073730000667500006c2e0000205700002e
:1018e80065200000636100006e6e00006f740000e8
:1018f800206100006c6c00006f770000206a000017
:101908006f6900006e7300002e0d00000a000000d1
:101918000d0a00004e6f0000646500002000000002
:101928002057000069740000682000004d41000045
:1019380043200000416400006472000065730000e9
:1019480073200000002000006a7500007374000016
:10195800206a00006f6900006e650000642e0000b8
:101968000d0a0000005700006520000068610000b3
:1019780076650000206c0000656600007420000099
:1019880074680000652000006e6500007477000030
:101998006f7200006b2e00000d0a0000004100006d
:1019a8006e6f00007468000065720000206e000011
:1019b8006f6400006520000068610000732000006b
:1019c8006c65000066740000207400006865000003
:1019d800206e000065740000776f0000726b0000d5
:1019e8002e0d00000a0000005a690000674200003e
:1019f800656500002053000074610000636b0000ff
:101a08002068000061730000206200006565000026
:101a18006e2000007265000073650000742e0000df
:101a28000d0a0000002000004c65000061760000ef
:101a3800696e0000672000007468000065200000df
:101a48005a6900006762000065650000206e0000aa
:101a580065740000776f0000726b00002e0d0000a7
:101a68000a0000000d0a0000204c0000656e00000e
:101a78003a20000000460000726f00006d20000050
:101a8800416400006472000065730000733a00004e
:101a980020000000200d00000a200000526f000006
:101aa8007574000065720000207200006563000014
:101ab8006965000076650000642000006120000070
:101ac80072650000737000006f6e0000736500009f
:101ad8003a2000000d0a000020000000202000002d
:101ae8000d0a0000004700006f740000204d000040
:101af800657300007361000067650000206f0000d7
:101b08006e200000616e0000204500006e64000039
:101b1800205000006f6900006e7400000d0a00007c
:101b280000450000727200006f7200002000000083
:101b380020730000656e0000646900006e67000095
:101b4800206d000065730000736100006765000088
:101b58002e0d00000a000000204d000065730000f3
:101b6800736100006765000020730000656e000067
:101b78007420000073750000636300006573000043
:101b880073660000756c00006c7900002e0d000073
:101b98000a0000002050000065720000666f000017
:101ba800726d000020470000726f00007570000021
:101bb800204f000070650000726100007469000029
:101bc8006f6e00002e0d00000a0000005472000025
:101bd800796900006e670000207400006f20000023
:101be8006a6f0000696e0000206e000065740000d6
:101bf800776f0000726b0000206100007320000006
:101c0800616e0000206f00007270000068610000c3
:101c18006e2e00002e2e00000d0a0000002000008d
:101c28004d75000073740000206e00006f7700008f
:101c38002074000072790000206100007320000009
:101c4800612000006e650000772000006e6f0000c4
:101c5800646500002e2e00002e0d00000a00000012
:101c680054720000796900006e670000207400005b
:101c78006f2000006a6f0000696e0000206e00008f
:101c880065740000776f0000726b0000206100002f
:101c980073200000612000006e65000077200000be
:101ca8006465000076690000636500002e2e000060
:101cb8002e0d00000a00000020200000200d00006a
:101cc8000a4100006464000065640000206e0000a2
:101cd8006f64000065200000746f0000206700003a
:101ce800726f000075700000203400000d0a0000bb
:101cf80000200000202000000d0a000052650000ae
:101d08006d6f000076650000642000006e6f0000b3
:101d18006465000020660000726f00006d200000fe
:101d2800677200006f75000070200000340d00001d
:101d38000a000000205500006e680000616e000077
:101d4800646c000065640000207000007269000087
:101d58006d69000074690000766500002e0d0000b2
:101d68000a0000000d0a00000d0a00000d0a00001c
:101d78002a2a00002a2a00002a2a00002a2a00000b
:101d88002a2a00002a2a00002a2a00002a2a0000fb
:101d98002a2a00002a2a00002a2a00002a2a0000eb
:101da8002a2a00002a2a00002a2a00002a2a0000db
:101db800000d00000a5a0000696700004265000033
:101dc80065200000526f0000757400006572000005
:101dd800202d000020760000322e0000302d00005b
:101de800322e0000362e0000306100000d0a00007f
:101df8000d0a000000540000726100006e730000bc
:101e08006365000069760000657200002d4d0000d2
:101e180052460000323400004a340000300d000001
:101e28000a0d00000a0000004d4c00004d4500005e
:101e38005f4400004953000041530000534f000025
:101e48004349000041540000455f0000696e0000ee
:101e58006469000063610000746900006f6e00002f
:101e68002052000065730000756c0000743a000091
:101e7800200000000d0a000044650000766900009b
:101e88006365000020410000646400007265000082
:101e9800737300003a200000000d00000a4400009f
:101ea8006973000061730000736f000063690000cc
:101eb8006174000065200000526500006173000035
:101ec8006f6e00003a200000000d00000a4100007b
:101ed800434c0000204500006e7400007279000039
:101ee8003a200000000d00000a0000000d0a000062
:101ef8004d4100004320000050490000423a0000d4
:101f0800200000000d0a00004d41000043200000a1
:101f1800504100004e490000443a000020000000f3
:101f28000d0a00004d4100004320000053680000e6
:101f38006f720000742000004164000064720000a9
:101f480065730000733a0000200000000d0a0000cd
:101f580042650000616300006f6e0000204e0000c3
:101f68006f7400006966000079200000496e000067
:101f78006469000063610000746900006f6e00000e
:101f88002052000065730000756c0000743a000070
:101f9800000d00000a4300006f6f0000726400002b
:101fa80041640000647200004d6f00006465000029
:101fb8003a200000000d00000a4300006f6f000087
:101fc80072640000504100004e490000643a00006d
:101fd800200000000d0a0000436f00006f7200002f
:101fe80064410000646400007265000073730000bf
:101ff8003a200000000d00000a4c00006f67000046
:1020080069630000616c0000204300006861000003
:102018006e6e0000656c00003a200000000d0000a4
:102028000a530000757000006572000066720000b7
:10203800616d00006553000070650000633a0000a0
:10204800200000000d0a00004c6900006e6b0000c3
:1020580051750000616c000069740000793a000055
:10206800200000000d0a0000546900006d650000a2
:1020780053740000616d0000703a000020000000f9
:102088000d0a0000414300004c4500006e7400003a
:10209800727900003a200000000d00000a53000089
:1020a800636100006e200000436f00006e66000050
:1020b800697200006d200000526500007375000011
:1020c8006c74000028410000637400006976000009
:1020d8006520000053630000616e0000293a00008b
:1020e800200d00000a000000504100004e200000b2
:1020f800003a000020000000200000000d0a000047
:1021080053630000616e0000204300006f6e000002
:1021180066690000726d00002052000065730000bf
:10212800756c0000742800004f7200007068000091
:10213800616e000020530000636100006e290000fa
:102148003a0000000d0a0000556e0000736300009d
:10215800616e00006e6500006420000043680000a6
:10216800616e00006e6500006c7300003a2000008c
:10217800000d00000a52000065730000756c000035
:10218800744c00006973000074530000697a000001
:10219800653a0000200000000d0a00006d61000093
:1021a80063530000686f000072740000416400000f
:1021b8006472000065730000733a0000200000009c
:1021c8000d0a00006d61000063500000414e0000e0
:1021d800494400003a200000000d00000a4d0000ac
:1021e8004c4d0000455f0000434f00004d4d00007e
:1021f8005f5300005441000054550000535f000035
:10220800696e000064690000636100007469000081
:102218006f6e00002052000065730000756c0000ae
:10222800743a0000200000000d0a00005041000030
:102238004e490000443a0000200000000d0a00004a
:10224800537200006341000064640000726500007e
:10225800737300003a200000000d00000a440000db
:10226800737400004164000064720000657300002c
:10227800733a000020000000780000000000000011
:10228800b4000000000000002c0100000000000065
:102298001c02000000000000fc0300000000000019
:1022a800bc070000000000003c0f00000000000018
:1022b8003c1e0000000000003c3c00000000000044
:1022c8003c780000000000003cf000000000000026
:1022d8003ce00000010000003cc0000003000000da
:1022e8003c800000070000003c0000000f000000d8
:1022f8000d0a00004d430000505300005f440000e9
:1023080041540000415f0000696e000064690000ec
:1023180063610000746900006f6e000020520000c5
:1023280065730000756c0000743a0000200000001e
:102338000d0a00005372000063410000646400004d
:10234800724d00006f640000653a00002000000034
:102358000d0a00005372000063410000646400002d
:10236800723a0000200000000d0a000044730000cb
:102378007441000064640000724d00006f64000046
:10238800653a0000200000000d0a00004d410000e1
:1023980043200000446100007461000020540000e4
:1023a800726100006e7300006d69000073730000b5
:1023b800696f00006e200000526500006365000030
:1023c80069760000656400003a200000000d0000f6
:1023d8000a4c0000696e00006b5100007561000036
:1023e8006c690000747900003a200000000d0000bc
:1023f8000a0000000d0a00004d41000043200000c3
:1024080050490000423a0000200000000d0a000078
:102418004d41000043200000504100004e4900009b
:10242800443a0000200000000d0a00004d41000061
:1024380043200000536800006f7200007420000001
:10244800416400006472000065730000733a000084
:1024580020000000020100000f0f0000000500002e
:102468000000000000020000000000000000000062
:1024780000000000000a0000000000000100000049
:102488000200000003000000040000000500000036
:1024980006000000200000002100000022000000cb
:1024a8000000000000000000000000000000000024
:1024b8000a00000000800000018000000280000087
:1024c80003800000048000000580000006800000f2
:1024d8002080000021800000228000000000000011
:1024e80000000000000000000000000001000000e3
:1024f8000301000000000000000a000000000000c6
:102508000300000004000000380000005400000030
:10251800700000008c000000c4000000e000000013
:10252800ff000000000000000000000000000000a4
:10253800000000000a000000000000000100000088
:10254800020000001c0000003800000070000000bd
:102558008c000000a8a00000c4000000ff000000dc
:102568000000000000000000000000000000000063
:10257800f00000000301000000000000000a000055
:102588000000000001000000020000001c00000024
:1025980038000000700000008c000000a8a00000b7
:1025a800c4000000ff000000000000000000000060
:1025b80000000000000000000a0000000000000009
:1025c80001000000020000001c00000038000000ac
:1025d800700000008c000000a8a00000c4000000eb
:1025e800ff000000000000000000000000000000e4
:1025f8000000000010c1000000400000ce000000f4
:10260800000000007f000000000000000000000043
:102618003031000032330000343500003637000016
:10262800383900004142000043440000454600009c
:10263800000000000000000003000000000000008f
:020000040000fa
:102648008000eb00b0568000f007b20001003200b5
:10265800110020000100780000000600889fbe00dd
:1026680004a9a900662cef00682cef0040628000e6
:1026780020628800a9c520000044eb002062800089
:1026880022c1b300890078007e4207000844e800b0
:1026980020012000442cb400f94f5400f7ff3a0001
:1026a8000040eb004cecb7000004fd004decb70017
:1026b8000004fd0056ecb70057ecb700580ca90011
:1026c800c0532a00506288003062800002c1b30003
:1026d800a1c420006b4207004f04be0000000600a2
:1026e800889fbe008a9fbe008c9fbe00810678002e
:1026f80002067800e1618000d1618800ebc3200008
:10270800000578008044eb0009447800d16180001e
:1027180062c0b3000b00780025420700f06180001a
:102728008a0f500002003a0019c0b30003003700b6
:102738000844e800600020003a2cb400ef4f540031
:1027480003003e000904e00003003a00efff3700f1
:102758000904e0000600320010628000800e780054
:1027680040ccbf00004e78000980fb000300370012
:1027780030c0b300004e78000000eb004f06be00ea
:102788004f05be004f04be0000000600384bec00a9
:1027980038ebb70002003a0010c0b30038ebb700be
:1027a80038cbbf000080fb000000060088c9bf00ce
:1027b8008000eb00050032000040e90088e9b7001e
:1027c800504c8000b080fb00504c8800010078001d
:1027d80000000600889fbe008a9fbe00aac5200090
:1027e8000004eb000080fb0000004000e40540000e
:1027f8007240b900480cb4002062880022c1b300be
:10280800800078000a007800e94107001163800021
:10281800804c8000808f500009003a0060ad200095
:102828006b0078008880fb00f680400080804000c4
:10283800114090000004a100904098000300370068
:102848000804e800f90f5400e9ff3a004f05be00fc
:102858004f04be0000000600889fbe008a9fbe008d
:102868008c1f7800804378000045eb00a6ab200061
:1028780028ac2000960278000500e000080032002d
:102888000704e0000700320065489000814f5000bf
:1028980004003a0045009000820f500001003a0001
:1028a8001ac0b3000683e800860f5400f1ff3a000f
:1028b80009c1b3000404e0000100350089c0b30079
:1028c8000a04e0001a003200e0618000d06188004c
:1028d8000904e00016003200ecc32000030578006c
:1028e8008045eb000b447800d161800062c0b300e2
:1028f8000c007800ae410700f06180008a0f50009c
:102908000300320000628000e30f500001003a002b
:102918001bc0b3000844e800600020003a2cb40053
:1029280088cf5400f0ff3a000b80fb00010037000d
:102938000000eb004f0678004f05be004f04be00b4
:1029480000000600889fbe008a9fbe0080057800b0
:102958004062800020628800aac520000004eb00c5
:102968002162800022c1b3000a007800904107006c
:10297800692cab0005003200106380008b0f5000fb
:1029880002003a000880fb00060037002001200002
:10299800442cb4000804e800f90f5400f0ff3a0092
:1029a800080078004f05be004f04be000000060076
:1029b800800178000409a80022c0b3000200780052
:1029c8008ee9b70000618000604c880014618000c7
:1029d800844c88000001fd008fe9b7000001fd006c
:1029e800004d8800c34c88001cccbf00804878008c
:1029f800a2e9b7008b69ef00e18f410008003200bf
:102a08008b09a80003007800ceff0700f94f50009b
:102a180003003200690cab0001003a008b49a800a2
:102a280010c0b3008ae9b700000006000200fa00ef
:102a3800889fbe008a9fbe008c1f78000006780021
:102a480082057800e4cf5000130032000180fb00bb
:102a580000004000a1ab200060807800205090006a
:102a680062c0b3000440bc00e16180008100410005
:102a7800d1618800e8c3200062c0b3000800780074
:102a88004b410700402cef00d061800062c0b300ca
:102a9800880078007b410700719020009140780001
:102aa8000181fb008990200020c0b30000f17c0068
:102ab8000140e80007e9b7000080fb001b419000d7
:102ac80002f07c0001c0e80007e9b7000080fb00c5
:102ad8002b41900002f07c0063c040000080fb00a6
:102ae8000cf07c0064c040004865de000080fb00fc
:102af8000af07c0065c0400007e9b7000080fb00d1
:102b08004b41900002f07c0066c0400007e9b70026
:102b18000080fb005b41900002f07c0067c0400031
:102b280007e9b7000080fb00eb4590000bf07c0044
:102b3800e8c040008000fd0007e9b7008000fd0004
:102b4800689020001844780010ff07008880fb0078
:102b580080f07c000840e9000080fb00a1c0b300c1
:102b680001f07c0008c0e9000080fb0031c22000b1
:102b780011f07c00634054000080fb0021c220005b
:102b880011f07c00644054000080fb000af07c00d7
:102b9800654054000080fb000cf07c006640540047
:102ba8000080fb008040eb0001f07c00674054008f
:102bb8000080fb0091c0b30001f07c006844540021
:102bc8000800780006e9b700804c8000ec805700c8
:102bd80077ff07004f0678004f05be004f04be0080
:102be8000080fa00000006000400fa00889fbe007a
:102bf8008a9fbe008c9fbe00000578000106780001
:102c080082067800e1618000d1618800ebc3200072
:102c180062c0b3000b007800e54007008a04780022
:102c28000044eb00090037000844e800d161800047
:102c3800e6804000d161880062c0b3000b007800d4
:102c4800db400700f04f540006003200f0618000be
:102c5800890f5000f4ff3a00150037000084fb008c
:102c680020003700e1618000d161880062c0b300b4
:102c78000b007800ce4007000044eb000900370045
:102c88000844e800d1618000e6804000d1618800f6
:102c980062c0b3000b007800c5400700f04f540035
:102ca8000300320000628000e30f5000f4ff3a0096
:102cb800884e78008000eb00a2ab200005003700aa
:102cc8000040e8008100e8000281e800e48f50003d
:102cd800e2ff320001407800010478001200e000b1
:102ce800f7ff3a00004e780040c1b30041430700a7
:102cf8000001780088004400a0ab200082307800f2
:102d08000200e00002003a00020078001b003700d1
:102d1800fa6188001a0020000a628800d0618000e9
:102d280062c0b3008b007800d64007000804440056
:102d3800a0ab2000000444009800780000c0eb001d
:102d48008050980098047800708057002543070049
:102d58000fb897009fb89700808cbe0018007800c5
:102d68009d4678002d509800980078000000eb00f0
:102d7800e0009800d62aa8000a0078004f06be0096
:102d88004f05be004f04be000080fa000000060098
:102d98000400fa00889fbe008a9fbe008c1f78003e
:102da800000678000000eb00a1ad20000500370008
:102db8000844e8000000e8008180e800e70f5000c0
:102dc8000500320000447800800478001100e0001b
:102dd800f7ff3a0003003700e74f54002c00320099
:102de8008884fb0000c3b3000243070089804400c5
:102df800648540006bad200000b57d000000e00058
:102e080023003200084e7800ea807d0000c0eb0005
:102e1800c04898006a847d006e805700f142070020
:102e28001fb89700afb8970070049800010c98007d
:102e3800100c9800210c9800ea807d003108900061
:102e48000050a100b00898006a817d003208900007
:102e580001ff2f00010060000010a0003009980059
:102e68000001eb008a0078000b02780033c0b30041
:102e780061007a0002004000735098000201e800e7
:102e8800f90f5100faff3a00100020000100370046
:102e98000000eb004f0678004f05be004f04be004f
:102ea8000080fa0000000600234de20019003a00f5
:102eb800080cab001400320060c5200031c1b3001b
:102ec80090cf100010003e008829ab0002003a00a5
:102ed800d76aab000a003200e0c4200041c0b3004a
:102ee80090cf100008003e0070c5200051c0b3000c
:102ef80090cf100004003e00d78aab0002003a00d1
:102f080010c0b300010037000040eb000080fb0058
:102f18000000060060c5200031c1b30090cf10004a
:102f280010003e008829ab0002003a00d76aab00c7
:102f38000a003200e0c4200041c0b30090cf100066
:102f480008003e0070c5200051c0b30090cf1000ab
:102f580004003e00d78aab0002003a0010c0b3005c
:102f6800010037000040eb000080fb000000060075
:102f7800889fbe008a1f7800406280002062880017
:102f8800aac520000004eb002162800022c1b30022
:102f98000a00780006400700692cab0002003a00de
:102fa8000880fb000600370020012000442cb400f4
:102fb8000804e800f90f5400f3ff3a00080078000d
:102fc8004f0578004f04be0000000600d10820001d
:102fd800e24f50001000320006003e00d1432100ad
:102fe8000004e0000c003200e14f500007003a00f6
:102ff8000800370051012000e34f5000060032005e
:1030080011002000e44f5000030032008000eb0064
:1030180001003700d13520000100780000000600cb
:10302800889fbe000004be000204e00007003200d2
:10303800810f5000070031000240e900e3ff07005c
:1030480000004400808f540002003100100020006e
:10305800010037000000eb004f04be00000006002e
:10306800889fbe008a9fbe008c1f7800800478006d
:10307800010678004062800020628800aac520000e
:10308800890578000044eb002162800022c1b3006a
:103098000a007800c63f070040638000002cb20099
:1030a80001242000810f50000e003a0013638000b5
:1030b800838f5500070032004e4cec000041780029
:1030c8008900780003007800d5ff07000004e000bd
:1030d8000400320010638000000e78001000200009
:1030e8001200370020012000442cb4000844e800f6
:1030f800f94f540005003200e3ff3700d06080002c
:10310800000e78001000200008003700e2c42000fc
:10311800124178001061800089007800c0ff070024
:103128000004e000f5ff32000000eb004f067800d5
:103138004f05be004f04be00000006000004e0007a
:1031480022003200096cef0010c2b3000aecb7008d
:10315800e1c42000914078004309dd0002007800b6
:103168000becb70060c5200033c1b30090cf11004d
:1031780016003e00c0c4200083c1b30090cf1100e8
:1031880012003e00b356800003b8a30006003a00c0
:10319800e4cf50000d003e00024078000074a0000b
:1031a8000becb70002003700e4cf500007003e00e8
:1031b80070c5200051c0b30090cf100003003e003e
:1031c80003c8a30001003a000b4ca8000000060049
:1031d8004263800082007800010cb20000042000e5
:1031e800808f500009003a00566ced00020078000c
:1031f8000003b200f00f500001003a00576ced00d8
:1032080010c0b300cdff0700040037000100e00044
:1032180002003a0090c1b3004decb700692ca90038
:10322800662cef00682cef002062800022c1b300fa
:10323800a1c52000933f07004c6ced003062800070
:1032480002c1b300a1c420008e3f3700a0c52000f2
:1032580001992000070009003158780000618000ba
:10326800206388006aecef008829ab000f003a0061
:10327800688ca90068aca800204de2000300320069
:10328800e0ff2f0010638800020037009162800081
:1032980011638800520cec0090628800e20f400035
:1032a80016003a00d76aa80014003700688ca800f6
:1032b80068aca900204de20003003200e0ff2f00b7
:1032c8001063880002003700a06280001063880045
:1032d800576cec008262800002007800540cb40045
:1032e800a06288006611b9001161800001014100e7
:1032f800820f500001003600d78aa800414c800098
:10330800c508dd000110b200406380000080a10004
:10331800010070004063880068cca80068eca90030
:10332800692ca8002062800022c1b300a1c520003a
:10333800543f0700566cec004c6cec003062800087
:1033480002c1b300a1c420004e3f070010c0b30063
:103358007aff3700889fbe008a9fbe008c1f7800c6
:1033680080057800010678004062800020628800ad
:10337800aac520000004eb002162800022c1b3002e
:103388000a0078000a3f0700692cab0008003200e9
:10339800106380008b0f500005003a002063800006
:1033a8008c0f500002003a000880fb00060037002e
:1033b80020012000442cb4000804e800f90f540050
:1033c800edff3a00080078004f0678004f05be0070
:1033d8004f04be00000006000a00fa00889fbe00e5
:1033e8008a9fbe008c1f7800004478000146780050
:1033f8008000eb00e2ae2000050037000040e80046
:103408008100e8000281e800e68f500005003200e4
:1034180001407800010578001200e000f7ff3a004b
:1034280003003700e64f50002f0132000085fb00f3
:10343800c0c0b3006f410700800078000a00450053
:10344800f80440006bad200081b47d000100e0006d
:10345800250132000804e0004e00320010618000af
:10346800a000980069807d00c14c80003100980060
:1034780069817d0006c9bf000749b50071c8b3005e
:10348800014040002041980069807d002040900064
:1034980058410700000478000000e00005003a00e9
:1034a80069807d005541070088b47d0040002000f8
:1034b8000e0137000a0045007800400061ad200089
:1034c80060807800080878004660dd000034a000bd
:1034d800004c780089c9bf000040400010449800a3
:1034e80098c9bf0020449800919920009140780025
:1034f8003144980022ccbf004044980031c22000db
:1035080091407800514498000c9920001c4678009e
:103518006c449800a2c9bf00704498006801440038
:103528006190200091407800e0c7b30080cf500040
:103538000a003e0084902000804178000140e800a5
:1035480006e9b7000080fb0060597a00619020000e
:103558009140780083cf5000f8ff36000749ed000e
:1035680007e9b700e14f40004700320082007800c9
:103578008390200002c050000080fb00e0d8790052
:103588000749ed0007e9b700e14f40003e0032006f
:10359800f8ff3700c0ff2f008a29b4000a00450051
:1035a8007804400069ad200068807c00814c800070
:1035b80021009800e8807c008a09ed00504c8800c2
:1035c80010407800f0409800e8807c008a09ed00ff
:1035d800504c880010407800e04098008aa9ed001f
:1035e80088c9bf006840400088e9b700e8807c00cf
:1035f800a040980068807c0020409000fd400700b3
:10360800800578000000e0005d0032000a004500f7
:103618007800400061ad2000608078000b087800d9
:1036280062fc0700f043b200c660dd0080cd700088
:103638005efc0700904598005cfc0700a0459800d8
:103648005afc0700b045980058fc0700c045980090
:1036580056fc0700d045980054fc07000046e900d6
:10366800ec45980051fc0700f04598006884450037
:103678008849e200040032004cfc0700005c780036
:103688008849e200fcff3a000a004500f8044000bf
:103698006bad200069847d0072805700d14007001f
:1036a8007fb097008fb897004004980051049800a5
:1036b80069807d003000900074815700f3805700c6
:1036c80049fd07000004e00009003a0069807d0018
:1036d80010007800c940070069807d00c7400700d6
:1036e8000000eb0080b47d00400020007f00370020
:1036f8000409a900f0c7b30006e9b7000769ef009d
:103708005fe897000080fb0000004000a9ab2000a4
:1037180060847c00e0c0b300b640070080057800f4
:10372800600498000000e0001a003a001000200031
:1037380000628800d061800062c0b300e1c320004d
:10374800503e07005fe897000080fb000000400043
:1037580060807c00a94007005fe897000080fb00bc
:10376800000040000bb07c000a04450078044400c7
:1037780069ad200068807c00100078009f40070039
:1037880068807c009d4007000bb47c00400020004e
:10379800560037005fe897000080fb0000004000fb
:1037a800a8ab200060007c00d1ae200091407800da
:1037b800614898005fe897000080fb000000400027
:1037c80060007c0011618000410098005fe897006c
:1037d8000080fb000000400060007c008044eb009b
:1037e800794898005fe897000080fb0000004000df
:1037f80060017c0012089000f18f2f00010060002a
:1038080000a0a000100998005fe897000080fb0066
:1038180000004000e0007c001108900000b0a1000a
:103828009008980010c0b300804d780000c8b3001d
:1038380090459800edcabf00a04598000040e800f8
:10384800edeab7000a0045007800400062ad2000ac
:10385800e0007900e1409000b145980060007900ef
:1038680070409000c0459800d9459800c7fb0700f4
:10387800e0459800fc45980023ccbf00804d980097
:1038880021c2200091407800914d980000c0eb00c3
:10389800a04d9800c0cfb300b04d9800c94d980016
:1038a80090c0b300d04d98006e8057004d4007007f
:1038b8005fe897000080fb000000400060027c0089
:1038c8001fb89700afb89700d21f2c00f3ff2f0046
:1038d80000004100818049002002980031029800d0
:1038e8001000200001003700400020004f0678003b
:1038f8004f05be004f04be000080fa00000006001d
:103908000200fa00889fbe008a9fbe0080457800aa
:1039180001047800024578008304780001007800eb
:1039280008fc0700f94f50000a003200416380008c
:10393800010cb20000042000808f50000200320009
:103948000100e00003003a00880c78000000eb005a
:10395800260037001261800004c8b300880178008f
:103968008040eb0001407800bbfb07000004e0004a
:1039780015003200e24f550004003a0011c0b300b0
:103988000b40780094fe0700180037006a81570042
:103998000800be0052fb07000004e00004003200eb
:1039a8006ff097000004e00007003a000e003700af
:1039b800e14f550004003a008a4078000b40780037
:1039c80085fe0700090037000800be00a4fd0700b7
:1039d8000004e00004003a0010cdb30088e9b70005
:1039e80020002000010037000000eb004f05be005a
:1039f8004f04be000080fa0000000600889fbe0049
:103a080030002000006288003eacef00e0618000da
:103a1800d0618800e9c320000044eb00d061800039
:103a280062c0b30089007800963d07000844e800aa
:103a3800600020003a2cb400f04f5400f7ff3a0021
:103a48004f04be0000000600889fbe008a9fbe008b
:103a58008c1f7800804578003008800038ebb7006c
:103a68000469ef00b1568000d62aef00d82aef008b
:103a78000000220080806000b056800000d0a100c5
:103a880001007000b0568800a0b320000041eb0090
:103a980041b82000024878000080e800808f50007c
:103aa800fcff3a000b04e00004003a00a058800034
:103ab8000000e00001003200d03f07000000eb00ea
:103ac800a058880080047800aaad20006cad2000c2
:103ad8000b04e000020032000904780008003700f7
:103ae800090478001a0078000000e00004003200a1
:103af80010007800c13f07001a007800bf3f070098
:103b080008004400640040008000eb0001307e00a3
:103b18008904e8000a85e800e78f5400ecff3a00c2
:103b280081047800eaae20006cad20000b04e000b0
:103b38000200320009047800080037000904780000
:103b48001a0078000000e00004003200100078003d
:103b5800aa3f07001a007800a83f070008004400a1
:103b6800780040008000eb0001307e008904e80006
:103b78000a85e800e68f5400ecff3a0081047800db
:103b8800aaab20000a0678000b04e000020032000d
:103b98000904780005003700090478001a00780045
:103ba8000000e00001003200943f070008004400d4
:103bb8000c0040000008eb008904e8000a85e800d2
:103bc800e48f5400f0ff3a008cff07004f0678009e
:103bd8004f05be004f04be000000060010c0b30031
:103be80099ff07003162800002c1b300a0c4200021
:103bf800ef3c070051628000c0532a00808f5000bc
:103c08000200320095fa070005003700d0c42000f2
:103c180091c1b30090cf10000100320004a9a800a0
:103c280040ac20000041eb0081ad20000248780044
:103c380064004000810f5000fcff3a00c0af200034
:103c48000081eb0041b120000208780064004000c8
:103c5800808f5000fcff3a00000006000800fa00c0
:103c6800881f7800ea805700c23129000700090040
:103c7800b25878008100b1000004eb0082002000f7
:103c880020f307000000e00001003a0018002000bf
:103c9800080078004f0478000080fa000000060051
:103ca800889fbe008a9fbe00800578004062800021
:103cb80020628800aac520000004eb002162800071
:103cc80022c1b3000a007800b93c0700692cab0098
:103cd8000800320082002000a1c520000b007800f7
:103ce80008f307000000e00002003a000880fb002b
:103cf8000600370020012000442cb4000804e80026
:103d0800f90f5400edff3a00080078004f05be0097
:103d18004f04be00000006006f05b000889fbe007b
:103d28008a9fbe008c9fbe008e1f78008045eb00e6
:103d38000004780061fb2f0001804700293f07003d
:103d48003f999700cf999700e2b79f00f3b79f007c
:103d5800d64aab000f003200445780005557800008
:103d68000402510085825900c2ae20001241780039
:103d78000281fb000300200040422f000010b80021
:103d8800800f5200818f5a0002003600080ca900eb
:103d9800d64aa9000800e00067043a0004c9bf0039
:103da8000008a3003d133a00d60aab0062013200b6
:103db8006fb29700ffb29700d4af9f00e5af9f00a6
:103dc80088067800acad20000d0778000c05780057
:103dd8001c0478000800e000480132001808900030
:103de800a80890005faa9700efaa97000001520068
:103df80081815a00030033000200be0028f2070048
:103e08000900370061006100010020008301d10032
:103e18000281d300020070008380700020f2070046
:103e28000001be00bff1070002a02b00b3752400fb
:103e380019f207000000e0000600340018007800be
:103e4800ee3e07001a007800ec3e0700000deb007c
:103e58002a013700380990000202b20027013a000f
:103e68000b10a100c84c9000f9cf54005a00320042
:103e78008042eb0085e79f00e1cf44001b003a0039
:103e880078009000880890005faa9700efaa970032
:103e98000000520081805a00f5e12400850f50008f
:103ea800e08f580002003e0082e79f00470037007d
:103eb8000080eb0090979f000b10a0001a04780078
:103ec800a6fb2f0006804700c63e07005f989700b4
:103ed800ef989700100c9800210c98008044eb0094
:103ee80011c0b30081e79f00380037000984fb0048
:103ef8000940780022c1b3000440bc004162800040
:103f0800810041002162880022c1b300a0c52000c1
:103f1800273c070042638000820078000120b2003d
:103f280004003a00760044001a004000114098004e
:103f38001c0037009a00780041009000e40f400010
:103f480008003200e30f400002003a000288a30094
:103f5800040032001363800031009000808f51000c
:103f680005003a000980fb00008040008040eb001b
:103f7800715098000b0037000288a30009003a002e
:103f880093979f008980fb00f68040009a8040004c
:103f9800114090000004a1009040980011c0b300a7
:103fa80081e79f008944e8000fe1970061406100c4
:103fb8004200dd000b24a10080c575000b28a3007a
:103fc80002003a00f8cf5400c8ff36001a00780003
:103fd80049489800420037000b00a0008869ef00ac
:103fe8001a0178008000eb000400370001407800d7
:103ff8008100e800f98f50000500320001004100ff
:10400800705090000008a300f8ff3200020037004b
:10401800f84f50002900320000cfb30088e9b700fc
:104028009a017800330890006f0060002300320086
:1040380013089000a30890005faa9700efaa9700c2
:104048000000520081805a0035422f00850f500031
:10405800e08f5800150036000b00a1000080eb002f
:1040680090979f0033089000ef404000ef80600079
:1040780002ff2f000200600001007000b0099800e4
:104088001a047800e0fb2f0000804700553e070027
:104098007f9897008fa09700100c9800210c98002b
:1040a80011c0b30081e79f00060037000b00a10094
:1040b8000041eb0082e79f00020037008041eb00df
:1040c80083e79f000fe29700614062004200dd0035
:1040d8000b24a10080c575000b08a3001e003a0040
:1040e8008fe2970061c062004200dd000b24a1004e
:1040f80080c575000b28a300800032000b18a300b0
:10410800250032000e0047006400400066ad200024
:1041180060007b00b000900010618000808f50002c
:104128001d003a000044eb00a0b3200051c2b300c8
:10413800040037000844e8000080e800814f54007c
:10414800030032001004e000faff3a0013003700c1
:1041580010cfb30088e9b7000e01470064014100a1
:1041680060ad2000e200780031409000a2e9b7007d
:10417800310890000050a000b008980061ad200000
:104188006280780030089000430320000048a300b4
:1041980012133a004112370058c2b3006190200050
:1041a800914078008181fb000e00470064004000c8
:1041b80064ad200060017a003243900085902000b1
:1041c80086f17a000140e90006e9b7000080fb00ab
:1041d800c241900003f07a0001c0e90006e9b70087
:1041e8000080fb007242900004f07a0063c0500027
:1041f80006e9b7000080fb006243900006f07a00f1
:1042080064c0500006e9b7000080fb0092499000a6
:1042180003f07a0065c0500006e9b7000080fb0093
:10422800024a900004f07a0066c0500006e9b70020
:104238000080fb00224b900006f07a0067c0500017
:1042480006e9b7000080fb00b249900003f07a004d
:10425800e8c050000100780006e9b7000042eb0012
:10426800e45f9f0092017800224090000004e00083
:104278000d0032000502780007c9bf008080fb00ee
:10428800b342780085707a000040e80007e9b7007b
:104298006f5b97008640e800e15f9f002240900036
:1042a800814f5000f4ff3e001f909700e1f92f0066
:1042b8008f804000bef9070050c2b300804f540001
:1042c800f81132008880fb008180400090b3200004
:1042d8006f599700827078000e0047006400400014
:1042e80063ad200060817900a0b3200032419000c6
:1042f8008270780003012000b81237008d06e800ac
:104308000c86e800e78f5600affe3a008040eb00cd
:10431800a0ad2000040037008140e8000080e800dc
:10432800e7cf5000030032001000e000faff32002f
:1043380001003700d60aa900d62aab00d601320000
:104348006fb59700ffb597000001eb00a3ab200005
:1043580082027800930078000100e00058003200e3
:10436800610290000400e00055003200110890003e
:1043780000b8a30009003a0021009000b1009000a5
:104388000000550081805d0026e02300860f500064
:10439800e08f58004a0036000800370021009000de
:1043a800b10090000000550081805d00f6c329002f
:1043b800860f5000e08f5800410036000040eb00a7
:1043c800e05f9f008290200007c9bf008080fb004b
:1043d800b4417800837079000040e80007e9b7002d
:1043e8006f5b97000640e800e05f9f00e54f5000d4
:1043f800f5ff36000040eb00e05f9f008290200050
:1044080006c9bf008080fb00b44178008370790042
:104418000040e90006e9b7006f5b97000640e80036
:10442800e05f9f00e74f5000f5ff360085804200af
:10443800a0ab20000084400098007800110890008c
:1044480000b0a10090089800980178001309900026
:104458004810de0067404000670060004800dd004b
:10446800f18f2f000101610000017100920998008d
:10447800180078006fb19700ffb1970022009800ec
:10448800330098001801780092089000007020000e
:104498008084600004003a0062009000573d0700e5
:1044a8001800780069009800e1f92f008f8040001b
:1044b8000080eb003ef90700030120004712370097
:1044c8000201e8008381e800e40f5100a0ff3a00f0
:1044d800a8ab200088047800180278000400e000e7
:1044e8002200320034015500a4815d008096280026
:1044f80091002000800f5100818f59001b00360069
:104508002450900062c0b3000440bc00e161800008
:1045180081004100d1618800ecc3200062c0b30073
:104528000c007800a23a070000628000e10f5000fa
:1045380006003a002000200000628800d061800058
:1045480062c0b3008c007800ce3a070019007800ea
:10455800600090000000e00001003200273d0700e5
:1045680019007800253d0700800ceb000884e8005e
:1045780020ac2000880f5000d6ff3a000040eb0026
:10458800e05f9f0069ad20008005eb008a90200065
:104598000080fb00000040007800400060807c0044
:1045a8000000e0000a01320030009000e3f92f001b
:1045b8008f8141000381e800e480410048f807004a
:1045c8000004e000870032000f6197000204e00059
:1045d80079003a006f5a97000480fb000000400001
:1045e80078004000e0817c00a30090000044eb00cc
:1045f80010618000808f500029003a000244780042
:10460800a0b3200051c2b300040037000844e800fa
:104618000080e800814f5400030032001004e000dd
:10462800faff3a001e00370013007800704090002f
:10463800a2e9b70010cfb30088e9b700ef5a970096
:104648000580fb00000040007800400060807c008e
:1046580010007800e93c07006f5b97000680fb00bc
:10466800000040007800400060807c00e33c0700c8
:10467800ef5897000180fb000000400078004000e0
:104688000bb07c000409a900f0c7b30006e9b70025
:104698000b00780007e9b70043032000cf1137006b
:1046a80093017800fb5f9f006f5997000280fb0021
:1046b800000040007800400060807c0020409000ae
:1046c8000004e00012003200849020000280fb0009
:1046d800000040007800400061ad20006081780053
:1046e80007c9bf008080fb00b342780085707a005c
:1046f8000040e80007e9b7007f5897000040e8004d
:10470800f05f9f00a240900080cf5000f4ff3e0071
:104718001f909700f6f92f0086804700a4f807003d
:10472800ef5897000180fb0000004000780040002f
:1047380060817c00a200900010618000808f500092
:1047480009003a000880fb000000400091b32000f7
:10475800ff59970003f0780012017800a1b32000f8
:104768007241900002f078006f5a97000480fb00b5
:10477800000040007800400060807c001000780055
:104788009e3c0700ef5a97000580fb0000004000a0
:104798007800400060807c00983c07006f5b9700c1
:1047a8000680fb0000004000780040000bb07c0051
:1047b8000301200089113700e24f510084003a00bc
:1047c800ef5897000180fb0000004000780040008f
:1047d80060807c00a000900010618000808f5000f5
:1047e8001e003a006f5997000280fb00000040004d
:1047f80078004000e0807c00110078007040900054
:10480800a2e9b7000b00780088e9b700110078002a
:104818007a3c0700ef5997000380fb000000400036
:104828007800400060807c00743c07006f5a970055
:104838000480fb0000004000780040000bb07c00c2
:104848000409a900f0c7b30006e9b7000b00780017
:1048580007e9b70043032000601137006890200083
:1048680018447800c9f707008880fb0080707d0035
:104878000840e9000080fb00a1c0b30001707d0082
:1048880008c0e9000080fb0031c2200011707d00e3
:10489800634054000080fb0021c2200011707d009d
:1048a800644154000200780006e9b7000281fb0069
:1048b800e1f92f008f8040003180fb0000004000ac
:1048c8007800400060827c00d442900005717d0031
:1048d8006540540006e9b7000080fb00444390009f
:1048e80006707d00664054000080fb000b707d0060
:1048f800674054000080fb0092c0b30002707d0046
:10490800684454000800780006e9b7007290200057
:10491800124178008281fb0030c0b30080717d00b5
:104928000240e8000080fb000b707d0002c0e80038
:1049380007e9b7000080fb00e441900003707d00a8
:104948006340410007e9b7000080fb00f442900093
:1049580005707d00644141000200780007e9b70056
:104968002400900012f807006f5b97000680fb0098
:10497800000040007800400060807c001000780053
:104988001e3c0700ef5897000180fb000000400024
:104998007800400060807c000b0878006f59970011
:1049a8000280fb00000040007800400060807c002e
:1049b800123c0700ef5997000380fb0000004000fd
:1049c800780040000bb07c00030120000311370081
:1049d8006f5a97000440e800e05f9f00e54f5000e1
:1049e800ebfe36008042eb00e55f9f00e661800049
:1049f800d6618800e9c32000d161800062c0b3009d
:104a0800090078006a39070008628000e20f540044
:104a1800e81032006f5897000040e800e05f9f0000
:104a2800600020003a2cb400ef589700efcf5000f8
:104a3800f1ff36000040eb00e05f9f00ee0ae20065
:104a480015003a0001af20000040e800e05f9f0039
:104a5800e64f5000030032003100e0000e003a003b
:104a6800f9ff37000040eb00e05f9f00ba0ae20060
:104a780009003a00c1ab20000040e800e05f9f0059
:104a8800e44f5000030032003100e00002003a0019
:104a9800f9ff3700d62aa900b25680000200e000cc
:104aa8000f003d0060598000715980006fb2970077
:104ab800ffb297000000520081805a00058027004d
:104ac800850f5000e08f580005003600a0ccb300d9
:104ad80088e9b7008ea9ef00a3032000bf103700b4
:104ae8000278a30011003200d6eaa90084cbbf00e7
:104af80088e9b70085cbbf0089e9b700615c800011
:104b0800814c8800a25c8000b35c8000c24c8800a5
:104b1800d34c8800c45c8000d55c8000e44c8800dd
:104b2800f54c8800c3042000ac1037000238a300fd
:104b3800da0f32000268a30005003200d6caa900c5
:104b480010c0b30088e9b70043022000a310370063
:104b5800820078000102b200d00f3a00d0b12000e4
:104b680095c1b30090cf12007b003200e15f9f0037
:104b7800a8c520001dcbbf0022c1b3000440bc0063
:104b880041628000810041002162880022c1b30097
:104b9800080078000639070040638000002cb20046
:104ba80001242000810f5000020032001d6bec0030
:104bb8000200370010c0b300e05f9f001dcbbf00ac
:104bc800f84f500004003e006f5b97000604e000b9
:104bd80004003a00e7ff3700ef5897000104e000af
:104be800630032000040e8001debb7000040eb0016
:104bf800e05f9f000042780089902000a5c5200052
:104c080062902000124178008041780002447800c8
:104c18008280fb000480fb006700100060c07a00ff
:104c280080f07c000241e900024578008341e800f9
:104c380003427800e7cf5100f4ff3600e35f9f009e
:104c48000001fd0006e9b7000001fd00cff60700ee
:104c58008a80fb0080f07c000a40e9000080fb00ad
:104c680011c0b30001f07c00634054000080fb00d9
:104c780031c2200011f07c00644054000080fb0029
:104c880021c2200011f07c00654054000080fb0028
:104c980031c6200011f07c00664054000080fb0003
:104ca80021c6200011f07c00674054000080fb0002
:104cb8008040eb0001f07c00e84054008180fb005c
:104cc8000101e80062c07c000034a00000f17c0013
:104cd80090c0b30080f07c006940540006e9b7003a
:104ce80007c9bf000081fb0041c0b30001f17c008f
:104cf8000040e80007e9b70000c4b300e05f9f0088
:104d0800d72aab000200320000ccb300e05f9f005e
:104d1800d7aaab0003003a006f5997000254a000cd
:104d2800e25f9f0007c9bf000081fb00819020005f
:104d3800ef59970003f178000040e80007e9b70051
:104d480010638000e1f92f008f80400018f70700fa
:104d58000301200021103700d72aa900566cef0064
:104d68003062800002c1b300a1c42000c53807002a
:104d7800d72aab0011003200564ce2000f00320077
:104d8800f6588000075980006fb29700ffb297006d
:104d98000603520087835a008262800003002000c5
:104da800f42f25000410b8006711b9008280400074
:104db800800f5300818f5b00380f3600d6caa800d9
:104dc800c5b92000c631290007000900b65a780085
:104dd8000040eb00e05f9f000042780089902000cf
:104de800c5b9200062902000124178008041780007
:104df800024478008280fb000480fb0067001000fa
:104e080060c07a0080f07c000241e9000245780029
:104e18008341e80003427800e7cf5100f4ff3600f1
:104e2800e35f9f000001fd0006e9b7000001fd00f7
:104e380056f607008a80fb0080f07c000a40e900f3
:104e48000080fb0011c0b30001f07c0063405400f7
:104e58000080fb0031c2200011f07c006440540047
:104e68000080fb0021c2200011f07c006540540046
:104e78000080fb0080c0eb0001f07c00664054001d
:104e88000080fb00c1cfb30001f07c0067405400f4
:104e98000080fb008041eb0003f07c00e8405400f8
:104ea8008180fb000101e80062c07c000044a00092
:104eb80000f17c0090c0b30080f07c006940540091
:104ec80006e9b70007c9bf000081fb0041c0b30075
:104ed80001f17c000040e80007e9b700e35f9f00ac
:104ee800b05680000098a30006003200564ce2003d
:104ef80004003a0000a8a3000200320000c8b30072
:104f0800e05f9f0007c9bf000081fb00819020007f
:104f1800ef59970003f178000040e80007e9b7006f
:104f2800e1f92f008f8040000080eb00a0f6070019
:104f380003012000a90f3700f0fe2f00f1ff2f001a
:104f480008004000e080480014062000840f50004c
:104f5800e08f5800d10e3e0000600100610037006c
:104f68009e003700cd0e3700cc0e3700cb0e370031
:104f78007a073700c90e3700b4073700c70e370065
:104f88000c083700440837006a083700c30e37009a
:104f9800c20e3700c10e3700c00e3700bf0e3700f3
:104fa80052093700bd0e3700bc0e37005a093700ca
:104fb800ba0e3700b90e3700b80e37007c09370033
:104fc800c30a3700b50e3700b40e3700b30e3700ea
:104fd8000b0b3700b10e3700b00e3700af0e37009d
:104fe8000c0b3700130b3700ac0e3700ab0e370035
:104ff800aa0e3700a90e3700a80e3700a70e3700f3
:10500800a60e3700a50e3700a40e3700a30e3700f2
:10501800a20e3700a10e3700a00e3700110c370082
:10502800520c3700550c37006b0c3700870c3700d3
:105038001d0d37002f0d3700ce0d3700d10d37006d
:10504800960e3700950e3700940e3700930e3700f2
:10505800920e3700910e3700900e37008f0e3700f2
:105068008e0e37008d0e37008c0e37008b0e3700f2
:105078008a0e3700890e3700880e3700870e3700f2
:10508800860e3700850e3700840e3700830e3700f2
:10509800820e3700810e3700800e37007f0e3700f2
:1050a8007e0e37007d0e37007c0e37007b0e3700f2
:1050b8007a0e3700790e3700780e3700770e3700f2
:1050c800760e3700750e3700740e3700730e3700f2
:1050d800720e3700710e3700700e37006f0e3700f2
:1050e800ba0d37000040eb00e05f9f0068ad20007c
:1050f8008081eb000081fb00c210dd00600220000f
:105108000100400060007c00e10f4000090032000f
:105118000100440050609000a249e30005003a00f5
:105128008849e200850e3a00010078006002b0006c
:1051380003307c00ef5a97000540e800e05f9f00cd
:10514800e54f5000ebff36000043eb00e65f9f00a1
:1051580039cbbf00a249e300760e320012002000ce
:10516800b3b3200054022000e25f9f00840f510077
:105178000700320082007800134078000101e8003f
:105188008381e800a249e30005003200f6ff3700fa
:1051980050c2b300804f5100400e32008280fb00a5
:1051a80081804000a0b32000614078008001eb00be
:1051b8000004e00002003200a2e9b7004303200027
:1051c800ef5897000180fb00000040000041eb0011
:1051d800a1b3200002f07800000f370073f5070034
:1051e800a0ef9f0080f79f0070f5070080ef9f00f9
:1051f80090f79f006df507000080fb0008f02f0076
:10520800080666000006760068f50700e0e79f00dc
:105218004800dd00f90f2000090666000006760048
:1052280062f507000080fb008885650080857500b1
:105238005ef50700c0e79f004800dd00898565002e
:105248008085750059f50700a0e79f0057f507000e
:1052580090e79f000fed97000a4278000438a300fa
:105268000c0032000040eb00e05f9f000044780033
:1052780029ab20004df507008880fb0080f07c00fa
:10528800ef5a97000544e800e85f9f00e74f540095
:10529800f8ff36000a48a3000c0032000040eb007b
:1052a800e05f9f0000447800a9aa20003ff50700ae
:1052b8008880fb0080f07c006f5b97000644e80064
:1052c800e85f9f00e74f5400f8ff3600c04c8000ad
:1052d800e10f400002003200e50f460034033600bb
:1052e8000040eb00e05f9f000b057800004178006c
:1052f800a3ad2000930078000100e0000700320011
:1053080031009000800f550004003a0031409000b1
:105318009fe0970080cf50003e0e32000241e80027
:10532800e25f9f008381e800e74f5100f1ff3a00f8
:105338000ff1970063406100e14f500098023a0076
:105348001af50700e05f9f00e14f5000d1013a00d5
:10535800d70aab00cf013200106180008a0f5000dd
:1053680003003a00c91907008001eb009b0e3700c3
:1053780010c0b300c0679f000cf50700d0679f00fe
:105388000af50700e0679f0008f50700806f9f0097
:1053980006f50700906f9f0004f5070000457800a8
:1053a8008040e800a16f9f0070cdb300a349e300df
:1053b80002003e000140e800a06f9f0030cbb30020
:1053c800a349e30003003e002f6897000040e8006f
:1053d800a06f9f00f0c8b300a349e30003003e009c
:1053e8002f6897000040e800a06f9f00b0c6b30088
:1053f800a349e30003003e002f6897000040e8003f
:10540800a06f9f0070c4b300a349e30003003e00ef
:105418002f6897000040e800a06f9f0030c2b300db
:10542800a349e30003003e002f6897000040e8000e
:10543800a06f9f00ef6097005f629700cf91970081
:105448000b01780010c0b30003f507000004e0006a
:1054580004013200c04c8000e10f400001013a0015
:105468000040eb0080679f000b0478008001eb0090
:10547800a2ab2000ef629700060037000440e80066
:1054880080679f008301e8000281e800e48f5100f3
:105498004d00320003427800920078000100e000dd
:1054a800f6ff320061489000854f5000f3ff3a0044
:1054b80041009000880f5000f0ff3a00e3cf510000
:1054c80041003e0003804100a9ab200060847c00bd
:1054d80020fc2f0000804700423907001fa29700d8
:1054e800afa29700048cbe000f6097000080fb00fd
:1054f8000000400060817c00f24890002f6897000f
:10550800814f50002d003e00854c800055019800c9
:105518000f6097000080fb000000400060807c0066
:105528002f6b9700764898000f6097000080fb006b
:1055380000004000e0807c002f6897000a4050007f
:1055480090509800cf90970010618000810f500014
:105558000900320001007800faf40700f94f500002
:105568007800320040638000000cb2000104200083
:10557800810f500073003a004419070004c9bf00a6
:105588000008a300450d3a008f6097000180fb00da
:1055980000004000a2ab200060007900105090008d
:1055a800a06f9f0040fa2f00008147000b00780091
:1055b8001ef5070003012000080e37003319070005
:1055c8008001eb00050e37004f90970011fa2f006d
:1055d800018147008100e9008180470082f50700ca
:1055e8000004e00003003a00281907008001eb00de
:1055f800fa0d37000f6097000080fb0000004000a4
:10560800a1ab2000608078006f6197006248980025
:105618000f6097000080fb00000040006080780069
:105628004b0098000f6097000080fb0000004000ce
:1056380060807800834c8000530098000f609700ca
:105648000080fb0000004000608078002f6a97000f
:10565800744898000f6097000080fb00000040002d
:105668006081780052009000880f500006003200d8
:1056780012089000f18f2f00010060000080a00048
:10568800100998000500370012089000f18f2f00cc
:10569800010060000030b300100998000f60970007
:1056a8000080fb0000004000a2ab2000e000790071
:1056b8001108900000b0a000900898000f609700b3
:1056c8000080fb0000004000e00079002f68970090
:1056d8000a40500090509800cf90970010618000c9
:1056e800810f5000090032000100780095f407008e
:1056f800f94f50001300320040638000000cb200e4
:1057080001042000810f50000e003a00df18070046
:1057180004c9bf000008a300e00c3a002f689700f6
:105728000a405000a06f9f008f60970045fa2f0035
:10573800058147000b007800bcf407000301200036
:10574800a60d370004c9bf000008a300d1003a0025
:105758000f6097000080fb0000004000aaab20000b
:10576800e0047d00690490000800e0000a003a00a7
:10577800e0c0b3009f380700e00498000f6097006e
:105788000080fb000000400060007d006004900085
:105798000800e000300032004f639700064c7800a4
:1057a8005f60970010449800ef60970021449800cc
:1057b8000f699700324498009f6997004344980006
:1057c8002f6a970054449800f0f30700604498004b
:1057d800afe297000540e900704498004fe3970056
:1057e800064c98001b4c98006fe09700204c9800de
:1057f8003c4c98008fe89700414c98002fe997009f
:10580800524c98000f6097000080fb000000400099
:10581800a9ab200060847c0060fc2f00008047005a
:10582800703807003fa29700cfa297002404980081
:10583800350498000f6097000080fb0000004000ce
:1058480060817c0012089000f18f2f000100600039
:1058580000a0a000100998008c1807008001eb0038
:105868005e0d3700804c800036f40700f94f500079
:105878000f00320040638000000cb20001042000d9
:10588800810f50000a003a00834c80008b8f510032
:10589800120032004e4cec00004178008b0078007a
:1058a80003007800def507000004e0000b003a0072
:1058b800814c8000d0608000808f500072003a00d8
:1058c800e2c4200012417800106180008b0078004b
:1058d800d3f507000004e0006b003a00cf90970072
:1058e80010618000810f500009003200010078002b
:1058f80014f40700f94f5000130032004063800091
:10590800000fb20001062000810f50000e003a007f
:105918005e18070004c9bf000008a3005f0c3a0026
:105928002f6897000a405000a06f9f0041fa2f008f
:105938000181470041c0b3000b0078003bf4070029
:1059480003012000250d370022fa2f00828047002e
:105958000c007800c2f507000004e00047003200a0
:1059680004c9bf006145600044003a0071902000fe
:10597800914078000180fb0089902000cf6197005a
:1059880003f07c000140e8000080fb005f629700a4
:1059980004f07c0001c0e8000080fb00ef62970083
:1059a80005f07c0063c040000080fb007f63970027
:1059b80006f07c0064c040000080fb000f6997007f
:1059c80002f07c0065c040000080fb009f699700e2
:1059d80003f07c00e6c040008000fd0007e9b70046
:1059e8008000fd00689020001844780067f30700e5
:1059f8008880fb0080f07c000840e9000080fb0004
:105a0800a1c0b30001f07c0008c0e9000080fb00e1
:105a180031c2200011f07c00634054000080fb007c
:105a280021c2200011f07c00644054000080fb007b
:105a38006fe2970004f07c00654054000080fb0092
:105a48000cf07c00664054000080fb000af07c00eb
:105a5800674054000080fb0091c0b30001f07c0057
:105a6800684454000800780006e9b7001f909700c2
:105a7800e1f92f008f804000cdf3070003180700dd
:105a880003012000d50c3700001807008001eb0047
