:020000040000fa
:080000000002040000000000f2
:020000040000fa
:100400008f6121000e7f22000e0188000000000095
:100410000c000700602429000100200011000700e3
:10042000000020000000e000020032000000020096
:1004300000000000cc780200000000000040da005c
:100440000000fe004440a90020d520000000e0008c
:100450000300320000002000a00188004440a800f2
:100460000000060091018800800078000000eb0089
:1004700015003700e280400032a0b4009101ba00bc
:10048000e280400032a0b4009102ba00e280400055
:1004900032a0b4000002eb00472bde00f507b200eb
:1004a000602ce10004003a000059eb008301e900f0
:1004b000fdff3e00040037006128e100010032002a
:1004c0000082eb00040007001101ba000200e00006
:1004d000e8ff3a00000006003159ba008301e90044
:1004e0000c0032002159ba008301e90008003200f3
:1004f0000400e00003003a00e280400032a0b400b3
:10050000f5ff370011d9ba008301e900faff3a007c
:100510008100e800e180400032a0b4000000060045
:100520000040da000000fe00889fbe0080047800d2
:10053000b07080000000e00003003a0010000700e7
:100540000000e0000a003500b07080000900e00003
:1005500002003a000004780006003700000478002a
:1005600009004000060007000000e00001003d0017
:100570000084eb00080078004f04be000000060075
:10058000800078000000e00004003a0080e12000d4
:10059000b070880001017800060037000081eb0090
:1005a00080612100808f500002003e00b170880001
:1005b0000001eb000200780000000600889fbe00ea
:1005c0008a9fbe00010578000100e00004003500ac
:1005d00008003c000000e000200032000500370069
:1005e00060001000e080180002003b0001f02c00c9
:1005f0001a0037000004be006011b8006b0920002b
:100600000982cf00020039000882cf000441b00007
:10061000694252000e00320008003b0082817100e6
:10062000610164008904d1000884d3008b05e800cf
:100630000442e800f9ff3a000500370008044400ce
:1006400089844c008b05e9000442e900fbff3a0075
:10065000650007000af0a70001f0a0004f05be00ea
:100660004f04be000000060003f0a200889fbe00f9
:100670008a9fbe008c1f780081000700880033002d
:100680006450e1004f0032006420e100520032006b
:1006900003826c0007003b000905d0000306d00070
:1006a000820f54000c065d00020039000200320087
:1006b00089017800030678008582550004003d001a
:1006c0000003fd008103fd008502ea008b854200e6
:1006d000840f720002003b0060001000e0801800f0
:1006e0006011b8000005eb007a28e1000a0039002b
:1006f00006007800c75ddd00f707b200878075004f
:100700002d003700828171000a01780061056000c8
:100710008180d1000080d3008502e900f9ff3b0011
:10072000060440008784480002003b006004140077
:10073000e0841c000988a300070032008a81710050
:1007400082817100610164008904d1000884d300b2
:100750008b05e800170037000978a30013003a0062
:100760000b00e000130034008b05e900080444008e
:1007700089844c000a4474000978a3000d003a00f3
:100780000b00e000070034008b05e900080444007a
:1007900089844c0001003a000b0020000978a30076
:1007a000f7ff32000001eb00020037008281710088
:1007b0000a0178000c0007000cf0a70001f0a0006f
:1007c000400037006420e10002003a00838f6c0093
:1007d000400033000801be000200be0039003700af
:1007e000f4ff2f003e00370081002000618055009b
:1007f0000b003d000b00200061fe2f000100e10016
:100800001d00340082817100610164008904d100ff
:100810000884d3000000e800faff3a0071002000cd
:1008200061006400030070000200600009003200f3
:1008300061044400e0844c000988a50005003200f2
:100840008b05e8006808e10002003a008904d10045
:100850000884d300f20f20000258e10005003d009b
:10086000c75ddd00f907b2008980750008007800d7
:10087000000006000bf827008b0078000000050040
:100880000004be00310007000003be000405be00e6
:100890000200be002d000700844f75000000060016
:1008a0000200be006450e100050036006420e10053
:1008b000020036000968a30001003a000800be00eb
:1008c0000160a0004f0678004f05be004f04be0037
:1008d00000000600f0ff2f00f1ff2700f9ff3700ae
:1008e000889fbe008a9fbe00841f7800e4ff070037
:1008f0004f00780011003300f0ff2f00838f6c0051
:1009000006003b00040565000a00a7000800370048
:1009100009f0a6001000200008003700820f5400e4
:10092000838f5c00030039001000200001003e00ae
:100930000000200009f0a7000000ea004f05be00fb
:100940004f04be000000e00000000600c70ade0001
:10095000f107b200f50fb20008003200e1cf42000b
:10096000020032000170a00024000500810f700019
:10097000010032000408050044000500810f7000ea
:1009800002003a00140005008502e9000000400062
:1009900081c04800fcff3b000170a000240005005e
:1009a000889fbe008a9fbe008c9fbe000001780019
:1009b000e1e020001100e0000b003a0020e12000ff
:1009c0007070880050708800917088006170880095
:1009d000214090000004a000a040980061409000d9
:1009e0000004a000e0409800e7004100c208de00db
:1009f000c20cdd00647080008de120008061210068
:100a00000d05500022002000811f78001100090010
:100a10000205d80000067800cf007800c308dd008a
:100a2000e48540008001eb0086e12000e5e0200045
:100a30000100370001027800244090000008a30064
:100a4000020032000a003700110a78009400780092
:100a5000214090000008a300fbff32000901420082
:100a6000828f500002003900840f5100460031008f
:100a700094007800848f5000eeff3e00868f500077
:100a800002003900858f5000eaff39005070800065
:100a9000800f52004f003a00858f50004d003a0001
:100aa0008301e800e18f5100e2ff36008c8f540093
:100ab000040036008a8f5400020031000b047800d5
:100ac00012003700614ab8006151b900b0ff2f0031
:100ad000010020000200500083805800800f520067
:100ae000818f5a00020035000904780007003700a2
:100af0000d805400b2612100020040001100090085
:100b00000a80d8000a80b900000478000800780044
:100b100085fe070080017800e10f40002d003200c3
:100b2000507080000308780052708000640041001b
:100b3000a2409000808f5100020032000104a0000a
:100b4000010037000104a100214198000880410004
:100b5000640050008009780050708800e2e02000b6
:100b60000208780051708000214090000004a0002d
:100b7000a0409800234090000004a100a0419800ec
:100b800002027800a7ff370062708800828f500051
:100b9000090036009200780080e02000a241900019
:100ba0000348780031708800140978008040eb0019
:100bb000607080002140980060708000000a78001a
:100bc000244090000004a0002042980064004200ed
:100bd000010037000000eb004f06be004f05be00cd
:100be0004f04be00000006006400500060708800e2
:100bf000a04090000104a1002140980000000600e0
:100c0000889fbe008a9fbe0000057800e401500066
:100c100013001000c285de00234090000008a300ee
:100c20000400320063708800234090000004a1009b
:100c3000a04198000100780059ff070000047800e7
:100c40000000e000170032008a0f5000150032004b
:100c500060b8970008005000c284de00898f5500fc
:100c600001003600890578004259dd008a007800cd
:100c700008007800290007008a0f5400090031009d
:100c80004248dd00000044008a0f50000500360095
:100c90000a00500000004400327080004370800061
:100ca0000288be00080078004f05be004f04be0059
:100cb000000006000400fa00e0bf9f00e481570036
:100cc000812978000002eb000f0037006fb8970011
:100cd000904078007fb89700104078000402e80048
:100ce00080cf5000040032008180fb000080fb00b8
:100cf00000805000070037006fb897000000e80040
:100d0000e0bf9f009309e800820f5200efff3a0016
:100d10000000eb000080fa00000006008001eb00fc
:100d20000200370061f079008301e800828f5100f2
:080d3000fcff3a000000060080
:020000040000fa
:020000040002f8
:04aff800fdfa00005e
:020000040000fa
:020000040002f8
:04affc007f3f000093
:020000040000fa
:1000080090020000900200009002000090020000a0
:100018009002000090020000900200009002000090
:100028009002000090020000900200009002000080
:100038009002000090020000900200009002000070
:100048009002000090020000900200009002000060
:100058009002000090020000900200009002000050
:10006800900200009002000090020000986d0000cd
:10007800668c0000900200009002000090020000d0
:100088009002000090020000900200009002000020
:100098009002000090020000900200009002000010
:1000a8009002000090020000900200009002000000
:1000b80090020000900200009002000090020000f0
:1000c80090020000900200009002000090020000e0
:1000d80090020000900200009002000090020000d0
:1000e80090020000900200009002000090020000c0
:1000f80090020000900200009002000090020000b0
:10010800900200009002000090020000900200009f
:10011800900200009002000090020000900200008f
:10012800900200009002000090020000900200007f
:10013800900200009002000090020000900200006f
:10014800900200009002000090020000900200005f
:10015800900200009002000090020000900200004f
:10016800900200009002000090020000900200003f
:10017800900200009002000090020000900200002f
:10018800900200009002000090020000900200001f
:10019800900200009002000090020000900200000f
:1001a80090020000900200009002000090020000ff
:1001b80090020000900200009002000090020000ef
:1001c80090020000900200009002000090020000df
:1001d80090020000900200009002000090020000cf
:1001e80090020000900200009002000090020000bf
:0801f8009002000090020000db
:020000040000fa
:10020800900200009002000090020000900200009e
:10021800900200009002000090020000900200008e
:10022800900200009002000090020000900200007e
:10023800900200009002000090020000900200006e
:10024800900200009002000090020000900200005e
:10025800900200009002000090020000900200004e
:10026800900200009002000090020000986d0000cb
:10027800668c0000900200009002000090020000ce
:10028800900200009002000090020000900200001e
:10029800900200009002000090020000900200000e
:1002a80090020000900200009002000090020000fe
:1002b80090020000900200009002000090020000ee
:1002c80090020000900200009002000090020000de
:1002d80090020000900200009002000090020000ce
:1002e80090020000900200009002000090020000be
:1002f80090020000900200009002000090020000ae
:10030800900200009002000090020000900200009d
:10031800900200009002000090020000900200008d
:10032800900200009002000090020000900200007d
:10033800900200009002000090020000900200006d
:10034800900200009002000090020000900200005d
:10035800900200009002000090020000900200004d
:10036800900200009002000090020000900200003d
:10037800900200009002000090020000900200002d
:10038800900200009002000090020000900200001d
:10039800900200009002000090020000900200000d
:1003a80090020000900200009002000090020000fd
:1003b80090020000900200009002000090020000ed
:1003c80090020000900200009002000090020000dd
:1003d80090020000900200009002000090020000cd
:1003e80090020000900200009002000090020000bd
:0803f8009002000090020000d9
:020000040000fa
:100d38000d0a0000202000002020000020310000c3
:100d48003a200000456e0000616200006c650000fa
:100d58002f44000069730000616200006c650000a8
:100d6800204a00006f6900006e6900006e6700008d
:100d780020620000792000004f74000068650000c0
:100d88007220000044650000766900006365000079
:100d9800730d00000a200000202000002020000021
:100da800323a0000205200006571000075650000ad
:100db800737400002044000061740000612000008a
:100dc800467200006f6d0000204100006e6f000049
:100dd8007468000065720000204400006576000019
:100de80069630000650d00000a2000002020000053
:100df80020200000333a00002052000065710000f6
:100e080075650000737400002044000061740000e0
:100e180061200000467200006f6d00002061000034
:100e280020470000726f000075700000206f0000fe
:100e380066200000446500007669000063650000d4
:100e4800730d00000a200000202000002020000070
:100e5800343a000020530000656e00006420000052
:100e68004461000074610000205400006f200000fd
:100e7800416e00006f740000686500007220000079
:100e88004465000076690000636500000d0a0000f3
:100e98002020000020200000203500003a2000001b
:100ea800536500006e640000204400006174000077
:100eb80061200000546f00002061000020470000fe
:100ec800726f000075700000206f0000662000003f
:100ed800446500007669000063650000730d00003a
:100ee8000a2000002020000020200000363a0000e0
:100ef80020410000646400002f520000656d00006e
:100f08006f760000652000004465000076690000e7
:100f180063650000207400006f2f000066720000f7
:100f28006f6d00002061000020470000726f000014
:100f3800757000000d0a000020200000202000002d
:100f4800203700003a200000447500006d70000052
:100f5800204e00006569000067680000626f0000ad
:100f6800726800006f6f000064200000496e000086
:100f7800666f0000726d000061740000696f000008
:100f88006e0d00000a200000202000002020000034
:100f9800383a000020540000726100006e730000af
:100fa800666500007220000061200000706100008a
:100fb800636b0000657400000d0a0000202000002b
:100fc80020200000203000003a200000437200007a
:100fd80079700000746f0000677200006170000093
:100fe8006879000020740000657300007400000038
:100ff8009c8600008d01000002040000081000001b
:1010080020400000801b0000366c0000d8ab0000b8
:101018004d9a00002f5e0000bc630000c6970000d8
:10102800356a0000d4b300007dfa0000efc5000067
:101038009139000072e40000d3bd000061c20000d5
:101048009f2500004a94000033660000cc8300000e
:101058001d3a000074e80000cb8d0000010200007a
:101068000408000010200000408000001b3600002b
:101078006cd80000ab4d00009a2f00005ebc000049
:1010880063c60000973500006ad40000b37d0000f5
:10109800faef0000c591000039720000e4d30000a7
:1010a800bd610000c29f0000254a00009433000083
:1010b80066cc0000831d00003a740000e8cb0000f5
:1010c8008d0100000204000008100000204000000c
:1010d800801b0000366c0000d8ab00004d9a000061
:1010e8002f5e0000bc630000c6970000356a000050
:1010f800d4b300007dfa0000efc50000913900006c
:1011080072e40000d3bd000061c200009f2500000a
:101118004a94000033660000cc8300001d3a0000aa
:1011280074e80000cb8d00000102000004080000f4
:1011380010200000408000001b3600006cd8000022
:10114800ab4d00009a2f00005ebc000063c6000093
:10115800973500006ad40000b37d0000faef000064
:10116800c591000039720000e4d30000bd610000a1
:10117800c29f0000254a00009433000066cc00009e
:10118800831d00003a740000e8cb00008d010000c8
:10119800020400000810000020400000801b00002e
:1011a800366c0000d8ab00004d9a00002f5e00009e
:1011b800bc630000c6970000356a0000d4b3000085
:1011c8007dfa0000efc500009139000072e40000cc
:1011d800d3bd000061c200009f2500004a940000b2
:1011e80033660000cc8300001d3a000074e800005c
:1011f800cb6300007c7700007bf200006b6f00007f
:10120800c5300000016700002bfe0000d7ab0000ce
:1012180076ca000082c900007dfa00005947000024
:10122800f0ad0000d4a20000af9c0000a472000042
:10123800c0b70000fd930000263600003ff700000d
:10124800cc340000a5e50000f1710000d8310000a1
:1012580015040000c7230000c3180000960500000d
:101268009a07000012800000e2eb000027b200009d
:1012780075090000832c00001a1b00006e5a00003c
:10128800a05200003bd60000b3290000e32f000065
:1012980084530000d1000000ed200000fcb10000e4
:1012a8005b6a0000cbbe0000394a00004c580000c1
:1012b800cfd00000efaa0000fb4300004d33000030
:1012c80085450000f90200007f5000003c9f0000a7
:1012d800a8510000a34000008f9200009d38000034
:1012e800f5bc0000b6da000021100000fff3000092
:1012f800d2cd00000c130000ec5f00009744000002
:1013080017c40000a77e00003d6400005d190000be
:1013180073600000814f0000dc2200002a9000006a
:1013280088460000eeb8000014de00005e0b0000e6
:10133800dbe00000323a00000a4900000624000001
:101348005cc20000d3ac00006291000095e400008c
:1013580079e70000c83700006d8d0000d54e000009
:10136800a96c000056f40000ea6500007aae00009f
:1013780008ba0000782500002e1c0000a6b4000062
:10138800c6e80000dd7400001f4b0000bd8b0000a4
:101398008a7000003eb500006648000003f60000b1
:1013a8000e61000035570000b9860000c11d00001d
:1013b8009ee10000f898000011690000d98e000035
:1013c800949b00001e870000e9ce0000552800000d
:1013d800df8c0000a18900000dbf0000e64200007c
:1013e80068410000992d00000fb0000054bb0000b8
:1013f80016520000096a0000d530000036a500002a
:1014080038bf000040a300009e810000f3d7000011
:10141800fb7c0000e3390000829b00002fff0000e6
:10142800873400008e43000044c40000dee9000059
:10143800cb5400007b94000032a60000c2230000b9
:101448003dee00004c9500000b420000fac300007e
:101458004e0800002ea1000066280000d9240000d4
:10146800b27600005ba20000496d00008bd100003d
:1014780025720000f8f600006486000068980000f5
:1014880016d40000a45c0000cc5d000065b6000026
:10149800926c00007048000050fd0000edb900009b
:1014a800da5e00001546000057a700008d9d000079
:1014b80084900000d8ab0000008c0000bcd3000072
:1014c8000af70000e458000005b80000b345000022
:1014d80006d000002c1e00008fca00003f0f00003d
:1014e80002c10000afbd000003010000138a000024
:1014f8006b3a000091110000414f000067dc0000ca
:10150800ea970000f2cf0000cef00000b4e6000039
:1015180073960000ac74000022e70000ad350000af
:1015280085e20000f9370000e81c000075df0000c4
:101538006e470000f11a0000711d000029c5000067
:10154800896f0000b76200000eaa000018be0000f4
:101558001bfc0000563e00004bc60000d27900007c
:10156800209a0000dbc00000fe780000cd5a000081
:10157800f41f0000dda800003388000007c7000042
:1015880031b10000121000005927000080ec000063
:101598005f600000517f0000a9190000b54a0000f3
:1015a8000d2d0000e57a00009f930000c99c000003
:1015b800efa00000e03b00004dae00002af500005f
:1015c800b0c80000ebbb00003c830000539900004a
:1015d800611700002b0400007eba000077d60000d7
:1015e80026e100006914000063550000210c00008a
:1015f8007d0a0000000d00000a4500006e7400001e
:101608006572000020610000206d0000656e00001a
:1016180075200000636800006f69000063650000c2
:101628003a200000008400002a27000004a30000dc
:1016380074c20000f9ff0000c1ba0000de780000a3
:101648005a680000b700000001020000030400000f
:101658000506000007080000090a00000b0c00003e
:101668000d0e00000f2b00007e150000162800004c
:10167800aed20000a6ab0000f715000088090000f4
:10168800cf4f00003c0d00000a3000003d44000030
:1016980069730000616200006c650000204a000068
:1016a8006f6900006e2c0000203100003d450000ed
:1016b8006e610000626c0000652000004a6f000047
:1016c800696e0000203a0000200000000d0a0000aa
:1016d800486f0000772000006d6100006e790000ff
:1016e800206200007974000065730000206100002a
:1016f80072650000207900006f75000020720000fc
:10170800657100007565000073740000696e000063
:101718006728000068650000782900003a2000006a
:10172800000d00000a5700006861000074200000e6
:1017380069730000207400006865000020730000d1
:10174800686f00007274000020610000646400008b
:101758007265000073730000206f000066200000af
:101768006465000076690000636500002079000068
:101778006f75000020770000616e00007420000083
:10178800646100007461000020660000726f000050
:101798006d3a0000200000000d0a0000506c0000a7
:1017a8006561000073650000206500006e7400002c
:1017b8006572000020740000686500002047000082
:1017c800726f00007570000020490000442000007e
:1017d8006f66000020740000686500002044000067
:1017e80061740000612000005265000071750000fe
:1017f80065730000743a0000200000000d0a000024
:10180800506c0000656100007365000020650000f1
:101818006e740000657200002074000068650000a6
:10182800206e0000756d00006265000072200000e7
:101838006f66000020620000797400006573000084
:10184800207400006f200000736500006e640000c3
:101858002028000068650000782900003a20000070
:10186800000d00000a5000006c6500006173000064
:1018780065200000656e000074650000722000009d
:101888007468000065200000736800006f72000033
:101898007420000061640000647200006573000039
:1018a800732000006f660000207400006865000067
:1018b8002064000065730000746900006e61000018
:1018c800746900006f6e00002064000065760000f7
:1018d80069630000653a0000200000000d0a00005e
:1018e800456e0000746500007220000074680000f6
:1018f80065200000477200006f7500007049000005
:10190800442000006f660000206400006576000037
:101918006963000065730000207400006f200000f8
:10192800736500006e6400002064000061740000ac
:10193800613a0000200000000d0a00000a200000a3
:10194800576800006174000020470000726f0000b3
:101958007570000020410000637400006976000083
:101968006974000079200000646f0000207900008d
:101978006f75000020770000616e00007420000081
:10198800746f0000206400006f2000003f200000fa
:101998000d0a0000003000003d41000064640000b2
:1019a800204400006576000069630000652000009f
:1019b800746f00002061000020470000726f000073
:1019c80075700000200d00000a3100003d52000033
:1019d800656d00006f76000065200000446500001a
:1019e800766900006365000020660000726f0000e1
:1019f8006d20000061200000477200006f75000034
:101a0800700d00000a3200003d520000656d0000b4
:101a18006f760000652000004465000076690000cc
:101a28006365000020660000726f00006d200000f2
:101a3800416c00006c200000477200006f750000c8
:101a4800707300003a200000000d00000a450000f5
:101a58006e7400006572000020310000362d000011
:101a68006269000074200000477200006f75000072
:101a7800702000004944000020280000486500004c
:101a8800782900003a200000000d00000a530000e9
:101a9800686f000072740000202000002020000001
:101aa800202000002020000020200000202000002e
:101ab800202000004d4100004320000020200000ad
:101ac800202000002020000020200000202000000e
:101ad8002020000020200000202000005479000071
:101ae8007065000020200000202000002020000059
:101af80020200000526e0000746c00007368000023
:101b080069700000200000000d0a0000002000009d
:101b180020200000207c0000202000002020000061
:101b28000020000020200000207c00002020000071
:101b38002020000020000000525400005200000045
:101b480052460000440000004352000044000000d8
:101b5800554b00004e00000043480000494c00006f
:101b6800442000000050000041520000454e000093
:101b780054000000554e00004b5700004e20000056
:101b8800000d00000a5000006c6500006173000041
:101b980065200000696e0000707500007420000068
:101ba800747700006f2000006e7500006d62000001
:101bb80065720000732000007769000074680000f7
:101bc800206200006c6100006e6b0000733a000038
:101bd800000d00000a5000006c65000061730000f1
:101be80065200000656e000074650000722000002a
:101bf8007468000065200000736800006f720000c0
:101c080074200000616400006472000065730000c5
:101c1800732000006f6600002074000068650000f3
:101c28002064000065730000746900006e610000a4
:101c3800746900006f6e0000206400006576000083
:101c480069630000652800006865000078290000c5
:101c58003a200000000d00000a5000006c650000ea
:101c68006173000065200000696e00007075000057
:101c78007420000073740000726900006e67000031
:101c88003a200000000d00000a4900006e700000b4
:101c9800757400002073000074720000696e000003
:101ca800673a0000000d00000a730000747200001b
:101cb800696e000067200000746f00002068000053
:101cc8006578000020280000496e0000707500004b
:101cd8007420000061720000726100007929000020
:101ce8003a200000000d00000a43000042430000b3
:101cf800206500006e6300007279000070740000b7
:101d08003a200000000d00000a4900006e20000083
:101d1800667500006e630000746900006f6e000055
:101d2800206900006e7000007574000020640000d7
:101d380061740000613a0000200000000d0a0000f4
:101d4800496e000020660000756e00006374000094
:101d5800696f00006e200000656e0000637200006d
:101d68007970000074650000642000006461000060
:101d7800746100003a200000000d00000a720000a3
:101d880065740000757200006e6500006420000034
:101d9800656e0000637200007970000074650000d1
:101da8006420000064610000746100003a200000b3
:101db800000d00000a530000656e00006469000011
:101dc8006e6700002062000075660000666500000e
:101dd800724500006e6300007279000070740000a4
:101de800207400006f200000726f000075740000fe
:101df800657200002e2e00002e0d00000a00000063
:101e0800202000004e65000069670000686200003d
:101e18006f72000020740000616200006c650000b1
:101e28002069000073200000667500006c6c0000db
:101e38002e0d00000a000000202000004469000068
:101e48007265000063740000206a00006f6900007a
:101e58006e20000073750000636300006573000066
:101e680073660000756c00002e0d00000a0000006b
:101e7800504100004e200000002000007374000054
:101e88006172000074650000642000007375000032
:101e9800636300006573000073660000756c0000e2
:101ea8006c7900002e0d00000a000000204500009b
:101eb800727200006f720000206600006f720000ee
:101ec8006d6900006e670000206e000065740000f8
:101ed800776f0000726b00002e2000002054000075
:101ee80072790000696e00006720000061670000d9
:101ef800616900006e2e00002e2e00000d0a000001
:101f0800004a00006f6900006e6900006e670000fb
:101f180020700000657200006d6900007474000094
:101f2800656400002e0d00000a000000204a000031
:101f38006f6900006e20000070650000726d00007f
:101f480069730000736900006f6e0000207500005f
:101f58006e73000075630000636500007373000012
:101f6800667500006c2e00002057000065200000f8
:101f7800636100006e6e00006f7400002061000055
:101f88006c6c00006f770000206a00006f69000029
:101f98006e7300002e0d00000a0000002e2e0000b7
:101fa800526f000075740000652000005265000043
:101fb800706c000079200000537500006363000016
:101fc8006573000073660000756c00002e2e00001b
:101fd8002e0d00000a0000002e2e0000526f000097
:101fe800757400006520000052650000706c0000e8
:101ff800792000006e6f0000742000005375000007
:10200800636300006573000073660000756c000070
:102018002e2e00000d0a0000000d00000a4e0000e0
:102028006f64000065200000002000005769000070
:1020380074680000204d000041430000204100006a
:1020480064640000726500007373000020000000e3
:10205800206a000075730000742000006a6f000099
:10206800696e0000656400002e0d00000a00000083
:102078004e6f000064650000206800006173000076
:10208800206c000065660000742000007468000081
:10209800652000006e650000747700006f72000014
:1020a8006b2e00000d0a000000200000416e0000a9
:1020b8006f74000068650000722000006e6f0000f9
:1020c800646500002068000061730000206c000057
:1020d8006566000074200000746800006520000038
:1020e8006e650000747700006f7200006b2e0000b0
:1020f8000d0a0000005a00006967000042650000f0
:102108006520000053740000616300006b2000002c
:10211800686100007320000062650000656e0000c1
:102128002072000065730000657400002e0d000029
:102138000a0000004465000076690000636500003d
:102148002068000061730000206c000065660000d4
:102158007420000074680000652000006e650000af
:10216800747700006f7200006b0d00000a00000019
:1021780045720000726f000072200000002000000d
:10218800736500006e640000696e0000672000003f
:102198006d6500007373000061670000652e000024
:1021a8000d0a0000002000004d6500007373000058
:1021b8006167000065200000736500006e74000010
:1021c80020730000756300006365000073730000ee
:1021d800667500006c6c0000792e00000d0a000086
:1021e80000420000696e0000646900006e6700002c
:1021f8002f5500006e620000696e000064690000df
:102208006e670000206400006f6e0000652000000b
:102218007375000063630000657300007366000057
:10222800756c00006c7900002e0d00000a0000009b
:1022380020450000727200006f72000020640000e8
:102248006f6900006e67000020620000696e000080
:10225800646900006e6700002f7500006e62000060
:10226800696e0000646900006e6700002e2e000091
:102278002e0d00000a000000526500006365000092
:1022880069760000696e0000672000004e57000064
:102298004b5f000041440000445200005f720000a0
:1022a800737000002e0d00000a0000000d0a0000e7
:1022b80052650000636500006976000065640000ef
:1022c80020460000726f00006d200000526f000071
:1022d80075740000657200003a200000005000008c
:1022e800616300006b65000074200000436f00000c
:1022f800756e0000742000005265000073700000c5
:102308006f6e0000736500003a2000000020000096
:102318000d0a000020530000656e0000646900008b
:102328006e670000207400006f2000006d790000c7
:10233800736500006c6600000d0a0000000d0000c7
:102348000a4c0000656e00003a20000000460000bc
:10235800726f00006d20000041640000647200008c
:1023680065730000733a000020000000476f00000a
:10237800742000006d650000737300006167000041
:10238800652e00002e2e00002e2e000000540000a6
:1023980072790000696e000067200000746f000009
:1023a800207300007461000072740000206e000049
:1023b80065740000776f0000726b00002e2e00001d
:1023c8002e0d00000a00000020200000200d000053
:1023d8000a4100006464000065640000206e00008b
:1023e8006f64000065200000746f00002067000023
:1023f800726f000075700000203400000d0a0000a4
:1024080000200000202000000d0a00005265000096
:102418006d6f000076650000642000006e6f00009c
:102428006465000020660000726f00006d200000e7
:10243800677200006f75000070200000340d000006
:102448000a000000205500006e680000616e000060
:10245800646c000065640000207000007269000070
:102468006d69000074690000766500002e0d00009b
:102478000a0000000d0a00000d0a00000d0a000005
:102488002a2a00002a2a00002a2a00002a2a0000f4
:102498002a2a00002a2a00002a2a00002a2a0000e4
:1024a8002a2a00002a2a00002a2a00002a2a0000d4
:1024b8002a2a00002a2a00002a2a00002a2a0000c4
:1024c800000d00000a4d000069630000726f0000f3
:1024d8004368000069700000205a00006967000026
:1024e80042650000653200003030000036280000e8
:1024f800544d00002920000053740000616300005f
:102508006b20000020760000322e0000302d0000e5
:10251800322e0000362e00003061000020430000fb
:102528006f6f000072640000696e00006174000043
:102538006f7200000d0a00000d0a00000054000030
:10254800726100006e730000636500006976000028
:10255800657200002d4d0000524600003234000024
:102568004a340000300d00000a0d00000a00000087
:10257800020100000f0f000000050000000000002d
:102588004000000000000000000000000000000003
:10259800000a000000000000010000000200000026
:1025a8000300000004000000050000000600000011
:1025b80020000000210000002200000000000000b0
:1025c8000000000000000000000000000a000000f9
:1025d80000800000018000000280000003800000ed
:1025e80004800000058000000680000020800000b4
:1025f8002180000022800000000000000000000090
:1026080000000000000000000100000003010000bd
:1026180000000000000a00000000000003000000a5
:1026280004000000380000005400000070000000a2
:102638008c000000c4000000e0000000ff00000063
:102648000000000000000000000000000000000082
:102658000a00000000000000010000000200000065
:102668001c00000038000000700000008c00000012
:10267800a8a00000c4000000ff0000000000000047
:10268800000000000000000000000000f000000052
:102698000301000000000000000e00000000000020
:1026a8000100000002000000030000000400000018
:1026b8001c000000380000005400000070000000fa
:1026c8008c000000a8a00000c400000000e000008a
:1026d800ff0000000e0000000000000001000000e4
:1026e8000200000003000000040000001c000000bd
:1026f8003800000054000000700000008c0000004a
:10270800a8a00000c400000000e00000ff000000d6
:1027180010c10000004000008e0000000000000012
:102728007f000000000000000000000078000000aa
:1027380000000000b4000000000000002c010000b0
:10274800000000001c02000000000000fc03000064
:1027580000000000bc070000000000003c0f000063
:10276800000000003c1e0000000000003c3c00008f
:10277800000000003c780000000000003cf0000071
:10278800000000003ce00000010000003cc0000028
:10279800030000003c800000070000003c0000002f
:1027a8000f000000303100003233000034350000e3
:1027b8003637000038390000414200004344000029
:1027c80045460000010000000000000000a30000d2
:0427d80004000000f9
:020000040000fa
:1027dc008000eb00c05e8000f007b2000100320008
:1027ec00110020000100780000000600889fbe0048
:1027fc00662def00682def00506a8000306a88006b
:10280c00a9d520000044eb00306a800022c1b3003f
:10281c0089007800463d07000844e80020012000ac
:10282c00462db400f94f5400f7ff3a000040eb007e
:10283c004eedb70056edb70057edb700580da90097
:10284c00c0532a00606a8800406a8000e2c0b3006e
:10285c00c1d42000363d07004f04be000000060026
:10286c00889fbe008a9fbe008c9fbe0081067800a8
:10287c0002067800f1698000e16988000bd4200021
:10288c00000578008044eb0009447800e169800081
:10289c0062c0b3000b007800f03c0700006a8000b7
:1028ac008a0f500002003a0019c0b3000300370031
:1028bc000844e800600020003c2db400ef4f5400a9
:1028cc0003003e000904e00003003a00efff37006c
:1028dc000904e00006003200206a8000800e7800b7
:1028ec0042cdbf00004e78000980fb00030037008a
:1028fc0030c0b300004e78000000eb004f06be0065
:10290c004f05be004f04be0000000600344cec0026
:10291c0034ecb70002003a0010c0b30034ecb7003e
:10292c0034ccbf000080fb000000060088c9bf004b
:10293c008000eb00050032000040e90088e9b70098
:10294c00504c8000b080fb00504c88000100780097
:10295c0000000600889fbe008a9fbe00aad52000fa
:10296c000004eb000080fb0000004000e405400088
:10297c007240b9004a0db400306a880022c1b3001d
:10298c00800078000a007800b43c0700116b8000ce
:10299c00804c8000808f500009003a0080bd2000e0
:1029ac006b0078008880fb00f6804000808040003f
:1029bc00114090000004a1009040980003003700e3
:1029cc000804e800f90f5400e9ff3a004f05be0077
:1029dc004f04be0000000600889fbe008a9fbe0008
:1029ec008c1f7800804378000045eb00c6bb2000ac
:1029fc0048bc2000960278000500e0000800320078
:102a0c000704e0000700320065489000814f500039
:102a1c0004003a0045009000820f500001003a007b
:102a2c001ac0b3000683e800860f5400f1ff3a0089
:102a3c0009c1b3000404e0000100350089c0b300f3
:102a4c000a04e0001a003200f0698000e069880096
:102a5c000904e000160032000cd4200003057800b5
:102a6c008045eb000b447800e169800062c0b30044
:102a7c000c007800793c0700006a80008a0f500037
:102a8c0003003200106a8000e30f500001003a008e
:102a9c001bc0b3000844e800600020003c2db400cb
:102aac0088cf5400f0ff3a000b80fb000100370088
:102abc000000eb004f0678004f05be004f04be002f
:102acc0000000600889fbe008a9fbe00800578002b
:102adc00506a8000306a8800aad520000004eb0000
:102aec00316a800022c1b3000a0078005b3c070009
:102afc00692dab0005003200106b80008b0f50006d
:102b0c0002003a000880fb0006003700200120007c
:102b1c00462db4000804e800f90f5400f0ff3a0009
:102b2c00080078004f05be004f04be0000000600f0
:102b3c00800178000409a80022c0b30002007800cc
:102b4c008ee9b70010698000604c88002469800011
:102b5c00844c88000001fd008fe9b7000001fd00e6
:102b6c00004d8800c34c88001ecdbf008048780003
:102b7c00a2e9b7008b69ef00e18f41000800320039
:102b8c008b09a80003007800ceff0700f94f500016
:102b9c0003003200690dab0001003a008b49a8001c
:102bac0010c0b3008ae9b700000006000200fa006a
:102bbc00889fbe008a9fbe008c1f7800000678009c
:102bcc0082057800e4cf5000130032000180fb0036
:102bdc0000004000c1bb20006080780020509000b5
:102bec0062c0b3000440bc00f16980008100410068
:102bfc00e169880008d4200062c0b30008007800a6
:102c0c00163c0700422def00e069800062c0b30063
:102c1c0088007800463c07007190200091407800b5
:102c2c000181fb008990200020c0b30000f17c00e2
:102c3c000140e80007e9b7000080fb001b41900051
:102c4c0002f07c0001c0e80007e9b7000080fb003f
:102c5c002b41900002f07c0063c040000080fb0020
:102c6c000cf07c0064c040004865de000080fb0076
:102c7c000af07c0065c0400007e9b7000080fb004b
:102c8c004b41900002f07c0066c0400007e9b700a1
:102c9c000080fb005b41900002f07c0067c04000ac
:102cac0007e9b7000080fb00eb4590000bf07c00bf
:102cbc00e8c040008000fd0007e9b7008000fd007f
:102ccc00689020001844780010ff07008880fb00f3
:102cdc0080f07c000840e9000080fb00a1c0b3003c
:102cec0001f07c0008c0e9000080fb0051d22000fc
:102cfc0011f07c00634054000080fb0041d22000a6
:102d0c0011f07c00644054000080fb000af07c0051
:102d1c00654054000080fb000cf07c0066405400c1
:102d2c000080fb008040eb0001f07c006740540009
:102d3c000080fb0091c0b30001f07c00684454009b
:102d4c000800780006e9b700804c8000ec80570042
:102d5c0077ff07004f0678004f05be004f04be00fa
:102d6c000080fa00000006000400fa00889fbe00f4
:102d7c008a9fbe008c9fbe0000057800010678007b
:102d8c0082067800f1698000e16988000bd420008c
:102d9c0062c0b3000b007800b03b07008a047800d7
:102dac000044eb00090037000844e800e1698000aa
:102dbc00e6804000e169880062c0b3000b00780037
:102dcc00a63b0700f04f540006003200006a80005a
:102ddc00890f5000f4ff3a00150037000084fb0007
:102dec0020003700f1698000e169880062c0b300ff
:102dfc000b007800993b07000044eb0009003700fa
:102e0c000844e800e1698000e6804000e169880040
:102e1c0062c0b3000b007800903b0700f04f5400e9
:102e2c0003003200106a8000e30f5000f4ff3a00f8
:102e3c00884e78008000eb00c2bb200005003700f4
:102e4c000040e8008100e8000281e800e48f5000b7
:102e5c00e2ff320001407800010478001200e0002b
:102e6c00f7ff3a00004e780040c1b3000b3e07005c
:102e7c000001780088004400c0bb2000823078003c
:102e8c000200e00002003a00020078001b0037004c
:102e9c000a6a88001a0020001a6a8800e06980001b
:102eac0062c0b3008b007800a13b0700080444000b
:102ebc00c0bb2000000444009800780000c0eb0068
:102ecc00805098009804780070805700ef3d070000
:102edc000fb897009fb89700808cbe001800780040
:102eec009d4678002d509800980078000000eb006b
:102efc00e0009800d82ba8000a0078004f06be000e
:102f0c004f05be004f04be000080fa000000060012
:102f1c000400fa00889fbe008a9fbe008c1f7800b8
:102f2c00000678000000eb00c1bd20000500370052
:102f3c000844e8000000e8008180e800e70f50003a
:102f4c000500320000447800800478001100e00095
:102f5c00f7ff3a0003003700e74f54002c00320013
:102f6c008884fb0000c3b300cc3d0700898044007b
:102f7c00648540008bbd200000b57d000000e000a2
:102f8c0023003200084e7800ea807d0000c0eb0080
:102f9c00c04898006a847d006e805700bb3d0700d6
:102fac001fb89700afb8970070049800010c9800f8
:102fbc00100c9800210c9800ea807d0031089000dc
:102fcc000050a100b00898006a817d003208900082
:102fdc0001ff2f00010060000010a00030099800d4
:102fec000001eb008a0078000b02780033c0b300bc
:102ffc0061007a0002004000735098000201e80062
:10300c00f90f5100faff3a001000200001003700c0
:10301c000000eb004f0678004f05be004f04be00c9
:10302c000080fa0000000600054ee20019003a008c
:10303c000a0dab001400320060d5200031c1b30082
:10304c0090cf100010003e008829ab0002003a001f
:10305c00d96bab000a003200f0d4200041c0b300a1
:10306c0090cf100008003e0070d5200051c0b30076
:10307c0090cf100004003e00d98bab0002003a0048
:10308c0010c0b300010037000040eb000080fb00d3
:10309c000000060060d5200031c1b30090cf1000b5
:1030ac0010003e008829ab0002003a00d96bab003f
:1030bc000a003200f0d4200041c0b30090cf1000c1
:1030cc0008003e0070d5200051c0b30090cf100016
:1030dc0004003e00d98bab0002003a0010c0b300d4
:1030ec00010037000040eb000080fb0000000600f0
:1030fc00889fbe008a1f7800506a8000306a880062
:10310c00aad520000004eb00316a800022c1b30074
:10311c000a007800d13a0700692dab0002003a0092
:10312c000880fb000600370020012000462db4006b
:10313c000804e800f90f5400f3ff3a000800780087
:10314c004f0578004f04be0000000600889fbe00ab
:10315c008a9fbe008c1f78008005780001067800dd
:10316c00506a8000306a8800aad520000004eb0069
:10317c00316a800022c1b3000a007800b73a070018
:10318c00692dab0008003200106b80008b0f5000d3
:10319c0005003a00206b80008c0f500002003a00b2
:1031ac000880fb000600370020012000462db400eb
:1031bc000804e800f90f5400edff3a00080078000d
:1031cc004f0678004f05be004f04be0000000600fd
:1031dc00889fbe008a1f780000457800506a8000e6
:1031ec00306a8800a9d5200098c1b300316a8000ec
:1031fc0022c1b30009007800983a0700692dab0092
:10320c00090032000a4078006a4de30006003a00db
:10321c00216b8000604c8000808f500002003a00cf
:10322c00100020000500370020012000462db400be
:10323c000844e900edff3a000000eb004f05780070
:10324c004f04be0000000600889fbe00506a80003c
:10325c00306a8800a9d520000044eb00316a800058
:10326c0022c1b300090078007c3a0700406b800053
:10327c000098a3000e00320080007800010cb20010
:10328c0000042000808f5000090032000100e00093
:10329c0007003200662def00682def004e6ded003b
:1032ac00306a800022c1b30089007800a03a070080
:1032bc000844e80020012000462db400f94f5400ca
:1032cc00e6ff3a00406a8000e2c0b300c1d420009f
:1032dc00973a07004f04be00000006000004e0000f
:1032ec00220032000b6def0010c2b3000cedb700e2
:1032fc00f1d42000914078004309dd0002007800f1
:10330c000dedb70060d5200033c1b30090cf110094
:10331c0016003e00e0d4200083c1b30090cf110012
:10332c0012003e00c35e800003b8a30006003a0002
:10333c00e4cf50000d003e00024078000074a00065
:10334c000dedb70002003700e4cf500007003e003f
:10335c0070d5200051c0b30090cf100003003e0088
:10336c0003c8a30001003a000d4da80000000600a0
:10337c00426b800082007800010cb2000004200037
:10338c00808f500009003a00566ded000200780065
:10339c000003b200f00f500001003a00576ded0031
:1033ac0010c0b300cdff070001003700692da90044
:1033bc00662def00682def00306a800022c1b3004b
:1033cc00a1d520005a3a07004e6ded00406a8000ee
:1033dc00e2c0b300c1d42000553a3700a0d520007c
:1033ec00019920000700090031587800106980000d
:1033fc00206b88006aedef008829ab000a003a00c8
:10340c00688da90068ada800906a8000106b8800d8
:10341c000000e800906a8800e20f400010003a00bb
:10342c00d96ba8000e003700688da80068ada90004
:10343c00a06a8000106b8800576dec00826a8000d7
:10344c0002004000a06a88006611b9002169800062
:10345c0001014100820f500001003600d98ba800f9
:10346c00414c8000c508dd000110b200406b8000ab
:10347c000080a10001007000406b880068cda8009e
:10348c0068eda900692da800306a800022c1b30044
:10349c00a1d52000263a0700566dec004e6dec00cd
:1034ac00406a8000e2c0b300c1d42000203a07007b
:1034bc0010c0b30089ff3700d1082000e24f500044
:1034cc001000320006003e00d14321000004e00051
:1034dc000c003200e14f500007003a0008003700a2
:1034ec0051012000e34f5000060032001100200073
:1034fc00e44f5000030032008000eb000100370065
:10350c00d13520000100780000000600889fbe0025
:10351c000004be000204e00007003200810f5000de
:10352c00070031000240e900e3ff070000004400ff
:10353c00808f540002003100100020000100370081
:10354c000000eb004f04be0000000600889fbe0088
:10355c008a9fbe008c1f78008005780001067800d9
:10356c00506a8000306a8800a9d520000b057800cd
:10357c000044eb00316a800022c1b30009007800de
:10358c00b6390700406b8000002cb20001242000eb
:10359c00810f50000e003a00136b8000830f550012
:1035ac00070032004f4dec00004178008b00780092
:1035bc0003007800d5ff07000004e000040032008f
:1035cc00106b8000000e7800100020000600370001
:1035dc0020012000462db4000844e800f94f5400a7
:1035ec00e4ff3a000000eb004f0678004f05be00e8
:1035fc004f04be00000006000a00fa00889fbe00bf
:10360c008a9fbe008c1f7800004478000146780029
:10361c008000eb0002bf2000050037000040e800ee
:10362c008100e8000281e800e88f500005003200bc
:10363c0001407800010578001200e000f7ff3a0025
:10364c0003003700e84f50002f0132000085fb00cb
:10365c00c0c0b300113c0700800078000a00450090
:10366c00f80440008bbd200081b47d000100e00017
:10367c00250132000804e0004e0032002069800071
:10368c00a000980069807d00c14c8000310098003a
:10369c0069817d0006c9bf000749b50071c8b30038
:1036ac00014040002041980069807d00204090003e
:1036bc00fa3b0700000478000000e00005003a0027
:1036cc0069807d00f73b070088b47d004000200036
:1036dc000e0137000a0045007800400081bd200033
:1036ec0060807800080878004660dd000034a00097
:1036fc00004c780089c9bf0000404000104498007d
:10370c0098c9bf00204498009199200091407800fe
:10371c003144980024cdbf004044980051d2200081
:10372c0091407800514498000c9920001c46780078
:10373c006c449800a2c9bf00704498006801440012
:10374c006190200091407800e0c7b30080cf50001a
:10375c000a003e0084902000804178000140e8007f
:10376c0006e9b7000080fb0060597a0061902000e8
:10377c009140780083cf5000f8ff36000749ed00e8
:10378c0007e9b700e14f40004700320082007800a3
:10379c008390200002c050000080fb00e0d879002c
:1037ac000749ed0007e9b700e14f40003e00320049
:1037bc00f8ff3700c0ff2f008a29b4000a0045002b
:1037cc007804400089bd200068807c00814c80001a
:1037dc0021009800e8807c008a09ed00504c88009c
:1037ec0010407800f0409800e8807c008a09ed00d9
:1037fc00504c880010407800e04098008aa9ed00f9
:10380c0088c9bf006840400088e9b700e8807c00a8
:10381c00a040980068807c00204090009f3b0700ef
:10382c00800578000000e0005d0032000a004500d1
:10383c007800400081bd2000608078000b08780083
:10384c003afc0700f043b200c660dd0080cd70008a
:10385c0036fc07009045980034fc0700a045980002
:10386c0032fc0700b045980030fc0700c0459800ba
:10387c002efc0700d04598002cfc07000046e90000
:10388c00ec45980029fc0700f04598006884450039
:10389c008849e2000400320024fc0700005c780038
:1038ac008849e200fcff3a000a004500f804400099
:1038bc008bbd200069847d0072805700733b07002c
:1038cc007fb097008fb8970040049800510498007f
:1038dc0069807d003000900074815700f3805700a0
:1038ec0021fd07000004e00009003a0069807d001a
:1038fc00100078006b3b070069807d00693b070076
:10390c000000eb0080b47d00400020007f003700f9
:10391c000409a900f0c7b30006e9b7000769ef0076
:10392c005fe897000080fb0000004000c9bb20004e
:10393c0060847c00e0c0b300583b07008005780031
:10394c00600498000000e0001a003a00100020000b
:10395c00106a8800e069800062c0b30001d42000c6
:10396c00f33807005fe897000080fb000000400080
:10397c0060807c004b3b07005fe897000080fb00f9
:10398c00000040000bb07c000a04450078044400a1
:10399c0089bd200068807c0010007800413b070046
:1039ac0068807c003f3b07000bb47c00400020008b
:1039bc00560037005fe897000080fb0000004000d5
:1039cc00c8bb200060007c00f1be20009140780054
:1039dc00614898005fe897000080fb000000400001
:1039ec0060007c0021698000410098005fe897002e
:1039fc000080fb000000400060007c008044eb0075
:103a0c00794898005fe897000080fb0000004000b8
:103a1c0060017c0012089000f18f2f000100600003
:103a2c0000a0a000100998005fe897000080fb0040
:103a3c0000004000e0007c001108900000b0a100e4
:103a4c009008980010c0b300804d780000c8b300f7
:103a5c0090459800efcbbf00a04598000040e800cf
:103a6c00efebb7000a0045007800400082bd200053
:103a7c00e0007900e1409000b145980060007900c9
:103a8c0070409000c0459800d94598009ffb0700f6
:103a9c00e0459800fc45980025cdbf00804d98006e
:103aac0041d2200091407800914d980000c0eb006d
:103abc00a04d9800c0cfb300b04d9800c94d9800f0
:103acc0090c0b300d04d98006e805700ef3a0700bd
:103adc005fe897000080fb000000400060027c0063
:103aec001fb89700afb89700d21f2c00f3ff2f0020
:103afc0000004100818049002002980031029800aa
:103b0c001000200001003700400020004f06780014
:103b1c004f05be004f04be000080fa0000000600f6
:103b2c000200fa00889fbe008a9fbe008045780084
:103b3c0001047800024578008304780001007800c5
:103b4c00e0fb0700f94f50000a003200416b800087
:103b5c00010cb20000042000808f500002003200e3
:103b6c000100e00003003a00880c78000000eb0034
:103b7c00260037002269800004c8b3008801780051
:103b8c008040eb000140780093fb07000004e0004c
:103b9c0015003200e24f550004003a0011c0b3008a
:103bac000b40780094fe0700180037006a8157001c
:103bbc000800be002afb07000004e00004003200ed
:103bcc006ff097000004e00007003a000e00370089
:103bdc00e14f550004003a008a4078000b40780011
:103bec0085fe0700090037000800be0057fe0700dd
:103bfc000004e00004003a0010cdb30088e9b700df
:103c0c0020002000010037000000eb004f05be0033
:103c1c004f04be000080fa0000000600889fbe0022
:103c2c0030002000106a880040adef00f069800081
:103c3c00e069880009d420000044eb00e0698000b2
:103c4c0062c0b30089007800393807000844e800e6
:103c5c00600020003c2db400f04f5400f7ff3a00f8
:103c6c004f04be0000000600889fbe008a9fbe0065
:103c7c008c1f7800804578003008800034ecb70049
:103c8c000469ef00c15e8000d82bef00da2bef0047
:103c9c000000220080806000c05e800000d0a10087
:103cac0001007000c05e880060c320000041eb0082
:103cbc0061c82000024878000080e800808f500026
:103ccc00fcff3a000b04e00004003a001061800095
:103cdc000000e00001003200723a07000000eb0027
:103cec001061880080047800cabd20008cbd2000c3
:103cfc000b04e000020032000904780008003700d1
:103d0c00090478001a0078000000e000040032007a
:103d1c0010007800633a07001a007800613a070037
:103d2c0008004400640040008000eb0001307e007d
:103d3c008904e8000a85e800e78f5400ecff3a009c
:103d4c00810478000abf20008cbd20000b04e00029
:103d5c0002003200090478000800370009047800da
:103d6c001a0078000000e000040032001000780017
:103d7c004c3a07001a0078004a3a07000800440041
:103d8c00780040008000eb0001307e008904e800e0
:103d9c000a85e800e88f5400ecff3a0081047800b3
:103dac00cabb20000a0678000b04e00002003200b7
:103dbc000904780005003700090478001a0078001f
:103dcc000000e00001003200363a07000800440011
:103ddc000c0040000008eb008904e8000a85e800ac
:103dec00e48f5400f0ff3a008cff07004f06780078
:103dfc004f05be004f04be000000060010c0b3000b
:103e0c0099ff0700416a8000e2c0b300c0d42000d3
:103e1c0092370700616a8000c0532a00808f5000df
:103e2c000100320071fa070060bc20000041eb0079
:103e3c00a1bd20000248780064004000810f5000b2
:103e4c00fcff3a0020c020000081eb0021c22000c2
:103e5c000208780064004000808f5000fcff3a009c
:103e6c0000000600889fbe008a9fbe008005780077
:103e7c00506a8000306a8800aad520000004eb004c
:103e8c00316a800022c1b3000a0078007337070042
:103e9c00692dab000800320082002000a1d5200063
:103eac000b00780080f307000000e00002003a00ed
:103ebc000880fb000600370020012000462db400ce
:103ecc000804e800f90f5400edff3a0008007800f0
:103edc004f05be004f04be0000000600ef04b0000a
:103eec00889fbe008a9fbe008c9fbe008e1f7800ec
:103efc008045eb0000047800e1fb2f0001804700b7
:103f0c00e23907007f9e97008fa69700d84bab0035
:103f1c000f003200545f8000655f80000402560081
:103f2c0085825e00e2be2000124178000281fb0017
:103f3c000300200040422f000010b800800f5200f8
:103f4c00818f5a00020036000a0da900d84ba90037
:103f5c000800e00045033a0004c9bf000008a300b4
:103f6c004d0f3a00d80bab0066013200dcaf9f005e
:103f7c00edaf9f00f8af9f00cebd2000ffa99700ca
:103f8c00f3b79f000e0578001e0478000800e000cf
:103f9c004b01320018089000a80890005faa970007
:103fac00efaa97000001520081815a0003003300f0
:103fbc000200be007ef107000900370061006100bd
:103fcc00010020008301d1000281d30002007000a7
:103fdc008380700076f107000001be00a0f107009d
:103fec0002a02b00b3752400faf107000000e000da
:103ffc000600340018007800aa3907001a0078006f
:10400c00a8390700000deb002d013700380990008e
:10401c000202b2002a013a000b10a100c84c900019
:10402c00f9cf54005a0032008042eb00a5e79f0004
:10403c00e1cf44001b003a00780090008808900003
:10404c005faa9700efaa97000000520081805a00e7
:10405c0005092500850f5000e08f580002003e0036
:10406c00a2e79f00470037000080eb00d0979f002d
:10407c000b10a0001a04780026fc2f0006804700c5
:10408c00823907001fa09700afa09700100c980072
:10409c00210c98008044eb0011c0b300a1e79f00f5
:1040ac00380037000984fb000940780022c1b300b6
:1040bc000440bc00516a800081004100316a8800d4
:1040cc0022c1b300a0d52000e4360700426b80006b
:1040dc00820078000120b20004003a00760044000f
:1040ec001a004000114098001c0037009a0078001c
:1040fc0041009000e40f400008003200e30f400044
:10410c0002003a000288a30004003200136b800006
:10411c0031009000808f510005003a000980fb00af
:10412c00008040008040eb00715098000b0037007d
:10413c000288a30009003a00d3979f008980fb00f6
:10414c00f68040009a804000114090000004a100cd
:10415c009040980011c0b300a1e79f008944e8008b
:10416c002fe19700614061004200dd000b24a100ab
:10417c0080c575000b28a30002003a00f8cf54004c
:10418c00c8ff36001a0078004948980042003700f2
:10419c000b00a0008869ef001a0178008000eb008a
:1041ac0004003700014078008100e800f98f5000ce
:1041bc000500320001004100705090000008a3007f
:1041cc00f8ff320002003700f84f5000290032008f
:1041dc0000cfb30088e9b7009a017800330890004b
:1041ec006f0060002300320013089000a3089000b9
:1041fc005faa9700efaa97000000520081805a0036
:10420c0035422f00850f5000e08f58001500360006
:10421c000b00a1000080eb00d0979f0033089000aa
:10422c00ef404000ef80600002ff2f0002006000b2
:10423c0001007000b00998001a04780060fc2f008f
:10424c0000804700113907003fa09700cfa09700ce
:10425c00100c9800210c980011c0b300a1e79f002e
:10426c00060037000b00a1000041eb00a2e79f0005
:10427c00020037008041eb00a3e79f002fe297007c
:10428c00614062004200dd000b24a10080c5750076
:10429c000b08a3001f003a00afe2970061c0620058
:1042ac004200dd000b24a10080c575000b28a30083
:1042bc00830032000b18a300260032007fb3970056
:1042cc00060043006400400081bd2000608078003f
:1042dc00b000900020698000808f50001d003a00d3
:1042ec000044eb0060c3200081c2b300040037001f
:1042fc000844e8000080e800814f540003003200bd
:10430c001004e000faff3a001300370010cfb3009e
:10431c0088e9b700ffb197000381410064014100b7
:10432c0084bd2000e2007a0031409000a2e9b70081
:10433c00310890000050a000b008980062007a008c
:10434c0030089000430320000048a3005e0e3a00a2
:10435c00510e370088c2b300619020009140780064
:10436c008181fb007fb19700020041006400400096
:10437c0084bd200060017a003243900085902000bb
:10438c0086f17a000140e90006e9b7000080fb00e5
:10439c00c241900003f07a0001c0e90006e9b700c1
:1043ac000080fb007242900004f07a0063c0500061
:1043bc0006e9b7000080fb006243900006f07a002b
:1043cc0064c0500006e9b7000080fb0092499000e1
:1043dc0003f07a0065c0500006e9b7000080fb00ce
:1043ec00024a900004f07a0066c0500006e9b7005b
:1043fc000080fb00224b900006f07a0067c0500052
:10440c0006e9b7000080fb00b249900003f07a0087
:10441c00e8c050000100780006e9b7000042eb004c
:10442c00e4679f0092017800224090000004e000b5
:10443c000d0032000502780007c9bf008080fb0028
:10444c003343780086707a000040e80007e9b70033
:10445c006f6097008040e800e1679f002240900069
:10446c00814f5000f4ff3e005f90970061fa2f00df
:10447c008f804000aef9070080c2b300804f54001b
:10448c00b30d32008880fb008180400050c32000b7
:10449c006f61970082707800ffb197000380410034
:1044ac006400400084bd200060017a0060c32000dd
:1044bc00324190008270780003012000020e370018
:1044cc00ffaa97008502e800f5af9f000e87e80071
:1044dc00e78f5200a9fe3a008040eb00c0bd2000df
:1044ec00040037008140e8000080e800e7cf50006e
:1044fc00030032001000e000faff32000100370028
:10450c00d80ba900d82bab00c50132000c05be009e
:10451c000001eb00c3bb20008202780093007800fe
:10452c000100e00051003200610290000400e00044
:10453c004e0032001108900000b8a30009003a00a8
:10454c0021009000b10090000000550081805d00ba
:10455c0026e02300860f5000e08f58004300360001
:10456c000800370021009000b100900000005500b9
:10457c0081805d0016122a00860f5000e08f5800d3
:10458c003a0036000040eb00e0679f00829020006c
:10459c0007c9bf008080fb00b441780083707900ac
:1045ac000040e80007e9b7006f6397000640e80099
:1045bc00e0679f00e54f5000f5ff36000040eb0030
:1045cc00e0679f008290200006c9bf008080fb003e
:1045dc00b4417800837079000040e90006e9b70027
:1045ec006f6397000640e800e0679f00e74f5000bc
:1045fc00f5ff360085804200c0bb200000844000df
:10460c00980078001108900000b0a1009008980064
:10461c0098017800130990004810de0067404000b4
:10462c00670060004800dd00f18f2f000101610080
:10463c000001710092099800180078002c00980075
:10464c003d0098001801780092089000007020003e
:10465c00808460003a0d3a00620090001138070027
:10466c001800780069009800350d37000201e80049
:10467c008381e800e40f5100a7ff3a00c8bb20007b
:10468c0088047800180278000400e0002200320050
:10469c0034015500a4815d00809628009100200013
:1046ac00800f5100818f59001b0036002450900060
:1046bc0062c0b3000440bc00f1698000810041007d
:1046cc00e16988000cd4200062c0b3000c007800b3
:1046dc0062350700106a8000e10f500006003a00b6
:1046ec0020002000106a8800e069800062c0b300de
:1046fc008c0078008e35070019007800600090005f
:10470c000000e00001003200e637070019007800d5
:10471c00e4370700800ceb000884e80040bc200064
:10472c00880f5000d6ff3a000040eb00e0679f0076
:10473c0089bd20008005eb008a9020000080fb00e2
:10474c00000040007800400060807c000000e00029
:10475c00010132003000900081fa2f0001814700e6
:10476c008180e800818047003df807000004e000ec
:10477c007e0032000f6997000204e00070003a00de
:10478c00ef6197000380fb000000400078004000c0
:10479c00e0817c00a30090000044eb0020698000c5
:1047ac00808f500020003a000244780060c3200043
:1047bc0081c2b300040037000844e8000080e80020
:1047cc00814f5400030032001004e000faff3a005d
:1047dc00150037001300780070409000a2e9b70074
:1047ec0010cfb30088e9b7006f6297000480fb001c
:1047fc00000040007800400060807c0010007800d1
:10480c00a8370700ef6297000580fb00000040000e
:10481c007800400060807c00a23707006f6397002f
:10482c000680fb006500370093017800fb679f0052
:10483c00ef6097000180fb00000040007800400012
:10484c0060807c00204090000004e00012003200e8
:10485c00849020000180fb000000400078004000a4
:10486c0081bd20006081780007c9bf008080fb00fb
:10487c00b342780085707a000040e80007e9b70081
:10488c007f6097000040e800f0679f00a240900016
:10489c0080cf5000f4ff3e005f90970076fa2f0017
:1048ac0086804700a2f80700ef6097000180fb00ac
:1048bc00000040007800400060817c00a200900065
:1048cc0020698000808f500009003a000880fb00ae
:1048dc000000400051c32000ff61970003f07800f6
:1048ec001201780061c320007241900002f0780040
:1048fc006f6297000480fb000000400078004000cd
:10490c0060807c001000780066370700ef6297002b
:10491c000580fb00000040007800400060807c00b7
:10492c00603707006f6397000680fb0000004000b3
:10493c00780040000bb07c0003012000e20c370033
:10494c00e24f510084003a00ef6097000180fb00b9
:10495c00000040007800400060807c00a0009000c7
:10496c0020698000808f50001e003a006f61970014
:10497c000280fb000000400078004000e0807c00da
:10498c001100780070409000a2e9b7000b0078008d
:10499c0088e9b7001100780042370700ef619700f3
:1049ac000380fb00000040007800400060807c0029
:1049bc003c3707006f6297000480fb00000040004a
:1049cc00780040000bb07c000409a900f0c7b300cc
:1049dc0006e9b7000b00780007e9b7004303200095
:1049ec00b90c37006890200018447800c7f707000e
:1049fc008880fb0080707d000840e9000080fb008f
:104a0c00a1c0b30001707d0008c0e9000080fb006c
:104a1c0051d2200011707d00634054000080fb00d7
:104a2c0041d2200011707d006441540002007800d6
:104a3c0006e9b7000281fb0061fa2f008f8040006d
:104a4c003180fb00000040007800400060827c0058
:104a5c00d442900005717d006540540006e9b70012
:104a6c000080fb004443900006707d0066405400bb
:104a7c000080fb000b707d00674054000080fb0041
:104a8c0092c0b30002707d006844540008007800a6
:104a9c0006e9b70072902000124178008281fb0079
:104aac0030c0b30080717d000240e8000080fb0044
:104abc000b707d0002c0e80007e9b7000080fb0026
:104acc00e441900003707d006340410007e9b700aa
:104adc000080fb00f442900005707d0064414100b1
:104aec000200780007e9b7002400900010f80700d6
:104afc006f6397000680fb000000400078004000c8
:104b0c0060807c0010007800e6360700ef609700ac
:104b1c000180fb00000040007800400060807c00b9
:104b2c000b0878006f6197000280fb0000004000ca
:104b3c007800400060807c00da360700ef61970057
:104b4c000380fb0000004000780040000bb07c00ac
:104b5c00030120005c0c37006f6297000440e800f2
:104b6c00e0679f00e74f5000f4fe36008042eb00f8
:104b7c00e5679f00f6698000e669880009d420008b
:104b8c00e169800062c0b30009007800333407008b
:104b9c00186a8000e20f5400410c32006f609700dd
:104bac000040e800e0679f00600020003c2db4004e
:104bbc00ef609700efcf5000f1ff36000040eb00a4
:104bcc00e0679f00f00be20015003a0021bf2000c7
:104bdc000040e800e0679f00e84f500003003200ff
:104bec003100e0000e003a00f9ff37000040eb0006
:104bfc00e0679f00bc0be20009003a00e1bb20001b
:104c0c000040e800e0679f00e44f500003003200d2
:104c1c003100e00002003a00f9ff3700d82ba90060
:104c2c00d8ebab001c0c3200d8eba90086ccbf0033
:104c3c0088e9b70087ccbf0089e9b70071648000b0
:104c4c00814c8800b2648000c3648000c24c880030
:104c5c00d34c8800d4648000e5648000e44c880068
:104c6c00f54c8800c3042000170c3700f0fe2f0011
:104c7c00f1ff2f0008004000e080480015062000de
:104c8c00850f5000e08f5800030c3e0000600100bf
:104c9c00610037009e003700ff0b3700fe0b37001a
:104cac00fd0b3700be063700fb0b3700fa0b370045
:104cbc00f90b3700f80b3700f70b3700e30637001a
:104ccc00f50b3700f40b3700f30b3700f20b370002
:104cdc00f10b370041073700ef0b3700ee0b3700b5
:104cec0049073700ec0b3700eb0b3700ea0b3700aa
:104cfc005c07370070083700e70b3700e60b37000e
:104d0c00e50b37007a083700e30b3700e20b37006e
:104d1c00e10b370098083700a3083700de0b37008b
:104d2c00dd0b3700dc0b3700db0b3700da0b370001
:104d3c00d90b3700d80b3700d70b3700d60b370001
:104d4c00d50b3700d40b3700d30b3700d20b370001
:104d5c00c1093700c5093700d5093700eb09370001
:104d6c00ee093700f2093700080a3700af0a37009e
:104d7c00b20a3700c80b3700c70b3700c60b370019
:104d8c00c50b3700c40b3700c30b3700c20b370001
:104d9c00c10b3700c00b3700bf0b3700be0b370001
:104dac00bd0b3700bc0b3700bb0b3700ba0b370001
:104dbc00b90b3700b80b3700b70b3700b60b370001
:104dcc00b50b3700b40b3700b30b3700b20b370001
:104ddc00b10b3700b00b3700af0b3700ae0b370001
:104dec00ad0b3700ac0b3700ab0b3700aa0b370001
:104dfc00a90b3700a80b3700a70b3700a60b370001
:104e0c00a50b3700a40b3700a30b3700a20b370000
:104e1c00a10b3700980a37000040eb00e0679f00b9
:104e2c0088bd20008081eb000081fb00c210dd00fa
:104e3c00a00220000100400060007c00e10f400057
:104e4c00090032000100440010689000a249e30000
:104e5c0005003a008849e200570b3a00010078003f
:104e6c00a002b00003307c006f6397000640e8009e
:104e7c00e0679f00e74f5000ebff36000040eb006f
:104e8c00e0679f00a2c9bf00354ce300480b32001d
:104e9c001200200073c3200084022000e2679f00f0
:104eac00840f510007003200820078001340780014
:104ebc000101e8008381e800a249e300050032000b
:104ecc00f6ff370080c2b300804f5100720b3200e6
:104edc008280fb008180400060c32000614078002c
:104eec008001eb000004e00002003200a2e9b700f0
:104efc0043032000ef6097000180fb00000040009e
:104f0c000041eb0061c3200002f078006e0b37000b
:104f1c0086f60700c0ef9f0080f79f0083f607001e
:104f2c00a0ef9f0090f79f0080f607000080fb0029
:104f3c0009f02f0009066600000676007bf60700d4
:104f4c0080ef9f004800dd00f80f20000806660087
:104f5c000006760075f607000080fb008985650069
:104f6c008085750071f60700e0e79f004800dd00c2
:104f7c0088856500808575006cf60700c0e79f008a
:104f8c006af60700b0e79f002fed97000a42780001
:104f9c000438a3000c0032000040eb00e0679f00d7
:104fac000044780049bb200060f607008880fb00b5
:104fbc0080f07c00ef6297000544e800e8679f00f2
:104fcc00e74f5400f8ff36000a48a3000c003200eb
:104fdc000040eb00e0679f0000447800c9ba200055
:104fec0052f607008880fb0080f07c006f6397000e
:104ffc000644e800e8679f00e74f5400f8ff3600ce
:10500c00c04c8000e10f400002003200e50f46006a
:10501c00140336000040eb00e0679f000b0578009e
:10502c0000417800c3bd2000930078000100e0002f
:10503c000700320031009000800f550004003a0048
:10504c0031409000bfe0970080cf50000f0b320032
:10505c000241e800e2679f008381e800e74f5100be
:10506c00f1ff3a000ff1970063406100e14f5000ef
:10507c007f023a002df60700e0679f00e14f5000d9
:10508c00c1013a00d90bab00bf013200206980008e
:10509c008a0f5000ff0a320010c0b300c06f9f008f
:1050ac0022f60700d06f9f0020f60700e06f9f00ec
:1050bc001ef6070080779f001cf6070090779f0074
:1050cc001af60700004578008040e800a1779f00a1
:1050dc0070cdb300a349e30002003e000140e8009c
:1050ec00a0779f0030cbb300a349e30003003e0040
:1050fc002f7097000040e800a0779f00f0c8b30025
:10510c00a349e30003003e002f7097000040e80025
:10511c00a0779f00b0c6b300a349e30003003e0094
:10512c002f7097000040e800a0779f0070c4b30078
:10513c00a349e30003003e002f7097000040e800f5
:10514c00a0779f0030c2b300a349e30003003e00e8
:10515c002f7097000040e800a0779f00ef68970041
:10516c005f6a97008f9997000b01780010c0b3000d
:10517c0019f607000004e000fc003200c04c80006f
:10518c00e10f4000f9003a000040eb00806f9f00f7
:10519c000b0478000002eb00c3bb2000ef6a970001
:1051ac00060037000240e800806f9f000402e80010
:1051bc008381e800e40f52004a0032000441780079
:1051cc00930078000100e000f6ff32006148900087
:1051dc00854f5000f3ff3a0041009000880f5000bb
:1051ec00f0ff3a00e34f52003e003e000400420044
:1051fc00c9bb200060847c00a0fc2f00008047000d
:10520c00223507005fa29700efa29700048cbe0026
:10521c000f6897000080fb000000400060817c005c
:10522c00f24890002f709700814f5000990a3e0071
:10523c00854c8000550198000f6897000080fb009a
:10524c000000400060807c002f7397007648980027
:10525c000f6897000080fb0000004000e0807c009d
:10526c002f7097000a405000905098008f9897002c
:10527c0020698000810f5000090032000100780085
:10528c0010f60700f94f500072003200406b80009e
:10529c00000cb20001042000810f50006d003a0098
:1052ac00df27070004c9bf000008a3007a0a3a00f0
:1052bc008f6897000180fb0000004000c2bb2000fb
:1052cc006000790010509000a0779f00c0fa2f006a
:1052dc00008147000b00780034f607000301200022
:1052ec00790a37000f98970091fa2f000181470037
:1052fc008100e900818047009bf607000004e00074
:10530c00b30532000f6897000080fb0000004000de
:10531c00c1bb2000608078006f69970062489800dc
:10532c000f6897000080fb00000040006080780050
:10533c004b0098000f6897000080fb0000004000b5
:10534c0060807800834c8000530098000f689700b1
:10535c000080fb0000004000608078002f729700f6
:10536c00744898000f6897000080fb000000400014
:10537c006081780052009000880f500006003200c7
:10538c0012089000f18f2f00010060000080a00037
:10539c00100998000500370012089000f18f2f00bb
:1053ac00010060000030b300100998000f689700ee
:1053bc000080fb0000004000c2bb2000e000790030
:1053cc001108900000b0a000900898000f6897009a
:1053dc000080fb0000004000e00079002f70970077
:1053ec000a405000905098008f98970020698000d8
:1053fc00810f50000900320001007800b1f5070060
:10540c00f94f500013003200406b8000000cb200ca
:10541c0001042000810f50000e003a008027070085
:10542c0004c9bf000008a3001b0a3a002f709700a4
:10543c000a405000a0779f008f689700c5fa2f0094
:10544c00058147000b007800d8f507000301200008
:10545c001d0a370004c9bf000008a300ca003a00a7
:10546c000f6897000080fb0000004000cabb2000c2
:10547c00e0047d00690490000800e0000a003a0096
:10548c00e0c0b30085340700e00498000f68970073
:10549c000080fb000000400060007d006004900074
:1054ac000800e0004a0532004f6b9700064c78006c
:1054bc005f68970010449800ef68970021449800ab
:1054cc000f719700324498009f71970043449800e5
:1054dc002f729700544498000cf507006044980014
:1054ec00cfe297000540e900704498006fe3970005
:1054fc00064c98001b4c98000fe89700204c980025
:10550c003c4c9800afe89700414c98004fe997004d
:10551c00524c98000f6897000080fb000000400080
:10552c00c9bb200060847c00e0fc2f000080470099
:10553c00563407007fa297008faa97002404980086
:10554c00350498000f6897000080fb0000004000b5
:10555c0060817c0012089000f18f2f000100600028
:10556c0000a0a0001009980019053700804c80009d
:10557c0054f50700f94f50000f003200406b8000cb
:10558c00000cb20001042000810f50000a003a0008
:10559c00834c80008b8f5100120032004f4dec0079
:1055ac00004178008b00780003007800d7f70700e3
:1055bc000004e0000b003a00814c8000e0688000a1
:1055cc00808f500002053a00f2d42000124178007e
:1055dc00206980008b007800ccf707000004e00005
:1055ec00fb043a008f98970020698000810f5000cf
:1055fc00090032000100780032f50700f94f500025
:10560c0013003200406b8000000fb2000106200036
:10561c00810f50000e003a000127070004c9bf009b
:10562c000008a3009c093a002f7097000a40500014
:10563c00a0779f00c1fa2f000181470041c0b30041
:10564c000b00780059f50700030120009e09370074
:10565c00a2fa2f00828047000c007800bbf70700ed
:10566c000004e0004c04320004c9bf006145600036
:10567c0049043a0071902000914078000180fb00b1
:10568c0089902000cf69970003f07c000140e8006e
:10569c000080fb005f6a970004f07c0001c0e8000a
:1056ac000080fb00ef6a970005f07c0063c04000af
:1056bc000080fb007f6b970006f07c0064c040000c
:1056cc000080fb000f71970002f07c0065c0400069
:1056dc000080fb009f71970003f07c00e6c0400047
:1056ec008000fd0007e9b7008000fd0068902000f5
:1056fc001844780085f407008880fb0080f07c005b
:10570c000840e9000080fb00a1c0b30001f07c0060
:10571c0008c0e9000080fb0051d2200011f07c0091
:10572c00634054000080fb0041d2200011f07c004b
:10573c00644054000080fb000fea970004f07c00ea
:10574c00654054000080fb000cf07c006640540067
:10575c000080fb000af07c00674054000080fb00d6
:10576c0091c0b30001f07c0068445400080078003c
:10577c0006e9b7005f90970061fa2f008f80400018
:10578c00ebf4070004043700ef629700e4cf5200fb
:10579c008f043a0065f40700804678000b07780008
:1057ac0020698000808f5500890432004fe39700f8
:1057bc00e14f53008400360091fa2f00018047001e
:1057cc00d3f507000004e000810432001f68970045
:1057dc000080fb0000004000640040008abd2000f7
:1057ec00e0007d00310890000040a100b008980056
:1057fc001f68970057f407001f6897000080fb0094
:10580c00000040006400400060007d008298200091
:10581c0012417800224098001f6897000080fb001e
:10582c00000040006400400060007d008ff1970094
:10583c00334898001f6897000080fb000000400070
:10584c006400400060007d001ff29700244898001f
:10585c001f6897000080fb000000400064004000bf
:10586c0060007d004c0098001f6897000080fb00d2
:10587c00000040006400400060007d003b00980088
:10588c001f6897000080fb0000004000640040008f
:10589c00e0007d00cfe297000540e900c040980091
:1058ac001f6897000080fb0000004000640040006f
:1058bc0060007d003fe39700364098001f6897001a
:1058cc000080fb00000040006400400060047d008c
:1058dc0088c9bf007133070080047800000c780081
:1058ec000000e0000e003a001f6897000080fb00eb
:1058fc00000040006400400060007d006933070038
:10590c001f6897000080fb0000004000640040000e
:10591c0009307d004226070089017800ea0837002b
:10592c000040eb00e0679f001f6897000080fb00c1
:10593c00000040006400400081bd200060807800c1
:10594c009000780040c0b3008048780010c0b300cd
:10595c00e0679f008849e2000f0032008abd2000fa
:10596c00ef6497001f6897000080fb000000400068
:10597c006400400060007d000984fb0010044400ba
:10598c00eaf30700004c78008944e800e9679f00bf
:10599c008849e200f2ff3a00d80ba8000a00370051
:1059ac003aadef00ef6097000181fb006a11b9007e
:1059bc00020078002e0db400a2c0b300880078005d
:1059cc00db300700220037000e0078003df40700a2
:1059dc00e0679f00f94f5000fd03320064f60700aa
:1059ec000f2607000040eb0088e9b70082992000e1
:1059fc00a3d5200007000900335978000499200032
:105a0c00a5d5200007000900355a7800e0679f00f3
:105a1c0028d32000a2c0b3000440bc0071698000f0
:105a2c0081004100a2c0b300080078008b30070051
:105a3c00d0698000800f5700d9ff32006f63970048
:105a4c000640e800e0679f00e74f5000f1ff36008a
:105a5c00c30320000d68a3009b083a0001c2b300e9
:105a6c0001c0660088e9b700d3042000960837000f
:105a7c004fe19700e14f51007400360093fa2f006c
:105a8c000380470022f507000004e000d003320039
