:020000040000fa
:080000000002040000000000f2
:020000040000fa
:10040000cfe121000e7f22000e01880000000000d5
:100410000c000700a0552a00010020001100070071
:10042000000020000000e000020032000000020096
:1004300000000000f49b0200000000000040da0011
:100440000000fe004440a900200621000000e0005a
:100450000300320000002000a00188004440a800f2
:100460000000060091018800800078000000eb0089
:1004700015003700e280400032a0b4009101ba00bc
:10048000e280400032a0b4009102ba00e280400055
:1004900032a0b4000002eb00472bde00f507b200eb
:1004a000602ce10004003a000059eb008301e900f0
:1004b000fdff3e00040037006128e100010032002a
:1004c0000082eb00040007001101ba000200e00006
:1004d000e8ff3a00000006003159ba008301e90044
:1004e0000c0032002159ba008301e90008003200f3
:1004f0000400e00003003a00e280400032a0b400b3
:10050000f5ff370011d9ba008301e900faff3a007c
:100510008100e800e180400032a0b4000000060045
:100520000040da000000fe00889fbe0080047800d2
:10053000007180000000e00003003a001000070096
:100540000000e0000a003500007180000900e000b2
:1005500002003a000004780006003700000478002a
:1005600009004000060007000000e00001003d0017
:100570000084eb00080078004f04be000000060075
:10058000800078000000e00004003a0020e2200033
:100590000071880001017800060037000081eb003f
:1005a000c0e12100808f500002003e0001718800f0
:1005b0000001eb000200780000000600889fbe00ea
:1005c0008a9fbe00010578000100e00004003500ac
:1005d00008003c000000e000200032000500370069
:1005e00060001000e080180002003b0001f02c00c9
:1005f0001a0037000004be006011b8006b0920002b
:100600000982cf00020039000882cf000441b00007
:10061000694252000e00320008003b0082817100e6
:10062000610164008904d1000884d3008b05e800cf
:100630000442e800f9ff3a000500370008044400ce
:1006400089844c008b05e9000442e900fbff3a0075
:10065000650007000af0a70001f0a0004f05be00ea
:100660004f04be000000060003f0a200889fbe00f9
:100670008a9fbe008c1f780081000700880033002d
:100680006450e1004f0032006420e100520032006b
:1006900003826c0007003b000905d0000306d00070
:1006a000820f54000c065d00020039000200320087
:1006b00089017800030678008582550004003d001a
:1006c0000003fd008103fd008502ea008b854200e6
:1006d000840f720002003b0060001000e0801800f0
:1006e0006011b8000005eb007a28e1000a0039002b
:1006f00006007800c75ddd00f707b200878075004f
:100700002d003700828171000a01780061056000c8
:100710008180d1000080d3008502e900f9ff3b0011
:10072000060440008784480002003b006004140077
:10073000e0841c000988a300070032008a81710050
:1007400082817100610164008904d1000884d300b2
:100750008b05e800170037000978a30013003a0062
:100760000b00e000130034008b05e900080444008e
:1007700089844c000a4474000978a3000d003a00f3
:100780000b00e000070034008b05e900080444007a
:1007900089844c0001003a000b0020000978a30076
:1007a000f7ff32000001eb00020037008281710088
:1007b0000a0178000c0007000cf0a70001f0a0006f
:1007c000400037006420e10002003a00838f6c0093
:1007d000400033000801be000200be0039003700af
:1007e000f4ff2f003e00370081002000618055009b
:1007f0000b003d000b00200061fe2f000100e10016
:100800001d00340082817100610164008904d100ff
:100810000884d3000000e800faff3a0071002000cd
:1008200061006400030070000200600009003200f3
:1008300061044400e0844c000988a50005003200f2
:100840008b05e8006808e10002003a008904d10045
:100850000884d300f20f20000258e10005003d009b
:10086000c75ddd00f907b2008980750008007800d7
:10087000000006000bf827008b0078000000050040
:100880000004be00310007000003be000405be00e6
:100890000200be002d000700844f75000000060016
:1008a0000200be006450e100050036006420e10053
:1008b000020036000968a30001003a000800be00eb
:1008c0000160a0004f0678004f05be004f04be0037
:1008d00000000600f0ff2f00f1ff2700f9ff3700ae
:1008e000889fbe008a9fbe00841f7800e4ff070037
:1008f0004f00780011003300f0ff2f00838f6c0051
:1009000006003b00040565000a00a7000800370048
:1009100009f0a6001000200008003700820f5400e4
:10092000838f5c00030039001000200001003e00ae
:100930000000200009f0a7000000ea004f05be00fb
:100940004f04be000000e00000000600c70ade0001
:10095000f107b200f50fb20008003200e1cf42000b
:10096000020032000170a00024000500810f700019
:10097000010032000408050044000500810f7000ea
:1009800002003a00140005008502e9000000400062
:1009900081c04800fcff3b000170a000240005005e
:1009a000889fbe008a9fbe008c9fbe000001780019
:1009b00081e120001100e0000b003a00c0e12000be
:1009c000c0708800a0708800e1708800b170880055
:1009d000214090000004a000a040980061409000d9
:1009e0000004a000e0409800e7004100c208de00db
:1009f000c20cdd00b47080002de22000c0e12100b7
:100a00000d05500022002000811f78001100090010
:100a10000205d80000067800cf007800c308dd008a
:100a2000e48540008001eb0026e2200085e1200003
:100a30000100370001027800244090000008a30064
:100a4000020032000a003700110a78009400780092
:100a5000214090000008a300fbff32000901420082
:100a6000828f500002003900840f5100460031008f
:100a700094007800848f5000eeff3e00868f500077
:100a800002003900858f5000eaff3900a070800015
:100a9000800f52004f003a00858f50004d003a0001
:100aa0008301e800e18f5100e2ff36008c8f540093
:100ab000040036008a8f5400020031000b047800d5
:100ac00012003700614ab8006151b900b0ff2f0031
:100ad000010020000200500083805800800f520067
:100ae000818f5a00020035000904780007003700a2
:100af0000d805400f2e121000200400011000900c5
:100b00000a80d8000a80b900000478000800780044
:100b100085fe070080017800e10f40002d003200c3
:100b2000a070800003087800a2708000640041007b
:100b3000a2409000808f5100020032000104a0000a
:100b4000010037000104a100214198000880410004
:100b50006400500080097800a070880082e12000c5
:100b600002087800a1708000214090000004a000dd
:100b7000a0409800234090000004a100a0419800ec
:100b800002027800a7ff3700b2708800828f500001
:100b9000090036009200780020e12000a241900078
:100ba0000348780081708800140978008040eb00c9
:100bb000b070800021409800b0708000000a78007a
:100bc000244090000004a0002042980064004200ed
:100bd000010037000000eb004f06be004f05be00cd
:100be0004f04be000000060064005000b070880092
:100bf000a04090000104a1002140980000000600e0
:100c0000889fbe008a9fbe0000057800e401500066
:100c100013001000c285de00234090000008a300ee
:100c200004003200b3708800234090000004a1004b
:100c3000a04198000100780059ff070000047800e7
:100c40000000e000170032008a0f5000150032004b
:100c500060b8970008005000c284de00898f5500fc
:100c600001003600890578004259dd008a007800cd
:100c7000080078003a0007008a0f5400090031008c
:100c80004248dd00000044008a0f50000500360095
:100c90000a005000000044008270800093708000c1
:100ca0000288be00080078004f05be004f04be0059
:100cb000000006000400fa00e0bf9f00e481570036
:100cc000812978000002eb000f0037006fb8970011
:100cd000904078007fb89700104078000402e80048
:100ce00080cf5000040032008180fb000080fb00b8
:100cf00000805000070037006fb897000000e80040
:100d0000e0bf9f009309e800820f5200efff3a0016
:100d10000000eb000080fa0000000600810178006e
:100d20000002eb000b003700e44078000104e00013
:100d3000030032000402e80093cf500004003200a8
:100d40008180fb001380fb00008050000000060043
:100d50008301e800820f5200f3ff3a000000050013
:100d60008001eb000200370061f079008301e800a8
:0c0d7000828f5100fcff3a0000000600da
:020000040000fa
:020000040002f8
:04aff800fdfa00005e
:020000040000fa
:020000040002f8
:04affc007f3f000093
:020000040000fa
:1000080090020000900200009002000090020000a0
:100018009002000090020000900200009002000090
:100028009002000090020000900200009002000080
:100038009002000090020000900200009002000070
:100048009002000090020000900200009002000060
:100058009002000090020000900200009002000050
:10006800900200009002000090020000828f0000c1
:100078007a9f0000900200009002000090020000a9
:100088009002000090020000900200009002000020
:100098009002000090020000900200009002000010
:1000a8009002000090020000900200009002000000
:1000b80090020000900200009002000090020000f0
:1000c80090020000900200009002000090020000e0
:1000d80090020000900200009002000090020000d0
:1000e80090020000900200009002000090020000c0
:1000f80090020000900200009002000090020000b0
:10010800900200009002000090020000900200009f
:10011800900200009002000090020000900200008f
:10012800900200009002000090020000900200007f
:10013800900200009002000090020000900200006f
:10014800900200009002000090020000900200005f
:10015800900200009002000090020000900200004f
:10016800900200009002000090020000900200003f
:10017800900200009002000090020000900200002f
:10018800900200009002000090020000900200001f
:10019800900200009002000090020000900200000f
:1001a80090020000900200009002000090020000ff
:1001b80090020000900200009002000090020000ef
:1001c80090020000900200009002000090020000df
:1001d80090020000900200009002000090020000cf
:1001e80090020000900200009002000090020000bf
:0801f8009002000090020000db
:020000040000fa
:10020800900200009002000090020000900200009e
:10021800900200009002000090020000900200008e
:10022800900200009002000090020000900200007e
:10023800900200009002000090020000900200006e
:10024800900200009002000090020000900200005e
:10025800900200009002000090020000900200004e
:10026800900200009002000090020000828f0000bf
:100278007a9f0000900200009002000090020000a7
:10028800900200009002000090020000900200001e
:10029800900200009002000090020000900200000e
:1002a80090020000900200009002000090020000fe
:1002b80090020000900200009002000090020000ee
:1002c80090020000900200009002000090020000de
:1002d80090020000900200009002000090020000ce
:1002e80090020000900200009002000090020000be
:1002f80090020000900200009002000090020000ae
:10030800900200009002000090020000900200009d
:10031800900200009002000090020000900200008d
:10032800900200009002000090020000900200007d
:10033800900200009002000090020000900200006d
:10034800900200009002000090020000900200005d
:10035800900200009002000090020000900200004d
:10036800900200009002000090020000900200003d
:10037800900200009002000090020000900200002d
:10038800900200009002000090020000900200001d
:10039800900200009002000090020000900200000d
:1003a80090020000900200009002000090020000fd
:1003b80090020000900200009002000090020000ed
:1003c80090020000900200009002000090020000dd
:1003d80090020000900200009002000090020000cd
:1003e80090020000900200009002000090020000bd
:0803f8009002000090020000d9
:020000040000fa
:100d7c000d0a00002020000020200000203100007f
:100d8c003a200000456e0000616200006c650000b6
:100d9c002f44000069730000616200006c65000064
:100dac00204a00006f6900006e6900006e67000049
:100dbc0020620000792000004f740000686500007c
:100dcc007220000044650000766900006365000035
:100ddc00730d00000a2000002020000020200000dd
:100dec00323a000020520000657100007565000069
:100dfc007374000020440000617400006120000046
:100e0c00467200006f6d0000204100006e6f000004
:100e1c0074680000657200002044000065760000d4
:100e2c0069630000650d00000a200000202000000e
:100e3c0020200000333a00002052000065710000b1
:100e4c00756500007374000020440000617400009c
:100e5c0061200000467200006f6d000020610000f0
:100e6c0020470000726f000075700000206f0000ba
:100e7c006620000044650000766900006365000090
:100e8c00730d00000a20000020200000202000002c
:100e9c00343a000020530000656e0000642000000e
:100eac004461000074610000205400006f200000b9
:100ebc00416e00006f740000686500007220000035
:100ecc004465000076690000636500000d0a0000af
:100edc002020000020200000203500003a200000d7
:100eec00536500006e640000204400006174000033
:100efc0061200000546f00002061000020470000ba
:100f0c00726f000075700000206f000066200000fa
:100f1c00446500007669000063650000730d0000f5
:100f2c000a2000002020000020200000363a00009b
:100f3c0020410000646400002f520000656d000029
:100f4c006f760000652000004465000076690000a3
:100f5c0063650000207400006f2f000066720000b3
:100f6c006f6d00002061000020470000726f0000d0
:100f7c00757000000d0a00002020000020200000e9
:100f8c00203700003a200000447500006d7000000e
:100f9c00204e00006569000067680000626f000069
:100fac00726800006f6f000064200000496e000042
:100fbc00666f0000726d000061740000696f0000c4
:100fcc006e000000be8600008d01000002040000cf
:100fdc000810000020400000801b0000366c000050
:100fec00d8ab00004d9a00002f5e0000bc630000df
:100ffc00c6970000356a0000d4b300007dfa0000eb
:10100c00efc500009139000072e40000d3bd000070
:10101c0061c200009f2500004a9400003366000066
:10102c00cc8300001d3a000074e80000cb8d00005a
:10103c0001020000040800001020000040800000a5
:10104c001b3600006cd80000ab4d00009a2f00003e
:10105c005ebc000063c60000973500006ad4000037
:10106c00b37d0000faef0000c5910000397200005a
:10107c00e4d30000bd610000c29f0000254a0000bf
:10108c009433000066cc0000831d00003a7400000d
:10109c00e8cb00008d0100000204000008100000e5
:1010ac0020400000801b0000366c0000d8ab000014
:1010bc004d9a00002f5e0000bc630000c697000034
:1010cc00356a0000d4b300007dfa0000efc50000c3
:1010dc009139000072e40000d3bd000061c2000031
:1010ec009f2500004a94000033660000cc8300006a
:1010fc001d3a000074e80000cb8d000001020000d6
:10110c000408000010200000408000001b36000086
:10111c006cd80000ab4d00009a2f00005ebc0000a4
:10112c0063c60000973500006ad40000b37d000050
:10113c00faef0000c591000039720000e4d3000002
:10114c00bd610000c29f0000254a000094330000de
:10115c0066cc0000831d00003a740000e8cb000050
:10116c008d01000002040000081000002040000067
:10117c00801b0000366c0000d8ab00004d9a0000bc
:10118c002f5e0000bc630000c6970000356a0000ab
:10119c00d4b300007dfa0000efc5000091390000c7
:1011ac0072e40000d3bd000061c200009f25000066
:1011bc004a94000033660000cc8300001d3a000006
:1011cc0074e80000cb6300007c7700007bf2000029
:1011dc006b6f0000c5300000016700002bfe0000a3
:1011ec00d7ab000076ca000082c900007dfa00006f
:1011fc0059470000f0ad0000d4a20000af9c0000e5
:10120c00a4720000c0b70000fd9300002636000059
:10121c003ff70000cc340000a5e50000f1710000a0
:10122c00d831000015040000c7230000c3180000cb
:10123c00960500009a07000012800000e2eb000007
:10124c0027b2000075090000832c00001a1b000057
:10125c006e5a0000a05200003bd60000b3290000db
:10126c00e32f000084530000d1000000ed200000ab
:10127c00fcb100005b6a0000cbbe0000394a0000e4
:10128c004c580000cfd00000efaa0000fb43000038
:10129c004d33000085450000f90200007f5000002e
:1012ac003c9f0000a8510000a34000008f9200005a
:1012bc009d380000f5bc0000b6da000021100000db
:1012cc00fff30000d2cd00000c130000ec5f000017
:1012dc009744000017c40000a77e00003d64000086
:1012ec005d19000073600000814f0000dc220000db
:1012fc002a90000088460000eeb8000014de0000c2
:10130c005e0b0000dbe00000323a00000a490000ee
:10131c00062400005cc20000d3ac00006291000007
:10132c0095e4000079e70000c83700006d8d0000df
:10133c00d54e0000a96c000056f40000ea650000d0
:10134c007aae000008ba0000782500002e1c0000c0
:10135c00a6b40000c6e80000dd7400001f4b0000be
:10136c00bd8b00008a7000003eb50000664800008e
:10137c0003f600000e61000035570000b98600002e
:10138c00c11d00009ee10000f898000011690000ea
:10139c00d98e0000949b00001e870000e9ce00004f
:1013ac0055280000df8c0000a18900000dbf000053
:1013bc00e642000068410000992d00000fb00000cb
:1013cc0054bb000016520000096a0000d530000022
:1013dc0036a5000038bf000040a300009e8100002d
:1013ec00f3d70000fb7c0000e3390000829b000077
:1013fc002fff0000873400008e43000044c400001f
:10140c00dee90000cb5400007b94000032a6000003
:10141c00c22300003dee00004c9500000b42000082
:10142c00fac300004e0800002ea100006628000040
:10143c00d9240000b27600005ba20000496d0000c8
:10144c008bd1000025720000f8f6000064860000c5
:10145c006898000016d40000a45c0000cc5d00006d
:10146c0065b60000926c00007048000050fd000052
:10147c00edb90000da5e00001546000057a7000029
:10148c008d9d000084900000d8ab0000008c000003
:10149c00bcd300000af70000e458000005b80000b7
:1014ac00b345000006d000002c1e00008fca0000bf
:1014bc003f0f000002c10000afbd0000030100009f
:1014cc00138a00006b3a000091110000414f00009c
:1014dc0067dc0000ea970000f2cf0000cef00000bd
:1014ec00b4e6000073960000ac74000022e7000024
:1014fc00ad35000085e20000f9370000e81c000063
:10150c0075df00006e470000f11a0000711d00002d
:10151c0029c50000896f0000b76200000eaa000008
:10152c0018be00001bfc0000563e00004bc600001d
:10153c00d2790000209a0000dbc00000fe78000089
:10154c00cd5a0000f41f0000dda800003388000015
:10155c0007c7000031b1000012100000592700002d
:10156c0080ec00005f600000517f0000a9190000b2
:10157c00b54a00000d2d0000e57a00009f93000095
:10158c00c99c0000efa00000e03b00004dae000045
:10159c002af50000b0c80000ebbb00003c83000043
:1015ac0053990000611700002b0400007eba000064
:1015bc0077d6000026e10000691400006355000096
:1015cc00210c00007d0a0000000d00000a450000ff
:1015dc006e7400006572000020610000206d000038
:1015ec00656e000075200000636800006f690000e4
:1015fc00636500003a200000000d00000a30000076
:10160c003d44000069730000616200006c650000dd
:10161c00204a00006f6900006e2c00002031000091
:10162c003d4500006e610000626c0000652000000a
:10163c004a6f0000696e0000203a00002000000094
:10164c000d0a0000486f0000772000006d6100005b
:10165c006e79000020620000797400006573000050
:10166c002061000072650000207900006f75000099
:10167c002072000065710000756500007374000035
:10168c00696e00006728000068650000782900007a
:10169c003a200000000d00000a57000068610000ad
:1016ac00742000006973000020740000686500005d
:1016bc0020730000686f000072740000206100004d
:1016cc00646400007265000073730000206f0000fa
:1016dc006620000064650000766900006365000008
:1016ec00207900006f75000020770000616e00000b
:1016fc00742000006461000074610000206600002a
:10170c00726f00006d3a0000200000000d0a00000e
:10171c00506c0000656100007365000020650000de
:10172c006e74000065720000207400006865000093
:10173c0020470000726f0000757000002049000007
:10174c00442000006f6600002074000068650000f3
:10175c00204400006174000061200000526500000c
:10176c007175000065730000743a000020000000e1
:10177c000d0a0000506c00006561000073650000ec
:10178c00206500006e74000065720000207400007b
:10179c0068650000206e0000756d00006265000039
:1017ac00722000006f660000206200007974000057
:1017bc0065730000207400006f200000736500004a
:1017cc006e64000020280000686500007829000085
:1017dc003a200000000d00000a5000006c6500006b
:1017ec006173000065200000656e000074650000e8
:1017fc00722000007468000065200000736800000f
:10180c006f720000742000006164000064720000bc
:10181c0065730000732000006f66000020740000e8
:10182c0068650000206400006573000074690000a6
:10183c006e610000746900006f6e0000206400008f
:10184c006576000069630000653a00002000000026
:10185c000d0a0000456e0000746500007220000047
:10186c007468000065200000477200006f7500006e
:10187c0070490000442000006f66000020640000e6
:10188c006576000069630000657300002074000039
:10189c006f200000736500006e640000206400007f
:1018ac0061740000613a0000200000000d0a000085
:1018bc000a200000576800006174000020470000f7
:1018cc00726f00007570000020410000637400000e
:1018dc00697600006974000079200000646f0000d4
:1018ec00207900006f75000020770000616e000009
:1018fc0074200000746f0000206400006f20000052
:10190c003f2000000d0a0000003000003d410000a7
:10191c0064640000204400006576000069630000e8
:10192c0065200000746f000020610000204700005b
:10193c00726f000075700000200d00000a3100006d
:10194c003d520000656d00006f76000065200000c0
:10195c0044650000766900006365000020660000a5
:10196c00726f00006d2000006120000047720000c3
:10197c006f750000700d00000a3200003d5200002f
:10198c00656d00006f760000652000004465000066
:10199c00766900006365000020660000726f00002d
:1019ac006d200000416c00006c20000047720000ac
:1019bc006f750000707300003a200000000d0000ed
:1019cc000a4500006e7400006572000020310000b2
:1019dc00362d000062690000742000004772000080
:1019ec006f750000702000004944000020280000a2
:1019fc0048650000782900003a200000000d000026
:101a0c000a530000686f0000727400002020000070
:101a1c0020200000202000002020000020200000ba
:101a2c0020200000202000004d4100004320000039
:101a3c00202000002020000020200000202000009a
:101a4c00202000002020000020200000202000008a
:101a5c005479000070650000202000002020000058
:101a6c002020000020200000526e0000746c00004a
:101a7c007368000069700000200000000d0a00006f
:101a8c000020000020200000207c0000202000000e
:101a9c00202000000020000020200000207c0000fe
:101aac0020200000202000002000000052540000e4
:101abc005200000052460000440000004352000057
:101acc0044000000554b00004e000000434800004d
:101adc00494c00004420000000500000415200001e
:101aec00454e000054000000554e00004b570000be
:101afc004e200000000d00000a5000006c65000034
:101b0c006173000065200000656e000074650000c4
:101b1c0072200000746800006520000073680000eb
:101b2c006f72000074200000616400006472000099
:101b3c0065730000732000006f66000020740000c5
:101b4c006865000020640000657300007469000083
:101b5c006e610000746900006f6e0000206400006c
:101b6c006576000069630000652800006865000068
:101b7c00782900003a20000000680000656c000025
:101b8c006c6f0000776f0000726c000064610000e5
:101b9c006263000064650000668400002a27000070
:101bac0004a3000074c20000f9ff0000c1ba0000d9
:101bbc00de7800005a680000b70000000102000047
:101bcc00030400000506000007080000090a0000d5
:101bdc000b0c00000d0e00000f2b00007e150000fa
:101bec0016280000aed20000a6ab0000f7150000ce
:101bfc0088090000cf4f00003c4e00006f20000011
:101c0c006e650000747700006f7200006b7300004b
:101c1c00206600006f7500006e6400002e2000002e
:101c2c002054000072790000696e000067200000eb
:101c3c0061670000616900006e2e00002e2e00000e
:101c4c000d0a0000004e000065740000776f000064
:101c5c00726b00002873000029200000666f0000e2
:101c6c00756e0000642e0000205400007279000094
:101c7c00696e000067200000746f0000206a00008d
:101c8c006f6900006e200000002000007c20000026
:101c9c00002e00000d0a000000200000457200001c
:101cac00726f000072200000666900006e64000014
:101cbc00696e0000672000006e65000074770000fc
:101ccc006f7200006b2e0000202000005472000088
:101cdc00796900006e6700002061000067610000f8
:101cec00696e00002e2e00002e0d00000a00000070
:101cfc004a6f0000696e00002073000075630000dd
:101d0c006365000073730000667500006c210000b1
:101d1c000d0a000000200000436f0000756c0000ed
:101d2c00642000006e6f0000742000006a6f0000d9
:101d3c00696e000020610000732000006f720000cb
:101d4c0070680000616e00002e200000004d000045
:101d5c00757300007420000074720000792000007c
:101d6c0061730000206e000065770000206e00009b
:101d7c006f640000652e00002e2e00000d0a00007e
:101d8c000054000072790000696e000067200000aa
:101d9c0061670000616900006e2e00002e2e0000ad
:101dac000d0a000000200000436f0000756c00005d
:101dbc00642000006e6f0000742000006a6f000049
:101dcc00696e000020730000656c00006563000004
:101ddc0074650000642000006e65000074770000dc
:101dec006f7200006b2e0000200000005472000087
:101dfc00796900006e670000206e000065780000b5
:101e0c007420000064690000736300006f760000aa
:101e1c006572000065640000206e000065740000af
:101e2c00776f0000726b00002e2e00002e0d00004c
:101e3c000a000000436c0000656100006e69000040
:101e4c006e6700002075000070200000616e0000bd
:101e5c006420000072650000747200007969000053
:101e6c006e6700002064000069730000636f00005f
:101e7c0076650000727900002e2e00002e0d0000f9
:101e8c000a000000526f00007574000065720000bb
:101e9c00205300007461000072740000656400003f
:101eac0021200000456e0000616200006c6900009a
:101ebc006e670000206a00006f6900006e730000fe
:101ecc002e2e00002e0d00000a00000020520000f3
:101edc006f750000746500007220000073740000c0
:101eec006172000074200000756e000073750000b4
:101efc00636300006573000073660000756c00007e
:101f0c002e2000005765000020630000616e000069
:101f1c006e6f000074200000726f0000757400007a
:101f2c006520000066720000616d000065730000a2
:101f3c002e0d00000a0000004a6f0000696e0000c0
:101f4c00696e00006720000070650000726d000073
:101f5c006974000074650000642e00000d0a000016
:101f6c00002000004a6f0000696e00002070000025
:101f7c00657200006d69000073730000696f0000ea
:101f8c006e200000756e0000737500006363000026
:101f9c006573000073660000756c00002e20000055
:101fac005765000020630000616e00006e6f00003a
:101fbc0074200000616c00006c6f00007720000042
:101fcc006a6f0000696e0000732e00000d0a00009d
:101fdc00000d00000a4e00006f6400006520000038
:101fec00002000005769000074680000204d0000bc
:101ffc004143000020410000646400007265000051
:10200c007373000020000000206a0000757300004c
:10201c00742000006a6f0000696e000065640000a7
:10202c002e0d00000a00000057650000206800001b
:10203c0061760000652000006c650000667400008d
:10204c002074000068650000206e000065740000bc
:10205c00776f0000726b00002e0d00000a0000006c
:10206c00416e00006f740000686500007220000073
:10207c006e6f000064650000206800006173000052
:10208c00206c00006566000074200000746800007d
:10209c00652000006e650000747700006f72000010
:1020ac006b2e00000d0a0000005a0000696700004a
:1020bc00426500006520000053740000616300005d
:1020cc006b20000068610000732000006265000056
:1020dc00656e0000207200006573000065740000de
:1020ec002e0d00000a000000204c0000656100006d
:1020fc00766900006e6700002074000068650000bf
:10210c00205a00006967000062650000652000002d
:10211c006e650000747700006f7200006b2e00007b
:10212c000d0a0000000d00000a2000004c650000a4
:10213c006e3a000020000000467200006f6d000037
:10214c00204100006464000072650000737300009d
:10215c003a200000002000000d0a00002052000070
:10216c006f7500007465000072200000726500003d
:10217c006369000065760000656400002061000062
:10218c002072000065730000706f00006e73000019
:10219c00653a0000200d00000a200000002000001d
:1021ac00200d00000a000000476f000074200000a2
:1021bc004d6500007373000061670000652000002e
:1021cc006f6e0000206100006e200000456e000064
:1021dc0064200000506f0000696e0000740d000058
:1021ec000a0000000d0a0000526500006365000043
:1021fc006976000065640000206500006e630000d5
:10220c0072790000707400006564000020640000a6
:10221c0061740000613a0000200000000d0a00000b
:10222c00434200004320000064650000637200001c
:10223c0079700000743a0000200000005355000033
:10224c004343000045530000532100000d0a0000d9
:10225c0000460000414900004c550000524500006a
:10226c00210d00000a0000000d0a0000496e00005c
:10227c0020660000756e000063740000696f00003a
:10228c006e200000696e0000707500007420000064
:10229c0064610000746100003a200000000d000031
:1022ac000a4900006e200000667500006e63000095
:1022bc00746900006f6e000020640000656300000c
:1022cc0072790000707400006564000020640000e6
:1022dc0061740000613a0000200000000d0a00004b
:1022ec007265000074750000726e00006564000079
:1022fc0020640000656300007279000070740000b7
:10230c00656400002064000061740000613a000004
:10231c002000000045720000726f00007220000067
:10232c0000200000736500006e640000696e000000
:10233c00672000006d65000073730000616700008a
:10234c00652e00000d0a0000002000004d65000005
:10235c007373000061670000652000007365000066
:10236c006e7400002073000075630000636500004c
:10237c0073730000667500006c6c0000792e000011
:10238c000d0a00000020000050650000726600007d
:10239c006f7200006d200000477200006f75000026
:1023ac00702000004f700000657200006174000026
:1023bc00696f00006e2e00000d0a00000054000032
:1023cc0072790000696e000067200000746f0000d5
:1023dc00206a00006f6900006e2000006e6500002e
:1023ec00747700006f7200006b20000061730000b6
:1023fc00206100006e2000006f7200007068000009
:10240c00616e00002e2e00002e0d00000a00000050
:10241c00204d000075730000742000006e6f0000ea
:10242c0077200000747200007920000061730000b6
:10243c0020610000206e000065770000206e000017
:10244c006f640000652e00002e2e00000d0a0000a7
:10245c000054000072790000696e000067200000d3
:10246c00746f0000206a00006f6900006e2000008d
:10247c006e650000747700006f7200006b20000026
:10248c006173000020610000206e00006577000081
:10249c00206400006576000069630000652e000072
:1024ac002e2e00000d0a000000200000202000004d
:1024bc000d0a000041640000646500006420000007
:1024cc006e6f000064650000207400006f20000037
:1024dc00677200006f75000070200000340d000062
:1024ec000a00000020200000200d00000a5200000d
:1024fc00656d00006f76000065640000206e0000c2
:10250c006f64000065200000667200006f6d0000b3
:10251c0020670000726f000075700000203400000e
:10252c000d0a000000200000556e000068610000dc
:10253c006e6400006c650000642000007072000086
:10254c00696d00006974000069760000652e00005a
:10255c000d0a0000000d00000a0d00000a0d00001d
:10256c000a2a00002a2a00002a2a00002a2a00002f
:10257c002a2a00002a2a00002a2a00002a2a0000ff
:10258c002a2a00002a2a00002a2a00002a2a0000ef
:10259c002a2a00002a2a00002a2a00002a2a0000df
:1025ac002a0000000d0a00005a6900006742000072
:1025bc0065650000205200006f7500007465000016
:1025cc00722000002d200000763200002e3000001a
:1025dc002d3200002e3600002e300000610d000060
:1025ec000a0d00000a00000054720000616e000029
:1025fc00736300006569000076650000722d0000b1
:10260c004d52000046320000344a000034300000c5
:10261c000d0a00000d0a0000000000004d4c0000e7
:10262c004d4500005f440000495300004153000039
:10263c00534f00004349000041540000455f000027
:10264c00696e000064690000636100007469000039
:10265c006f6e00002052000065730000756c000066
:10266c00743a0000200000000d0a000044650000d0
:10267c00766900006365000020410000646400007e
:10268c0072650000737300003a200000000d00001a
:10269c000a4400006973000061730000736f00004e
:1026ac006369000061740000652000005265000041
:1026bc00617300006f6e00003a200000000d0000f6
:1026cc000a410000434c0000204500006e740000dd
:1026dc00727900003a200000000d00000a00000092
:1026ec000d0a00004d41000043200000504900003d
:1026fc00423a0000200000000d0a00004d4100008d
:10270c0043200000504100004e490000443a0000b4
:10271c00200000000d0a00004d4100004320000085
:10272c00536800006f7200007420000041640000c8
:10273c006472000065730000733a00002000000012
:10274c000d0a000042650000616300006f6e00001e
:10275c00204e00006f7400006966000079200000b4
:10276c00496e000064690000636100007469000038
:10277c006f6e00002052000065730000756c000045
:10278c00743a0000000d00000a4300006f6f000057
:10279c007264000041640000647200004d6f000020
:1027ac00646500003a200000000d00000a430000a0
:1027bc006f6f000072640000504100004e49000031
:1027cc00643a0000200000000d0a0000436f000076
:1027dc006f720000644100006464000072650000c8
:1027ec00737300003a200000000d00000a4c00003a
:1027fc006f67000069630000616c000020430000fb
:10280c00686100006e6e0000656c00003a200000ec
:10281c00000d00000a530000757000006572000086
:10282c0066720000616d0000655300007065000069
:10283c00633a0000200000000d0a00004c69000003
:10284c006e6b000051750000616c00006974000033
:10285c00793a0000200000000d0a000054690000c5
:10286c006d65000053740000616d0000703a00004b
:10287c00200000000d0a0000414300004c45000000
:10288c006e740000727900003a200000000d000008
:10289c000a530000636100006e200000436f0000cb
:1028ac006e660000697200006d2000005265000029
:1028bc00737500006c740000284100006374000004
:1028cc00697600006520000053630000616e000013
:1028dc00293a0000200d00000a00000050410000c1
:1028ec004e200000003a00002000000020000000f4
:1028fc000d0a000053630000616e000020430000cd
:10290c006f6e000066690000726d000020520000be
:10291c0065730000756c0000742800004f72000095
:10292c0070680000616e00002053000063610000bd
:10293c006e2900003a0000000d0a0000556e0000e0
:10294c0073630000616e00006e650000642000007f
:10295c0043680000616e00006e6500006c7300003f
:10296c003a200000000d00000a52000065730000c0
:10297c00756c0000744c0000697300007453000007
:10298c00697a0000653a0000200000000d0a000082
:10299c006d61000063530000686f000072740000ea
:1029ac00416400006472000065730000733a00001b
:1029bc00200000000d0a00006d6100006350000053
:1029cc00414e0000494400003a200000000d000078
:1029dc000a4d00004c4d0000455f0000434f0000c5
:1029ec004d4d00005f530000544100005455000051
:1029fc00535f0000696e00006469000063610000b1
:102a0c00746900006f6e00002052000065730000b6
:102a1c00756c0000743a0000200000000d0a0000e4
:102a2c00504100004e490000443a000020000000d4
:102a3c000d0a000053720000634100006464000042
:102a4c0072650000737300003a200000000d000056
:102a5c000a440000737400004164000064720000ba
:102a6c0065730000733a000020000000780000003d
:102a7c0000000000b4000000000000002c01000069
:102a8c00000000001c02000000000000fc0300001d
:102a9c0000000000bc070000000000003c0f00001c
:102aac00000000003c1e0000000000003c3c000048
:102abc00000000003c780000000000003cf000002a
:102acc00000000003ce00000010000003cc00000e1
:102adc00030000003c800000070000003c000000e8
:102aec000f0000000d0a00004d4300005053000081
:102afc005f44000041540000415f0000696e00001b
:102b0c006469000063610000746900006f6e00006e
:102b1c002052000065730000756c0000743a0000d0
:102b2c00200000000d0a00005372000063410000f9
:102b3c0064640000724d00006f640000653a000090
:102b4c00200000000d0a00005372000063410000d9
:102b5c0064640000723a0000200000000d0a0000be
:102b6c00447300007441000064640000724d000066
:102b7c006f640000653a0000200000000d0a0000a0
:102b8c004d410000432000004461000074610000ce
:102b9c0020540000726100006e7300006d6900002b
:102bac0073730000696f00006e2000005265000016
:102bbc006365000069760000656400003a2000003f
:102bcc00000d00000a4c0000696e00006b51000003
:102bdc00756100006c690000747900003a200000f7
:102bec00000d00000a0000000d0a00004d4100001d
:102bfc004320000050490000423a00002000000031
:102c0c000d0a00004d41000043200000504100001f
:102c1c004e490000443a0000200000000d0a00005c
:102c2c004d41000043200000536800006f7200000b
:102c3c0074200000416400006472000065730000a1
:102c4c00733a000020000000020100000f0f00008a
:102c5c000005000000000000400000000000000023
:102c6c000000000000000000000a0000000000004e
:102c7c00010000000200000003000000040000003e
:102c8c0005000000060000002000000021000000ec
:102c9c002200000000000000000000000000000006
:102cac00000000000a00000000800000018000000d
:102cbc0002800000038000000480000005800000fa
:102ccc00068000002080000021800000228000008f
:102cdc0000000000000000000000000000000000e8
:102cec00010000000301000000000000000a0000c9
:102cfc000000000003000000040000003800000089
:102d0c0054000000700000008c000000c4000000a3
:102d1c00e0000000ff0000000000000000000000c8
:102d2c0000000000000000000a000000000000008d
:102d3c0001000000020000001c0000003800000030
:102d4c00700000008c000000a8a00000c40000006f
:102d5c00ff00000000000000000000000000000068
:102d6c0000000000f0000000030100000000000063
:102d7c00000a00000000000001000000020000003a
:102d8c001c00000038000000700000008c000000e7
:102d9c00a8a00000c4000000ff000000000000001c
:102dac000000000000000000000000000a0000000d
:102dbc000000000001000000020000001c000000e8
:102dcc0038000000700000008c000000a8a000007b
:102ddc00c4000000ff000000000000000000000024
:102dec00000000000000000010c1000000400000c6
:102dfc00ce000000000000007f000000000000007a
:102e0c000000000030310000323300003435000087
:102e1c0036370000383900004142000043440000be
:102e2c0045460000020000000000000000a3000066
:042e3c00040000008e
:020000040000fa
:102e40008000eb00d05e8000f007b200010032008d
:102e5000110020000100780000000600889fbe00dd
:102e600004a9a9006a2def006c2def00606a8000b4
:102e7000406a8800e9d520000044eb00406a8000e9
:102e800022c1b30089007800364507000844e800f5
:102e900020012000482db400f94f5400f7ff3a00fc
:102ea0000040eb0050edb7000004fd0051edb7000d
:102eb0000004fd005aedb7005bedb7005c0da90002
:102ec000c0532a00706a8800506a800002c1b300b3
:102ed000e1d42000234507004f04be000000060097
:102ee000889fbe008a9fbe008c9fbe00810678002e
:102ef00002067800016a8000f16988002bd4200066
:102f0000000578008044eb0009447800f1698000f6
:102f100062c0b3000b007800dd440700106a800037
:102f20008a0f500002003a0019c0b30003003700b6
:102f30000844e800600020003e2db400ef4f54002c
:102f400003003e000904e00003003a00efff3700f1
:102f50000904e00006003200306a8000800e78002c
:102f600044cdbf00004e78000980fb00030037000d
:102f700030c0b300004e78000000eb004f06be00ea
:102f80004f05be004f04be00000006003c4cec00a4
:102f90003cecb70002003a0010c0b3003cecb700b4
:102fa0003cccbf000080fb000000060088c9bf00c9
:102fb0008000eb00050032000040e90088e9b7001e
:102fc000504c8000b080fb00504c8800010078001d
:102fd00000000600889fbe008a9fbe00ead5200040
:102fe0000004eb000080fb0000004000e40540000e
:102ff0007240b9004c0db400406a880022c1b30091
:10300000800078000a007800a1440700316b80003e
:10301000804c8000808f500009003a00a0bd200045
:103020006b0078008880fb00f680400080804000c4
:10303000114090000004a100904098000300370068
:103040000804e800f90f5400e9ff3a004f05be00fc
:103050004f04be0000000600889fbe008a9fbe008d
:103060008c1f7800804378000045eb00e6bb200011
:1030700068bc2000960278000500e00008003200dd
:103080000704e0000700320065489000814f5000bf
:1030900004003a0045009000820f500001003a0001
:1030a0001ac0b3000683e800860f5400f1ff3a000f
:1030b00009c1b3000404e0000100350089c0b30079
:1030c0000a04e0001a003200006a8000f0698800fb
:1030d0000904e000160032002cd42000030578001b
:1030e0008045eb000b447800f169800062c0b300ba
:1030f0000c00780066440700106a80008a0f5000b8
:1031000003003200206a8000e30f500001003a0003
:103110001bc0b3000844e800600020003e2db4004e
:1031200088cf5400f0ff3a000b80fb00010037000d
:103130000000eb004f0678004f05be004f04be00b4
:1031400000000600889fbe008a9fbe0080057800b0
:10315000606a8000406a8800ead520000004eb0025
:10316000416a800022c1b3000a0078004844070089
:103170006d2dab0005003200306b80008b0f5000ce
:1031800002003a000880fb00060037002001200002
:10319000482db4000804e800f90f5400f0ff3a008d
:1031a000080078004f05be004f04be000000060076
:1031b000800178000409a80022c0b3000200780052
:1031c0008ee9b70020698000604c88003469800077
:1031d000844c88000001fd008fe9b7000001fd006c
:1031e000004d8800c34c880020cdbf008048780087
:1031f000a2e9b7008b69ef00e18f410008003200bf
:103200008b09a80003007800ceff0700f94f50009b
:10321000030032006d0dab0001003a008b49a8009d
:1032200010c0b3008ae9b700000006000200fa00ef
:10323000889fbe008a9fbe008c1f78000006780021
:1032400082057800e4cf5000130032000180fb00bb
:1032500000004000e1bb200060807800205090001a
:1032600062c0b3000440bc00016a800081004100dc
:10327000f169880028d4200062c0b30008007800fb
:1032800003440700442def00f069800062c0b300e2
:103290008800780033440700719020009140780046
:1032a0000181fb008990200020c0b30000f17c0068
:1032b0000140e80007e9b7000080fb001b419000d7
:1032c00002f07c0001c0e80007e9b7000080fb00c5
:1032d0002b41900002f07c0063c040000080fb00a6
:1032e0000cf07c0064c040004865de000080fb00fc
:1032f0000af07c0065c0400007e9b7000080fb00d1
:103300004b41900002f07c0066c0400007e9b70026
:103310000080fb005b41900002f07c0067c0400031
:1033200007e9b7000080fb00eb4590000bf07c0044
:10333000e8c040008000fd0007e9b7008000fd0004
:10334000689020001844780010ff07008880fb0078
:1033500080f07c000840e9000080fb00a1c0b300c1
:1033600001f07c0008c0e9000080fb0071d2200061
:1033700011f07c00634054000080fb0061d220000b
:1033800011f07c00644054000080fb000af07c00d7
:10339000654054000080fb000cf07c006640540047
:1033a0000080fb008040eb0001f07c00674054008f
:1033b0000080fb0091c0b30001f07c006844540021
:1033c0000800780006e9b700804c8000ec805700c8
:1033d00077ff07004f0678004f05be004f04be0080
:1033e0000080fa00000006000400fa00889fbe007a
:1033f0008a9fbe008c9fbe00000578000106780001
:1034000082067800016a8000f16988002bd42000d0
:1034100062c0b3000b0078009d4307008a04780067
:103420000044eb00090037000844e800f16980001f
:10343000e6804000f169880062c0b3000b007800ac
:1034400093430700f04f540006003200106a8000da
:10345000890f5000f4ff3a00150037000084fb008c
:1034600020003700016a8000f169880062c0b30063
:103470000b007800864307000044eb00090037008a
:103480000844e800f1698000e6804000f1698800a6
:1034900062c0b3000b0078007d430700f04f54007a
:1034a00003003200206a8000e30f5000f4ff3a006e
:1034b000884e78008000eb00e2bb2000050037005a
:1034c0000040e8008100e8000281e800e48f50003d
:1034d000e2ff320001407800010478001200e000b1
:1034e000f7ff3a00004e780040c1b300fe450700e8
:1034f0000001780088004400e0bb200082307800a2
:103500000200e00002003a00020078001b003700d1
:103510001a6a88001a0020002a6a8800f069800070
:1035200062c0b3008b0078008e430700080444009b
:10353000e0bb2000000444009800780000c0eb00cd
:10354000805098009804780070805700e24507008a
:103550000fb897009fb89700808cbe0018007800c5
:103560009d4678002d509800980078000000eb00f0
:10357000e0009800da2ba8000a0078004f06be0091
:103580004f05be004f04be000080fa000000060098
:103590000400fa00889fbe008a9fbe008c1f78003e
:1035a000000678000000eb00e1bd200005003700b8
:1035b0000844e8000000e8008180e800e70f5000c0
:1035c0000500320000447800800478001100e0001b
:1035d000f7ff3a0003003700e74f54002c00320099
:1035e0008884fb0000c3b300bf4507008980440006
:1035f00064854000abbd200000b57d000000e00008
:1036000023003200084e7800ea807d0000c0eb0005
:10361000c04898006a847d006e805700ae45070060
:103620001fb89700afb8970070049800010c98007d
:10363000100c9800210c9800ea807d003108900061
:103640000050a100b00898006a817d003208900007
:1036500001ff2f00010060000010a0003009980059
:103660000001eb008a0078000b02780033c0b30041
:1036700061007a0002004000735098000201e800e7
:10368000f90f5100faff3a00100020000100370046
:103690000000eb004f0678004f05be004f04be004f
:1036a0000080fa0000000600094ee20019003a000e
:1036b0000c0dab0014003200a0d5200031c1b300c6
:1036c00090cf100010003e008829ab0002003a00a5
:1036d000db6bab000a00320020d5200041c0b300f4
:1036e00090cf100008003e00b0d5200051c0b300bc
:1036f00090cf100004003e00db8bab0002003a00cc
:1037000010c0b300010037000040eb000080fb0058
:1037100000000600a0d5200031c1b30090cf1000fa
:1037200010003e008829ab0002003a00db6bab00c2
:103730000a00320020d5200041c0b30090cf100015
:1037400008003e00b0d5200051c0b30090cf10005b
:1037500004003e00db8bab0002003a0010c0b30057
:10376000010037000040eb000080fb000000060075
:10377000889fbe008a1f7800606a8000406a8800c7
:10378000ead520000004eb00416a800022c1b300aa
:103790000a007800be4207006d2dab0002003a001f
:1037a0000880fb000600370020012000482db400ef
:1037b0000804e800f90f5400f3ff3a00080078000d
:1037c0004f0578004f04be0000000600d10820001d
:1037d000e24f50001000320006003e00d1432100ad
:1037e0000004e0000c003200e14f500007003a00f6
:1037f0000800370051012000e34f5000060032005e
:1038000011002000e44f5000030032008000eb0064
:1038100001003700d13520000100780000000600cb
:10382000889fbe000004be000204e00007003200d2
:10383000810f5000070031000240e900e3ff07005c
:1038400000004400808f540002003100100020006e
:10385000010037000000eb004f04be00000006002e
:10386000889fbe008a9fbe008c1f7800800478006d
:1038700001067800606a8000406a8800ead520006e
:10388000890578000044eb00416a800022c1b30042
:103890000a0078007e420700606b8000002cb200b6
:1038a00001242000810f50000e003a00336b80008d
:1038b000838f550007003200524dec000041780024
:1038c0008900780003007800d5ff07000004e000bd
:1038d00004003200306b8000000e780010002000e1
:1038e0001200370020012000482db4000844e800f1
:1038f000f94f540005003200e3ff3700f068800004
:10390000000e7800100020000800370022d52000ab
:10391000124178003069800089007800c0ff0700fc
:103920000004e000f5ff32000000eb004f067800d5
:103930004f05be004f04be00000006000004e0007a
:10394000220032000d6def0010c2b3000eedb70083
:1039500021d52000914078004309dd000200780065
:103960000fedb700a0d5200033c1b30090cf1100f8
:1039700016003e0000d5200083c1b30090cf110097
:1039800012003e00d35e800003b8a30006003a0098
:10399000e4cf50000d003e00024078000074a0000b
:1039a0000fedb70002003700e4cf500007003e00e3
:1039b000b0d5200051c0b30090cf100003003e00ee
:1039c00003c8a30001003a000f4da8000000060044
:1039d000626b800082007800010cb20000042000bd
:1039e000808f500009003a005a6ded000200780007
:1039f0000003b200f00f500001003a005b6ded00d3
:103a000010c0b300cdff0700040037000100e00044
:103a100002003a0090c1b30051edb7006d2da9002e
:103a20006a2def006c2def00406a800022c1b300c8
:103a3000e1d520004b420700506ded00506a800038
:103a400002c1b300e1d4200046423700e0d5200097
:103a50000199200007000900315878002069800092
:103a6000406b88006eedef008829ab000f003a0034
:103a70006c8da9006cada800064ee2000300320078
:103a8000e0ff2f00306b880002003700b16a800031
:103a9000316b8800560dec00b06a8800e20f4000e0
:103aa00016003a00db6ba800140037006c8da800ec
:103ab0006cada900064ee20003003200e0ff2f00cb
:103ac000306b880002003700c06a8000306b8800cd
:103ad0005b6dec00a26a800002007800580db40013
:103ae000c06a88006611b900316980000101410097
:103af000820f500001003600db8ba800414c800093
:103b0000c508dd000110b200606b80000080a100dc
:103b100001007000606b88006ccda8006ceda900fe
:103b20006d2da800406a800022c1b300e1d52000bd
:103b30000c4207005a6dec00506dec00506a80009a
:103b400002c1b300e1d420000642070010c0b30058
:103b50007aff3700889fbe008a9fbe008c1f7800c6
:103b60008005780001067800606a8000406a88005d
:103b7000ead520000004eb00416a800022c1b300b6
:103b80000a007800c24107006d2dab00080032002a
:103b9000306b80008b0f500005003a00406b8000b6
:103ba0008c0f500002003a000880fb00060037002e
:103bb00020012000482db4000804e800f90f54004b
:103bc000edff3a00080078004f0678004f05be0070
:103bd0004f04be00000006000a00fa00889fbe00e5
:103be0008a9fbe008c1f7800004478000146780050
:103bf0008000eb0022bf2000050037000040e800f5
:103c00008100e8000281e800e68f500005003200e4
:103c100001407800010578001200e000f7ff3a004b
:103c200003003700e64f50002f0132000085fb00f3
:103c3000c0c0b3002c440700800078000a00450093
:103c4000f8044000abbd200081b47d000100e0001d
:103c5000250132000804e0004e0032003069800087
:103c6000a000980069807d00c14c80003100980060
:103c700069817d0006c9bf000749b50071c8b3005e
:103c8000014040002041980069807d002040900064
:103c900015440700000478000000e00005003a0029
:103ca00069807d001244070088b47d004000200038
:103cb0000e0137000a00450078004000a1bd200039
:103cc00060807800080878004660dd000034a000bd
:103cd000004c780089c9bf000040400010449800a3
:103ce00098c9bf0020449800919920009140780025
:103cf0003144980026cdbf004044980071d2200086
:103d000091407800514498000c9920001c4678009e
:103d10006c449800a2c9bf00704498006801440038
:103d20006190200091407800e0c7b30080cf500040
:103d30000a003e0084902000804178000140e800a5
:103d400006e9b7000080fb0060597a00619020000e
:103d50009140780083cf5000f8ff36000749ed000e
:103d600007e9b700e14f40004700320082007800c9
:103d70008390200002c050000080fb00e0d8790052
:103d80000749ed0007e9b700e14f40003e0032006f
:103d9000f8ff3700c0ff2f008a29b4000a00450051
:103da00078044000a9bd200068807c00814c800020
:103db00021009800e8807c008a09ed00504c8800c2
:103dc00010407800f0409800e8807c008a09ed00ff
:103dd000504c880010407800e04098008aa9ed001f
:103de00088c9bf006840400088e9b700e8807c00cf
:103df000a040980068807c0020409000ba430700f3
:103e0000800578000000e0005d0032000a004500f7
:103e100078004000a1bd2000608078000b08780089
:103e200062fc0700f043b200c660dd0080cd700088
:103e30005efc0700904598005cfc0700a0459800d8
:103e40005afc0700b045980058fc0700c045980090
:103e500056fc0700d045980054fc07000046e900d6
:103e6000ec45980051fc0700f04598006884450037
:103e70008849e200040032004cfc0700005c780036
:103e80008849e200fcff3a000a004500f8044000bf
:103e9000abbd200069847d00728057008e4307000f
:103ea0007fb097008fb897004004980051049800a5
:103eb00069807d003000900074815700f3805700c6
:103ec00049fd07000004e00009003a0069807d0018
:103ed000100078008643070069807d008443070056
:103ee0000000eb0080b47d00400020007f00370020
:103ef0000409a900f0c7b30006e9b7000769ef009d
:103f00005fe897000080fb0000004000e9bb200054
:103f100060847c00e0c0b300734307008005780034
:103f2000600498000000e0001a003a001000200031
:103f3000206a8800f069800062c0b30021d42000ac
:103f4000084107005fe897000080fb000000400088
:103f500060807c00664307005fe897000080fb00fc
:103f6000000040000bb07c000a04450078044400c7
:103f7000a9bd200068807c00100078005c43070029
:103f800068807c005a4307000bb47c00400020008e
:103f9000560037005fe897000080fb0000004000fb
:103fa000e8bb200060007c0011bf20009140780039
:103fb000614898005fe897000080fb000000400027
:103fc00060007c0031698000410098005fe8970044
:103fd0000080fb000000400060007c008044eb009b
:103fe000794898005fe897000080fb0000004000df
:103ff00060017c0012089000f18f2f00010060002a
:1040000000a0a000100998005fe897000080fb0066
:1040100000004000e0007c001108900000b0a1000a
:104020009008980010c0b300804d780000c8b3001d
:1040300090459800f1cbbf00a04598000040e800f3
:10404000f1ebb7000a00450078004000a2bd200057
:10405000e0007900e1409000b145980060007900ef
:1040600070409000c0459800d9459800c7fb0700f4
:10407000e0459800fc45980027cdbf00804d980092
:1040800061d2200091407800914d980000c0eb0073
:10409000a04d9800c0cfb300b04d9800c94d980016
:1040a00090c0b300d04d98006e8057000a430700bf
:1040b0005fe897000080fb000000400060027c0089
:1040c0001fb89700afb89700d21f2c00f3ff2f0046
:1040d00000004100818049002002980031029800d0
:1040e0001000200001003700400020004f0678003b
:1040f0004f05be004f04be000080fa00000006001d
:104100000200fa00889fbe008a9fbe0080457800aa
:1041100001047800024578008304780001007800eb
:1041200008fc0700f94f50000a003200616b800064
:10413000010cb20000042000808f50000200320009
:104140000100e00003003a00880c78000000eb005a
:10415000260037003269800004c8b3008801780067
:104160008040eb0001407800bbfb07000004e0004a
:1041700015003200e24f550004003a0011c0b300b0
:104180000b40780094fe0700180037006a81570042
:104190000800be0052fb07000004e00004003200eb
:1041a0006ff097000004e00007003a000e003700af
:1041b000e14f550004003a008a4078000b40780037
:1041c00085fe0700090037000800be00a4fd0700b7
:1041d0000004e00004003a0010cdb30088e9b70005
:1041e00020002000010037000000eb004f05be005a
:1041f0004f04be000080fa0000000600889fbe0049
:1042000030002000206a880042adef00006a800084
:10421000f069880029d420000044eb00f069800098
:1042200062c0b300890078004e4007000844e800ef
:10423000600020003e2db400f04f5400f7ff3a001c
:104240004f04be0000000600889fbe008a9fbe008b
:104250008c1f780080457800300880003cecb70067
:104260000469ef00d15e8000da2bef00dc2bef0059
:104270000000220080806000d05e800000d0a1009d
:1042800001007000d05e8800e0c320000041eb0018
:1042900081c82000024878000080e800808f50002c
:1042a000fcff3a000b04e00004003a00c06080000c
:1042b0000000e000010032008d4207000000eb002a
:1042c000c060880080047800eabd2000acbd2000fa
:1042d0000b04e000020032000904780008003700f7
:1042e000090478001a0078000000e00004003200a1
:1042f000100078007e4207001a0078007c42070018
:1043000008004400640040008000eb0001307e00a3
:104310008904e8000a85e800e78f5400ecff3a00c2
:10432000810478002abf2000acbd20000b04e0000f
:104330000200320009047800080037000904780000
:104340001a0078000000e00004003200100078003d
:10435000674207001a007800654207000800440021
:10436000780040008000eb0001307e008904e80006
:104370000a85e800e68f5400ecff3a0081047800db
:10438000eabb20000a0678000b04e00002003200bd
:104390000904780005003700090478001a00780045
:1043a0000000e00001003200514207000800440014
:1043b0000c0040000008eb008904e8000a85e800d2
:1043c000e48f5400f0ff3a008cff07004f0678009e
:1043d0004f05be004f04be000000060010c0b30031
:1043e00099ff0700516a800002c1b300e0d42000a9
:1043f000a73f0700716a8000c0532a00808f5000d9
:104400000200320095fa07000500370010d52000a1
:1044100091c1b30090cf10000100320004a9a800a0
:1044200080bc20000041eb00c1bd200002487800a4
:1044300064004000810f5000fcff3a0000c02000e3
:104440000081eb0081c12000020878006400400078
:10445000808f5000fcff3a00000006000800fa00c0
:10446000881f7800ea805700827129000700090040
:10447000b25878008100b1000004eb0082002000f7
:104480000cf207000000e00001003a0018002000d4
:10449000080078004f0478000080fa000000060051
:1044a000889fbe008a9fbe0080057800606a8000f9
:1044b000406a8800ead520000004eb00416a8000d1
:1044c00022c1b3000a007800713f07006d2dab00d8
:1044d0000800320082002000e1d520000b007800a7
:1044e000f4f107000000e00002003a000880fb0041
:1044f0000600370020012000482db4000804e80021
:10450000f90f5400edff3a00080078004f05be0097
:104510004f04be00000006006f05b000889fbe007b
:104520008a9fbe008c9fbe008e1f78008045eb00e6
:104530000004780061fb2f0001804700e64107007e
:104540003f999700cf999700e2b79f00f3b79f007c
:10455000da4bab000f003200645f8000755f8000b3
:10456000040251008582590002bf200012417800e8
:104570000281fb000300200040422f000010b80021
:10458000800f5200818f5a00020036000c0da900e6
:10459000da4ba9000800e00067043a0004c9bf0034
:1045a0000008a3003d133a00da0bab0062013200b1
:1045b0006fb29700ffb29700d4af9f00e5af9f00a6
:1045c00088067800ecbd20000d0778000c05780007
:1045d0001c0478000800e000480132001808900030
:1045e000a80890005faa9700efaa97000001520068
:1045f00081815a00030033000200be00efef070084
:104600000900370061006100010020008301d10032
:104610000281d3000200700083807000e7ef070082
:104620000001be0011f0070002a02b00b3752400aa
:104630006bf007000000e00006003400180078006e
:10464000ab4107001a007800a9410700000deb00fc
:104650002a013700380990000202b20027013a000f
:104660000b10a100c84c9000f9cf54005a00320042
:104670008042eb0085e79f00e1cf44001b003a0039
:1046800078009000880890005faa9700efaa970032
:104690000000520081805a0015302500850f50001f
:1046a000e08f580002003e0082e79f00470037007d
:1046b0000080eb0090979f000b10a0001a04780078
:1046c000a6fb2f0006804700834107005f989700f4
:1046d000ef989700100c9800210c98008044eb0094
:1046e00011c0b30081e79f00380037000984fb0048
:1046f0000940780022c1b3000440bc00616a800018
:1047000081004100416a880022c1b300e0d5200049
:10471000df3e0700626b8000820078000120b2005b
:1047200004003a00760044001a004000114098004e
:104730001c0037009a00780041009000e40f400010
:1047400008003200e30f400002003a000288a30094
:1047500004003200336b800031009000808f5100e4
:1047600005003a000980fb00008040008040eb001b
:10477000715098000b0037000288a30009003a002e
:1047800093979f008980fb00f68040009a8040004c
:10479000114090000004a1009040980011c0b300a7
:1047a00081e79f008944e8000fe1970061406100c4
:1047b0004200dd000b24a10080c575000b28a3007a
:1047c00002003a00f8cf5400c8ff36001a00780003
:1047d00049489800420037000b00a0008869ef00ac
:1047e0001a0178008000eb000400370001407800d7
:1047f0008100e800f98f50000500320001004100ff
:10480000705090000008a300f8ff3200020037004b
:10481000f84f50002900320000cfb30088e9b700fc
:104820009a017800330890006f0060002300320086
:1048300013089000a30890005faa9700efaa9700c2
:104840000000520081805a0035422f00850f500031
:10485000e08f5800150036000b00a1000080eb002f
:1048600090979f0033089000ef404000ef80600079
:1048700002ff2f000200600001007000b0099800e4
:104880001a047800e0fb2f00008047001241070067
:104890007f9897008fa09700100c9800210c98002b
:1048a00011c0b30081e79f00060037000b00a10094
:1048b0000041eb0082e79f00020037008041eb00df
:1048c00083e79f000fe29700614062004200dd0035
:1048d0000b24a10080c575000b08a3001e003a0040
:1048e0008fe2970061c062004200dd000b24a1004e
:1048f00080c575000b28a300800032000b18a300b0
:10490000250032000e00470064004000a6bd2000d4
:1049100060007b00b000900030698000808f500004
:104920001d003a000044eb00e0c3200051c2b30078
:10493000040037000844e8000080e800814f54007c
:10494000030032001004e000faff3a0013003700c1
:1049500010cfb30088e9b7000e01470064014100a1
:10496000a0bd2000e200780031409000a2e9b7002d
:10497000310890000050a000b0089800a1bd2000b0
:104980006280780030089000430320000048a300b4
:1049900012133a004112370058c2b3006190200050
:1049a000914078008181fb000e00470064004000c8
:1049b000a4bd200060017a00324390008590200061
:1049c00086f17a000140e90006e9b7000080fb00ab
:1049d000c241900003f07a0001c0e90006e9b70087
:1049e0000080fb007242900004f07a0063c0500027
:1049f00006e9b7000080fb006243900006f07a00f1
:104a000064c0500006e9b7000080fb0092499000a6
:104a100003f07a0065c0500006e9b7000080fb0093
:104a2000024a900004f07a0066c0500006e9b70020
:104a30000080fb00224b900006f07a0067c0500017
:104a400006e9b7000080fb00b249900003f07a004d
:104a5000e8c050000100780006e9b7000042eb0012
:104a6000e45f9f0092017800224090000004e00083
:104a70000d0032000502780007c9bf008080fb00ee
:104a8000b342780085707a000040e80007e9b7007b
:104a90006f5b97008640e800e15f9f002240900036
:104aa000814f5000f4ff3e001f909700e1f92f0066
:104ab0008f804000bef9070050c2b300804f540001
:104ac000f81132008880fb0081804000d0c32000b4
:104ad0006f599700827078000e0047006400400014
:104ae000a3bd200060817900e0c320003241900026
:104af0008270780003012000b81237008d06e800ac
:104b00000c86e800e78f5600affe3a008040eb00cd
:104b1000e0bd2000040037008140e8000080e8008c
:104b2000e7cf5000030032001000e000faff32002f
:104b300001003700da0ba900da2bab00d6013200f6
:104b40006fb59700ffb597000001eb00e3bb2000b5
:104b500082027800930078000100e00058003200e3
:104b6000610290000400e00055003200110890003e
:104b700000b8a30009003a0021009000b1009000a5
:104b80000000550081805d0026e02300860f500064
:104b9000e08f58004a0036000800370021009000de
:104ba000b10090000000550081805d0036602a0051
:104bb000860f5000e08f5800410036000040eb00a7
:104bc000e05f9f008290200007c9bf008080fb004b
:104bd000b4417800837079000040e80007e9b7002d
:104be0006f5b97000640e800e05f9f00e54f5000d4
:104bf000f5ff36000040eb00e05f9f008290200050
:104c000006c9bf008080fb00b44178008370790042
:104c10000040e90006e9b7006f5b97000640e80036
:104c2000e05f9f00e74f5000f5ff360085804200af
:104c3000e0bb20000084400098007800110890003c
:104c400000b0a10090089800980178001309900026
:104c50004810de0067404000670060004800dd004b
:104c6000f18f2f000101610000017100920998008d
:104c7000180078006fb19700ffb1970022009800ec
:104c8000330098001801780092089000007020000e
:104c90008084600004003a00620090001440070025
:104ca0001800780069009800e1f92f008f8040001b
:104cb0000080eb003ef90700030120004712370097
:104cc0000201e8008381e800e40f5100a0ff3a00f0
:104cd000e8bb200088047800180278000400e00097
:104ce0002200320034015500a4815d008096280026
:104cf00091002000800f5100818f59001b00360069
:104d00002450900062c0b3000440bc00016a8000df
:104d100081004100f16988002cd4200062c0b300fa
:104d20000c0078005a3d0700206a8000e10f500017
:104d300006003a0020002000206a8800f069800008
:104d400062c0b3008c007800863d0700190078002f
:104d5000600090000000e00001003200e43f070026
:104d600019007800e23f0700800ceb000884e8009f
:104d700060bc2000880f5000d6ff3a000040eb00d6
:104d8000e05f9f00a9bd20008005eb008a90200015
:104d90000080fb00000040007800400060807c0044
:104da0000000e0000a01320030009000e3f92f001b
:104db0008f8141000381e800e480410048f807004a
:104dc0000004e000870032000f6197000204e00059
:104dd00079003a006f5a97000480fb000000400001
:104de00078004000e0817c00a30090000044eb00cc
:104df00030698000808f500029003a00024478001a
:104e0000e0c3200051c2b300040037000844e800aa
:104e10000080e800814f5400030032001004e000dd
:104e2000faff3a001e00370013007800704090002f
:104e3000a2e9b70010cfb30088e9b700ef5a970096
:104e40000580fb00000040007800400060807c008e
:104e500010007800a63f07006f5b97000680fb00fc
:104e6000000040007800400060807c00a03f070008
:104e7000ef5897000180fb000000400078004000e0
:104e80000bb07c000409a900f0c7b30006e9b70025
:104e90000b00780007e9b70043032000cf1137006b
:104ea00093017800fb5f9f006f5997000280fb0021
:104eb000000040007800400060807c0020409000ae
:104ec0000004e00012003200849020000280fb0009
:104ed0000000400078004000a1bd20006081780003
:104ee00007c9bf008080fb00b342780085707a005c
:104ef0000040e80007e9b7007f5897000040e8004d
:104f0000f05f9f00a240900080cf5000f4ff3e0071
:104f10001f909700f6f92f0086804700a4f807003d
:104f2000ef5897000180fb0000004000780040002f
:104f300060817c00a200900030698000808f50006a
:104f400009003a000880fb0000004000d1c32000a7
:104f5000ff59970003f0780012017800e1c32000a8
:104f60007241900002f078006f5a97000480fb00b5
:104f7000000040007800400060807c001000780055
:104f80005b3f0700ef5a97000580fb0000004000e0
:104f90007800400060807c00553f07006f5b970001
:104fa0000680fb0000004000780040000bb07c0051
:104fb0000301200089113700e24f510084003a00bc
:104fc000ef5897000180fb0000004000780040008f
:104fd00060807c00a000900030698000808f5000cd
:104fe0001e003a006f5997000280fb00000040004d
:104ff00078004000e0807c00110078007040900054
:10500000a2e9b7000b00780088e9b700110078002a
:10501000373f0700ef5997000380fb000000400076
:105020007800400060807c00313f07006f5a970095
:105030000480fb0000004000780040000bb07c00c2
:105040000409a900f0c7b30006e9b7000b00780017
:1050500007e9b70043032000601137006890200083
:1050600018447800c9f707008880fb0080707d0035
:105070000840e9000080fb00a1c0b30001707d0082
:1050800008c0e9000080fb0071d2200011707d0093
:10509000634054000080fb0061d2200011707d004d
:1050a000644154000200780006e9b7000281fb0069
:1050b000e1f92f008f8040003180fb0000004000ac
:1050c0007800400060827c00d442900005717d0031
:1050d0006540540006e9b7000080fb00444390009f
:1050e00006707d00664054000080fb000b707d0060
:1050f000674054000080fb0092c0b30002707d0046
:10510000684454000800780006e9b7007290200057
:10511000124178008281fb0030c0b30080717d00b5
:105120000240e8000080fb000b707d0002c0e80038
:1051300007e9b7000080fb00e441900003707d00a8
:105140006340410007e9b7000080fb00f442900093
:1051500005707d00644141000200780007e9b70056
:105160002400900012f807006f5b97000680fb0098
:10517000000040007800400060807c001000780053
:10518000db3e0700ef5897000180fb000000400065
:105190007800400060807c000b0878006f59970011
:1051a0000280fb00000040007800400060807c002e
:1051b000cf3e0700ef5997000380fb00000040003e
:1051c000780040000bb07c00030120000311370081
:1051d0006f5a97000440e800e05f9f00e54f5000e1
:1051e000ebfe36008042eb00e55f9f00066a800020
:1051f000f669880029d42000f169800062c0b300fc
:1052000009007800223c0700286a8000e20f540061
:10521000e81032006f5897000040e800e05f9f0000
:10522000600020003e2db400ef589700efcf5000f3
:10523000f1ff36000040eb00e05f9f00f20be20060
:1052400015003a0041bf20000040e800e05f9f00e9
:10525000e64f5000030032003100e0000e003a003b
:10526000f9ff37000040eb00e05f9f00be0be2005b
:1052700009003a0001bc20000040e800e05f9f0008
:10528000e44f5000030032003100e00002003a0019
:10529000f9ff3700da2ba900d25e80000200e0009f
:1052a0000f003d0080618000916180006fb2970027
:1052b000ffb297000000520081805a00058027004d
:1052c000850f5000e08f580005003600a0ccb300d9
:1052d00088e9b7008ea9ef00a3032000bf103700b4
:1052e0000278a30011003200daeba90088ccbf00dd
:1052f00088e9b70089ccbf0089e9b70081648000e4
:10530000814c8800c2648000d3648000c24c880055
:10531000d34c8800e4648000f5648000e44c88008d
:10532000f54c8800c3042000ac1037000238a300fd
:10533000da0f32000268a30005003200dacba900c0
:1053400010c0b30088e9b70043022000a310370063
:10535000820078000102b200d00f3a0010c2200093
:1053600095c1b30090cf12007b003200e15f9f0037
:10537000e8d5200021ccbf0022c1b3000440bc000e
:10538000616a800081004100416a880022c1b30047
:1053900008007800be3b0700606b8000002cb20064
:1053a00001242000810f500002003200216cec002b
:1053b0000200370010c0b300e05f9f0021ccbf00a7
:1053c000f84f500004003e006f5b97000604e000b9
:1053d00004003a00e7ff3700ef5897000104e000af
:1053e000630032000040e80021ecb7000040eb0011
:1053f000e05f9f000042780089902000e5d5200002
:1054000062902000124178008041780002447800c8
:105410008280fb000480fb006700100060c07a00ff
:1054200080f07c000241e900024578008341e800f9
:1054300003427800e7cf5100f4ff3600e35f9f009e
:105440000001fd0006e9b7000001fd00cff60700ee
:105450008a80fb0080f07c000a40e9000080fb00ad
:1054600011c0b30001f07c00634054000080fb00d9
:1054700071d2200011f07c00644054000080fb00d9
:1054800061d2200011f07c00654054000080fb00d8
:1054900071d6200011f07c00664054000080fb00b3
:1054a00061d6200011f07c00674054000080fb00b2
:1054b0008040eb0001f07c00e84054008180fb005c
:1054c0000101e80062c07c000034a00000f17c0013
:1054d00090c0b30080f07c006940540006e9b7003a
:1054e00007c9bf000081fb0041c0b30001f17c008f
:1054f0000040e80007e9b70000c4b300e05f9f0088
:10550000db2bab000200320000ccb300e05f9f0059
:10551000dbabab0003003a006f5997000254a000c8
:10552000e25f9f0007c9bf000081fb00819020005f
:10553000ef59970003f178000040e80007e9b70051
:10554000306b8000e1f92f008f80400018f70700d2
:105550000301200021103700db2ba9005a6def005a
:10556000506a800002c1b300e1d420007d3b0700f7
:10557000db2bab00110032005a4de2000f0032006d
:1055800016618000276180006fb29700ffb297001c
:105590000603520087835a00a26a8000030020009d
:1055a000f42f25000410b8006711b9008280400074
:1055b000800f5300818f5b00380f3600dacba800d4
:1055c00005ca20008671290007000900b65a780034
:1055d0000040eb00e05f9f000042780089902000cf
:1055e00005ca2000629020001241780080417800b6
:1055f000024478008280fb000480fb0067001000fa
:1056000060c07a0080f07c000241e9000245780029
:105610008341e80003427800e7cf5100f4ff3600f1
:10562000e35f9f000001fd0006e9b7000001fd00f7
:1056300056f607008a80fb0080f07c000a40e900f3
:105640000080fb0011c0b30001f07c0063405400f7
:105650000080fb0071d2200011f07c0064405400f7
:105660000080fb0061d2200011f07c0065405400f6
:105670000080fb0080c0eb0001f07c00664054001d
:105680000080fb00c1cfb30001f07c0067405400f4
:105690000080fb008041eb0003f07c00e8405400f8
:1056a0008180fb000101e80062c07c000044a00092
:1056b00000f17c0090c0b30080f07c006940540091
:1056c00006e9b70007c9bf000081fb0041c0b30075
:1056d00001f17c000040e80007e9b700e35f9f00ac
:1056e000d05e80000098a300060032005a4de20010
:1056f00004003a0000a8a3000200320000c8b30072
:10570000e05f9f0007c9bf000081fb00819020007f
:10571000ef59970003f178000040e80007e9b7006f
:10572000e1f92f008f8040000080eb00a0f6070019
:1057300003012000a90f3700f0fe2f00f1ff2f001a
:1057400008004000e080480014062000840f50004c
:10575000e08f5800d10e3e0000600100610037006c
:105760009e003700cd0e3700cc0e3700cb0e370031
:105770007a073700c90e3700b4073700c70e370065
:105780000c083700440837006a083700c30e37009a
:10579000c20e3700c10e3700c00e3700bf0e3700f3
:1057a00052093700bd0e3700bc0e37005a093700ca
:1057b000ba0e3700b90e3700b80e37007c09370033
:1057c000c30a3700b50e3700b40e3700b30e3700ea
:1057d0000b0b3700b10e3700b00e3700af0e37009d
:1057e0000c0b3700130b3700ac0e3700ab0e370035
:1057f000aa0e3700a90e3700a80e3700a70e3700f3
:10580000a60e3700a50e3700a40e3700a30e3700f2
:10581000a20e3700a10e3700a00e3700110c370082
:10582000520c3700550c37006b0c3700870c3700d3
:105830001d0d37002f0d3700ce0d3700d10d37006d
:10584000960e3700950e3700940e3700930e3700f2
:10585000920e3700910e3700900e37008f0e3700f2
:105860008e0e37008d0e37008c0e37008b0e3700f2
:105870008a0e3700890e3700880e3700870e3700f2
:10588000860e3700850e3700840e3700830e3700f2
:10589000820e3700810e3700800e37007f0e3700f2
:1058a0007e0e37007d0e37007c0e37007b0e3700f2
:1058b0007a0e3700790e3700780e3700770e3700f2
:1058c000760e3700750e3700740e3700730e3700f2
:1058d000720e3700710e3700700e37006f0e3700f2
:1058e000ba0d37000040eb00e05f9f00a8bd20002c
:1058f0008081eb000081fb00c210dd00600220000f
:105900000100400060007c00e10f4000090032000f
:105910000100440050609000a249e30005003a00f5
:105920008849e200850e3a00010078006002b0006c
:1059300003307c00ef5a97000540e800e05f9f00cd
:10594000e54f5000ebff36000043eb00e65f9f00a1
:105950003dccbf00a249e300760e320012002000c9
:10596000f3c3200054022000e25f9f00840f510027
:105970000700320082007800134078000101e8003f
:105980008381e800a249e30005003200f6ff3700fa
:1059900050c2b300804f5100400e32008280fb00a5
:1059a00081804000e0c32000614078008001eb006e
:1059b0000004e00002003200a2e9b7004303200027
:1059c000ef5897000180fb00000040000041eb0011
:1059d000e1c3200002f07800000f370073f50700e4
:1059e000a0ef9f0080f79f0070f5070080ef9f00f9
:1059f00090f79f006df507000080fb0008f02f0076
:105a0000080666000006760068f50700e0e79f00dc
:105a10004800dd00f90f2000090666000006760048
:105a200062f507000080fb008885650080857500b1
:105a30005ef50700c0e79f004800dd00898565002e
:105a40008085750059f50700a0e79f0057f507000e
:105a500090e79f000fed97000a4278000438a300fa
:105a60000c0032000040eb00e05f9f000044780033
:105a700069bb20004df507008880fb0080f07c00aa
:105a8000ef5a97000544e800e85f9f00e74f540095
